{
  "contractName": "Mortal",
  "abi": [
    {
      "constant": true,
      "inputs": [],
      "name": "initiationTime",
      "outputs": [
        {
          "name": "",
          "type": "uint256"
        }
      ],
      "payable": false,
      "stateMutability": "view",
      "type": "function",
      "signature": "0x17c70de4"
    },
    {
      "constant": false,
      "inputs": [],
      "name": "renounceOwnership",
      "outputs": [],
      "payable": false,
      "stateMutability": "nonpayable",
      "type": "function",
      "signature": "0x715018a6"
    },
    {
      "constant": true,
      "inputs": [],
      "name": "owner",
      "outputs": [
        {
          "name": "",
          "type": "address"
        }
      ],
      "payable": false,
      "stateMutability": "view",
      "type": "function",
      "signature": "0x8da5cb5b"
    },
    {
      "constant": true,
      "inputs": [],
      "name": "isOwner",
      "outputs": [
        {
          "name": "",
          "type": "bool"
        }
      ],
      "payable": false,
      "stateMutability": "view",
      "type": "function",
      "signature": "0x8f32d59b"
    },
    {
      "constant": true,
      "inputs": [],
      "name": "SELFDESTRUCT_DELAY",
      "outputs": [
        {
          "name": "",
          "type": "uint256"
        }
      ],
      "payable": false,
      "stateMutability": "view",
      "type": "function",
      "signature": "0xa461fc82"
    },
    {
      "constant": true,
      "inputs": [],
      "name": "selfDestructInitiated",
      "outputs": [
        {
          "name": "",
          "type": "bool"
        }
      ],
      "payable": false,
      "stateMutability": "view",
      "type": "function",
      "signature": "0xb8225dec"
    },
    {
      "constant": true,
      "inputs": [],
      "name": "selfDestructBeneficiary",
      "outputs": [
        {
          "name": "",
          "type": "address"
        }
      ],
      "payable": false,
      "stateMutability": "view",
      "type": "function",
      "signature": "0xc58aaae6"
    },
    {
      "constant": false,
      "inputs": [
        {
          "name": "newOwner",
          "type": "address"
        }
      ],
      "name": "transferOwnership",
      "outputs": [],
      "payable": false,
      "stateMutability": "nonpayable",
      "type": "function",
      "signature": "0xf2fde38b"
    },
    {
      "inputs": [
        {
          "name": "_selfDestructBeneficiary",
          "type": "address"
        }
      ],
      "payable": false,
      "stateMutability": "nonpayable",
      "type": "constructor",
      "signature": "constructor"
    },
    {
      "anonymous": false,
      "inputs": [],
      "name": "SelfDestructTerminated",
      "type": "event",
      "signature": "0x6adcc7125002935e0aa31697538ebbd65cfddf20431eb6ecdcfc3e238bfd082c"
    },
    {
      "anonymous": false,
      "inputs": [
        {
          "indexed": false,
          "name": "beneficiary",
          "type": "address"
        }
      ],
      "name": "SelfDestructed",
      "type": "event",
      "signature": "0x8a09e1677ced846cb537dc2b172043bd05a1a81ad7e0033a7ef8ba762df990b7"
    },
    {
      "anonymous": false,
      "inputs": [
        {
          "indexed": false,
          "name": "selfDestructDelay",
          "type": "uint256"
        }
      ],
      "name": "SelfDestructInitiated",
      "type": "event",
      "signature": "0xcbd94ca75b8dc45c9d80c77e851670e78843c0d75180cb81db3e2158228fa9a6"
    },
    {
      "anonymous": false,
      "inputs": [
        {
          "indexed": false,
          "name": "newBeneficiary",
          "type": "address"
        }
      ],
      "name": "SelfDestructBeneficiaryUpdated",
      "type": "event",
      "signature": "0xd5da63a0b864b315bc04128dedbc93888c8529ee6cf47ce664dc204339228c53"
    },
    {
      "anonymous": false,
      "inputs": [
        {
          "indexed": true,
          "name": "previousOwner",
          "type": "address"
        },
        {
          "indexed": true,
          "name": "newOwner",
          "type": "address"
        }
      ],
      "name": "OwnershipTransferred",
      "type": "event",
      "signature": "0x8be0079c531659141344cd1fd0a4f28419497f9722a3daafe3b4186f6b6457e0"
    },
    {
      "constant": false,
      "inputs": [
        {
          "name": "_beneficiary",
          "type": "address"
        }
      ],
      "name": "setSelfDestructBeneficiary",
      "outputs": [],
      "payable": false,
      "stateMutability": "nonpayable",
      "type": "function",
      "signature": "0x20714f88"
    },
    {
      "constant": false,
      "inputs": [],
      "name": "initiateSelfDestruct",
      "outputs": [],
      "payable": false,
      "stateMutability": "nonpayable",
      "type": "function",
      "signature": "0xbd32aa44"
    },
    {
      "constant": false,
      "inputs": [],
      "name": "terminateSelfDestruct",
      "outputs": [],
      "payable": false,
      "stateMutability": "nonpayable",
      "type": "function",
      "signature": "0x3278c960"
    },
    {
      "constant": false,
      "inputs": [],
      "name": "selfDestruct",
      "outputs": [],
      "payable": false,
      "stateMutability": "nonpayable",
      "type": "function",
      "signature": "0x9cb8a26a"
    }
  ],
  "bytecode": "0x608060405234801561001057600080fd5b50604051602080610d158339810180604052602081101561003057600080fd5b8101908080519060200190929190505050336000806101000a81548173ffffffffffffffffffffffffffffffffffffffff021916908373ffffffffffffffffffffffffffffffffffffffff1602179055506000809054906101000a900473ffffffffffffffffffffffffffffffffffffffff1673ffffffffffffffffffffffffffffffffffffffff16600073ffffffffffffffffffffffffffffffffffffffff167f8be0079c531659141344cd1fd0a4f28419497f9722a3daafe3b4186f6b6457e060405160405180910390a3600073ffffffffffffffffffffffffffffffffffffffff168173ffffffffffffffffffffffffffffffffffffffff16141515156101c8576040517f08c379a00000000000000000000000000000000000000000000000000000000081526004018080602001828103825260358152602001807f5f73656c66446573747275637442656e6566696369617279206d757374206e6f81526020017f7420626520746865207a65726f2061646472657373000000000000000000000081525060400191505060405180910390fd5b80600260016101000a81548173ffffffffffffffffffffffffffffffffffffffff021916908373ffffffffffffffffffffffffffffffffffffffff1602179055507fd5da63a0b864b315bc04128dedbc93888c8529ee6cf47ce664dc204339228c53600260019054906101000a900473ffffffffffffffffffffffffffffffffffffffff16604051808273ffffffffffffffffffffffffffffffffffffffff1673ffffffffffffffffffffffffffffffffffffffff16815260200191505060405180910390a150610a778061029e6000396000f3fe6080604052600436106100ba576000357c0100000000000000000000000000000000000000000000000000000000900463ffffffff16806317c70de4146100bf57806320714f88146100ea5780633278c9601461013b578063715018a6146101525780638da5cb5b146101695780638f32d59b146101c05780639cb8a26a146101ef578063a461fc8214610206578063b8225dec14610231578063bd32aa4414610260578063c58aaae614610277578063f2fde38b146102ce575b600080fd5b3480156100cb57600080fd5b506100d461031f565b6040518082815260200191505060405180910390f35b3480156100f657600080fd5b506101396004803603602081101561010d57600080fd5b81019080803573ffffffffffffffffffffffffffffffffffffffff169060200190929190505050610325565b005b34801561014757600080fd5b506101506104aa565b005b34801561015e57600080fd5b5061016761050e565b005b34801561017557600080fd5b5061017e6105e0565b604051808273ffffffffffffffffffffffffffffffffffffffff1673ffffffffffffffffffffffffffffffffffffffff16815260200191505060405180910390f35b3480156101cc57600080fd5b506101d5610609565b604051808215151515815260200191505060405180910390f35b3480156101fb57600080fd5b50610204610660565b005b34801561021257600080fd5b5061021b610881565b6040518082815260200191505060405180910390f35b34801561023d57600080fd5b50610246610888565b604051808215151515815260200191505060405180910390f35b34801561026c57600080fd5b5061027561089b565b005b34801561028357600080fd5b5061028c61090c565b604051808273ffffffffffffffffffffffffffffffffffffffff1673ffffffffffffffffffffffffffffffffffffffff16815260200191505060405180910390f35b3480156102da57600080fd5b5061031d600480360360208110156102f157600080fd5b81019080803573ffffffffffffffffffffffffffffffffffffffff169060200190929190505050610932565b005b60015481565b61032d610609565b151561033857600080fd5b600073ffffffffffffffffffffffffffffffffffffffff168173ffffffffffffffffffffffffffffffffffffffff1614151515610403576040517f08c379a00000000000000000000000000000000000000000000000000000000081526004018080602001828103825260288152602001807f42656e6566696369617279206d757374206e6f7420626520746865207a65726f81526020017f206164647265737300000000000000000000000000000000000000000000000081525060400191505060405180910390fd5b80600260016101000a81548173ffffffffffffffffffffffffffffffffffffffff021916908373ffffffffffffffffffffffffffffffffffffffff1602179055507fd5da63a0b864b315bc04128dedbc93888c8529ee6cf47ce664dc204339228c5381604051808273ffffffffffffffffffffffffffffffffffffffff1673ffffffffffffffffffffffffffffffffffffffff16815260200191505060405180910390a150565b6104b2610609565b15156104bd57600080fd5b60006001819055506000600260006101000a81548160ff0219169083151502179055507f6adcc7125002935e0aa31697538ebbd65cfddf20431eb6ecdcfc3e238bfd082c60405160405180910390a1565b610516610609565b151561052157600080fd5b600073ffffffffffffffffffffffffffffffffffffffff166000809054906101000a900473ffffffffffffffffffffffffffffffffffffffff1673ffffffffffffffffffffffffffffffffffffffff167f8be0079c531659141344cd1fd0a4f28419497f9722a3daafe3b4186f6b6457e060405160405180910390a360008060006101000a81548173ffffffffffffffffffffffffffffffffffffffff021916908373ffffffffffffffffffffffffffffffffffffffff160217905550565b60008060009054906101000a900473ffffffffffffffffffffffffffffffffffffffff16905090565b60008060009054906101000a900473ffffffffffffffffffffffffffffffffffffffff1673ffffffffffffffffffffffffffffffffffffffff163373ffffffffffffffffffffffffffffffffffffffff1614905090565b610668610609565b151561067357600080fd5b600260009054906101000a900460ff16151561071d576040517f08c379a00000000000000000000000000000000000000000000000000000000081526004018080602001828103825260288152602001807f53656c6620646573747275637420686173206e6f7420796574206265656e206981526020017f6e6974696174656400000000000000000000000000000000000000000000000081525060400191505060405180910390fd5b426224ea00600154011015156107c1576040517f08c379a00000000000000000000000000000000000000000000000000000000081526004018080602001828103825260278152602001807f53656c662064657374727563742064656c617920686173206e6f74207965742081526020017f656c61707365640000000000000000000000000000000000000000000000000081525060400191505060405180910390fd5b7f8a09e1677ced846cb537dc2b172043bd05a1a81ad7e0033a7ef8ba762df990b7600260019054906101000a900473ffffffffffffffffffffffffffffffffffffffff16604051808273ffffffffffffffffffffffffffffffffffffffff1673ffffffffffffffffffffffffffffffffffffffff16815260200191505060405180910390a1600260019054906101000a900473ffffffffffffffffffffffffffffffffffffffff1673ffffffffffffffffffffffffffffffffffffffff16ff5b6224ea0081565b600260009054906101000a900460ff1681565b6108a3610609565b15156108ae57600080fd5b426001819055506001600260006101000a81548160ff0219169083151502179055507fcbd94ca75b8dc45c9d80c77e851670e78843c0d75180cb81db3e2158228fa9a66224ea006040518082815260200191505060405180910390a1565b600260019054906101000a900473ffffffffffffffffffffffffffffffffffffffff1681565b61093a610609565b151561094557600080fd5b61094e81610951565b50565b600073ffffffffffffffffffffffffffffffffffffffff168173ffffffffffffffffffffffffffffffffffffffff161415151561098d57600080fd5b8073ffffffffffffffffffffffffffffffffffffffff166000809054906101000a900473ffffffffffffffffffffffffffffffffffffffff1673ffffffffffffffffffffffffffffffffffffffff167f8be0079c531659141344cd1fd0a4f28419497f9722a3daafe3b4186f6b6457e060405160405180910390a3806000806101000a81548173ffffffffffffffffffffffffffffffffffffffff021916908373ffffffffffffffffffffffffffffffffffffffff1602179055505056fea165627a7a72305820ca20730124bb067b407faeef8383d1f6255b4539ac982e85d4f4c9d062fecd3b0029",
  "source": "pragma solidity ^0.5.0;\n\nimport \"openzeppelin-solidity/contracts/ownership/Ownable.sol\";\n\n//import \"./Ownable.sol\";\n\n/**\n * @title A contract that can be destroyed by its owner after a delay elapses.\n * This contract allows an inheriting contract to be destroyed after\n * its owner indicates an intention and then waits for a period\n * without changing their mind. All ether contained in the contract\n * is forwarded to a nominated beneficiary upon destruction.\n */\ncontract Mortal is Ownable {\n    \n    uint public initiationTime;\n    bool public selfDestructInitiated;\n    address payable public selfDestructBeneficiary;\n    uint public constant SELFDESTRUCT_DELAY = 4 weeks;\n\n    /**\n     * @dev Constructor\n     * @param _selfDestructBeneficiary The account which will recieve any funds in this contract when killed.\n     */\n    constructor(address payable _selfDestructBeneficiary)\n        public\n    {\n        require(_selfDestructBeneficiary != address(0), \"_selfDestructBeneficiary must not be the zero address\");\n        selfDestructBeneficiary = _selfDestructBeneficiary;\n        emit SelfDestructBeneficiaryUpdated(selfDestructBeneficiary);\n    }\n\n    /**\n     * @notice Set the beneficiary address of this contract.\n     * @dev Only the contract owner may call this. The provided beneficiary must be non-null.\n     * @param _beneficiary The address to pay any eth contained in this contract to upon self-destruction.\n     */\n    function setSelfDestructBeneficiary(address payable _beneficiary)\n        external\n        onlyOwner\n    {\n        require(_beneficiary != address(0), \"Beneficiary must not be the zero address\");\n        selfDestructBeneficiary = _beneficiary;\n        emit SelfDestructBeneficiaryUpdated(_beneficiary);\n    }\n\n    /**\n     * @notice Begin the self-destruction counter of this contract.\n     * Once the delay has elapsed, the contract may be self-destructed.\n     * @dev Only the contract owner may call this.\n     */\n    function initiateSelfDestruct()\n        external\n        onlyOwner\n    {\n        initiationTime = now;\n        selfDestructInitiated = true;\n        emit SelfDestructInitiated(SELFDESTRUCT_DELAY);\n    }\n\n    /**\n     * @notice Terminate and reset the self-destruction timer.\n     * @dev Only the contract owner may call this.\n     */\n    function terminateSelfDestruct()\n        external\n        onlyOwner\n    {\n        initiationTime = 0;\n        selfDestructInitiated = false;\n        emit SelfDestructTerminated();\n    }\n\n    /**\n     * @notice If the self-destruction delay has elapsed, destroy this contract and\n     * remit any ether it owns to the beneficiary address.\n     * @dev Only the contract owner may call this.\n     */\n    function selfDestruct()\n        external\n        onlyOwner\n    {\n        require(selfDestructInitiated, \"Self destruct has not yet been initiated\");\n        require(initiationTime + SELFDESTRUCT_DELAY < now, \"Self destruct delay has not yet elapsed\");\n        emit SelfDestructed(selfDestructBeneficiary);\n        selfdestruct(selfDestructBeneficiary);\n    }\n\n    //-----------------------------------------------------------------\n    // Events\n    //-----------------------------------------------------------------\n    \n    event SelfDestructTerminated();\n    event SelfDestructed(address beneficiary);\n    event SelfDestructInitiated(uint selfDestructDelay);\n    event SelfDestructBeneficiaryUpdated(address newBeneficiary);\n}\n",
  "sourcePath": "/Users/clintonennis/Playground/final-project-hav-noms/contracts/Mortal.sol",
  "compiler": {
    "name": "solc",
    "version": "0.5.0+commit.1d4f565a.Emscripten.clang"
  },
  "schemaVersion": "3.0.1",
  "updatedAt": "2019-01-26T06:15:05.212Z",
  "devdoc": {
    "methods": {
      "constructor": {
        "details": "Constructor",
        "params": {
          "_selfDestructBeneficiary": "The account which will recieve any funds in this contract when killed."
        }
      },
      "initiateSelfDestruct()": {
        "details": "Only the contract owner may call this."
      },
      "isOwner()": {
        "return": "true if `msg.sender` is the owner of the contract."
      },
      "owner()": {
        "return": "the address of the owner."
      },
      "renounceOwnership()": {
        "details": "Allows the current owner to relinquish control of the contract."
      },
      "selfDestruct()": {
        "details": "Only the contract owner may call this."
      },
      "setSelfDestructBeneficiary(address)": {
        "details": "Only the contract owner may call this. The provided beneficiary must be non-null.",
        "params": {
          "_beneficiary": "The address to pay any eth contained in this contract to upon self-destruction."
        }
      },
      "terminateSelfDestruct()": {
        "details": "Only the contract owner may call this."
      },
      "transferOwnership(address)": {
        "details": "Allows the current owner to transfer control of the contract to a newOwner.",
        "params": {
          "newOwner": "The address to transfer ownership to."
        }
      }
    },
    "title": "A contract that can be destroyed by its owner after a delay elapses. This contract allows an inheriting contract to be destroyed after its owner indicates an intention and then waits for a period without changing their mind. All ether contained in the contract is forwarded to a nominated beneficiary upon destruction."
  },
  "userdoc": {
    "methods": {
      "initiateSelfDestruct()": {
        "notice": "Begin the self-destruction counter of this contract. Once the delay has elapsed, the contract may be self-destructed."
      },
      "renounceOwnership()": {
        "notice": "Renouncing to ownership will leave the contract without an owner. It will not be possible to call the functions with the `onlyOwner` modifier anymore."
      },
      "selfDestruct()": {
        "notice": "If the self-destruction delay has elapsed, destroy this contract and remit any ether it owns to the beneficiary address."
      },
      "setSelfDestructBeneficiary(address)": {
        "notice": "Set the beneficiary address of this contract."
      },
      "terminateSelfDestruct()": {
        "notice": "Terminate and reset the self-destruction timer."
      }
    }
  }
}