{
  "contractName": "Proxy",
  "abi": [
    {
      "constant": false,
      "inputs": [],
      "name": "renounceOwnership",
      "outputs": [],
      "payable": false,
      "stateMutability": "nonpayable",
      "type": "function",
      "signature": "0x715018a6"
    },
    {
      "constant": true,
      "inputs": [],
      "name": "owner",
      "outputs": [
        {
          "name": "",
          "type": "address"
        }
      ],
      "payable": false,
      "stateMutability": "view",
      "type": "function",
      "signature": "0x8da5cb5b"
    },
    {
      "constant": true,
      "inputs": [],
      "name": "isOwner",
      "outputs": [
        {
          "name": "",
          "type": "bool"
        }
      ],
      "payable": false,
      "stateMutability": "view",
      "type": "function",
      "signature": "0x8f32d59b"
    },
    {
      "constant": true,
      "inputs": [],
      "name": "target",
      "outputs": [
        {
          "name": "",
          "type": "address"
        }
      ],
      "payable": false,
      "stateMutability": "view",
      "type": "function",
      "signature": "0xd4b83992"
    },
    {
      "constant": false,
      "inputs": [
        {
          "name": "newOwner",
          "type": "address"
        }
      ],
      "name": "transferOwnership",
      "outputs": [],
      "payable": false,
      "stateMutability": "nonpayable",
      "type": "function",
      "signature": "0xf2fde38b"
    },
    {
      "inputs": [],
      "payable": false,
      "stateMutability": "nonpayable",
      "type": "constructor",
      "signature": "constructor"
    },
    {
      "payable": true,
      "stateMutability": "payable",
      "type": "fallback"
    },
    {
      "anonymous": false,
      "inputs": [
        {
          "indexed": false,
          "name": "newTarget",
          "type": "address"
        }
      ],
      "name": "TargetUpdated",
      "type": "event",
      "signature": "0x814250a3b8c79fcbe2ead2c131c952a278491c8f4322a79fe84b5040a810373e"
    },
    {
      "anonymous": false,
      "inputs": [
        {
          "indexed": true,
          "name": "previousOwner",
          "type": "address"
        },
        {
          "indexed": true,
          "name": "newOwner",
          "type": "address"
        }
      ],
      "name": "OwnershipTransferred",
      "type": "event",
      "signature": "0x8be0079c531659141344cd1fd0a4f28419497f9722a3daafe3b4186f6b6457e0"
    },
    {
      "constant": false,
      "inputs": [
        {
          "name": "_target",
          "type": "address"
        }
      ],
      "name": "setTarget",
      "outputs": [],
      "payable": false,
      "stateMutability": "nonpayable",
      "type": "function",
      "signature": "0x776d1a01"
    },
    {
      "constant": false,
      "inputs": [
        {
          "name": "callData",
          "type": "bytes"
        },
        {
          "name": "numTopics",
          "type": "uint256"
        },
        {
          "name": "topic1",
          "type": "bytes32"
        },
        {
          "name": "topic2",
          "type": "bytes32"
        },
        {
          "name": "topic3",
          "type": "bytes32"
        },
        {
          "name": "topic4",
          "type": "bytes32"
        }
      ],
      "name": "_emit",
      "outputs": [],
      "payable": false,
      "stateMutability": "nonpayable",
      "type": "function",
      "signature": "0x907dff97"
    }
  ],
  "bytecode": "0x608060405234801561001057600080fd5b50336000806101000a81548173ffffffffffffffffffffffffffffffffffffffff021916908373ffffffffffffffffffffffffffffffffffffffff1602179055506000809054906101000a900473ffffffffffffffffffffffffffffffffffffffff1673ffffffffffffffffffffffffffffffffffffffff16600073ffffffffffffffffffffffffffffffffffffffff167f8be0079c531659141344cd1fd0a4f28419497f9722a3daafe3b4186f6b6457e060405160405180910390a36108d1806100dc6000396000f3fe608060405260043610610083576000357c0100000000000000000000000000000000000000000000000000000000900463ffffffff168063715018a61461017f578063776d1a01146101965780638da5cb5b146101e75780638f32d59b1461023e578063907dff971461026d578063d4b8399214610325578063f2fde38b1461037c575b600160009054906101000a900473ffffffffffffffffffffffffffffffffffffffff1673ffffffffffffffffffffffffffffffffffffffff1663bc67f832336040518263ffffffff167c0100000000000000000000000000000000000000000000000000000000028152600401808273ffffffffffffffffffffffffffffffffffffffff1673ffffffffffffffffffffffffffffffffffffffff168152602001915050600060405180830381600087803b15801561014057600080fd5b505af1158015610154573d6000803e3d6000fd5b5050505060405136600082376000803683346001545af13d6000833e80151561017b573d82fd5b3d82f35b34801561018b57600080fd5b506101946103cd565b005b3480156101a257600080fd5b506101e5600480360360208110156101b957600080fd5b81019080803573ffffffffffffffffffffffffffffffffffffffff16906020019092919050505061049f565b005b3480156101f357600080fd5b506101fc610559565b604051808273ffffffffffffffffffffffffffffffffffffffff1673ffffffffffffffffffffffffffffffffffffffff16815260200191505060405180910390f35b34801561024a57600080fd5b50610253610582565b604051808215151515815260200191505060405180910390f35b34801561027957600080fd5b50610323600480360360c081101561029057600080fd5b81019080803590602001906401000000008111156102ad57600080fd5b8201836020820111156102bf57600080fd5b803590602001918460018302840111640100000000831117156102e157600080fd5b909192939192939080359060200190929190803590602001909291908035906020019092919080359060200190929190803590602001909291905050506105d9565b005b34801561033157600080fd5b5061033a610766565b604051808273ffffffffffffffffffffffffffffffffffffffff1673ffffffffffffffffffffffffffffffffffffffff16815260200191505060405180910390f35b34801561038857600080fd5b506103cb6004803603602081101561039f57600080fd5b81019080803573ffffffffffffffffffffffffffffffffffffffff16906020019092919050505061078c565b005b6103d5610582565b15156103e057600080fd5b600073ffffffffffffffffffffffffffffffffffffffff166000809054906101000a900473ffffffffffffffffffffffffffffffffffffffff1673ffffffffffffffffffffffffffffffffffffffff167f8be0079c531659141344cd1fd0a4f28419497f9722a3daafe3b4186f6b6457e060405160405180910390a360008060006101000a81548173ffffffffffffffffffffffffffffffffffffffff021916908373ffffffffffffffffffffffffffffffffffffffff160217905550565b6104a7610582565b15156104b257600080fd5b80600160006101000a81548173ffffffffffffffffffffffffffffffffffffffff021916908373ffffffffffffffffffffffffffffffffffffffff1602179055507f814250a3b8c79fcbe2ead2c131c952a278491c8f4322a79fe84b5040a810373e81604051808273ffffffffffffffffffffffffffffffffffffffff1673ffffffffffffffffffffffffffffffffffffffff16815260200191505060405180910390a150565b60008060009054906101000a900473ffffffffffffffffffffffffffffffffffffffff16905090565b60008060009054906101000a900473ffffffffffffffffffffffffffffffffffffffff1673ffffffffffffffffffffffffffffffffffffffff163373ffffffffffffffffffffffffffffffffffffffff1614905090565b600160009054906101000a900473ffffffffffffffffffffffffffffffffffffffff1673ffffffffffffffffffffffffffffffffffffffff163373ffffffffffffffffffffffffffffffffffffffff1614151561069e576040517f08c379a00000000000000000000000000000000000000000000000000000000081526004018080602001828103825260148152602001807f4d7573742062652070726f78792074617267657400000000000000000000000081525060200191505060405180910390fd5b6000878790509050606088888080601f016020809104026020016040519081016040528093929190818152602001838380828437600081840152601f19601f820116905080830192505050505050509050866000811461071d576001811461072857600281146107345760038114610741576004811461074f5761075a565b8260208301a061075a565b868360208401a161075a565b85878460208501a261075a565b8486888560208601a361075a565b838587898660208701a45b50505050505050505050565b600160009054906101000a900473ffffffffffffffffffffffffffffffffffffffff1681565b610794610582565b151561079f57600080fd5b6107a8816107ab565b50565b600073ffffffffffffffffffffffffffffffffffffffff168173ffffffffffffffffffffffffffffffffffffffff16141515156107e757600080fd5b8073ffffffffffffffffffffffffffffffffffffffff166000809054906101000a900473ffffffffffffffffffffffffffffffffffffffff1673ffffffffffffffffffffffffffffffffffffffff167f8be0079c531659141344cd1fd0a4f28419497f9722a3daafe3b4186f6b6457e060405160405180910390a3806000806101000a81548173ffffffffffffffffffffffffffffffffffffffff021916908373ffffffffffffffffffffffffffffffffffffffff1602179055505056fea165627a7a723058207225b43678685b326e6d2a9239274e253396f32bb2698b3ccc6fa5ba03ecc2b20029",
  "source": "pragma solidity ^0.5.0;\n\nimport \"openzeppelin-solidity/contracts/ownership/Ownable.sol\";\nimport \"./Proxyable.sol\";\n\n/**\n * @title Proxy contract for upgradable contracts\n * @notice \n *\n * A proxy contract that, if it does not recognise the function\n * being called on it, passes all value and call data to an\n * underlying target contract.\n *\n * Usein CALL rather than DELEGATECALL puts the context into the target \n * contract allowing it to store its data how it wants rather than in the proxy\n *\n * Therefore, any contract the proxy wraps must\n * implement the Proxyable interface, in order that it can pass msg.sender\n * into the underlying contract as the state parameter, messageSender.\n *\n * This proxy is meant to be generic and have zero knowledge of its \n * underlying target contract ABI and the data it stores. \n *\n * Select events from the target contracts are emited from this proxy\n * to allow DApp compatability with events being emited from this publicy \n * accessible address.\n */\ncontract Proxy is Ownable {\n\n    Proxyable public target;\n\n    /**\n     * @dev Constructor\n     */\n    constructor()\n        Ownable()\n        public\n    {}\n\n    /**\n     * @dev Set the target contract address\n     * @param _target The target contract address that sits behind this proxy\n     */\n    function setTarget(Proxyable _target)\n        external\n        onlyOwner\n    {\n        target = _target;\n        emit TargetUpdated(_target);\n    }\n\n    /**\n    * @dev Only the proxyable target contract may call this function to emit an event\n    * @param callData the function hash and the arguments \n    * @param numTopics the number of topics to log\n    */\n    function _emit(bytes calldata callData, uint numTopics, bytes32 topic1, bytes32 topic2, bytes32 topic3, bytes32 topic4)\n        external\n        onlyTarget\n    {\n        uint size = callData.length;\n        bytes memory _callData = callData;\n\n        assembly {\n            /* The first 32 bytes of callData contain its length (as specified by the abi). \n             * Length is assumed to be a uint256 and therefore maximum of 32 bytes\n             * in length. It is also leftpadded to be a multiple of 32 bytes.\n             * This means moving call_data across 32 bytes guarantees we correctly access\n             * the data itself. */\n            switch numTopics\n            case 0 {\n                log0(add(_callData, 32), size)\n            } \n            case 1 {\n                log1(add(_callData, 32), size, topic1)\n            }\n            case 2 {\n                log2(add(_callData, 32), size, topic1, topic2)\n            }\n            case 3 {\n                log3(add(_callData, 32), size, topic1, topic2, topic3)\n            }\n            case 4 {\n                log4(add(_callData, 32), size, topic1, topic2, topic3, topic4)\n            }\n        }\n    }\n\n    /**\n    * @dev Fallback function using assembly to forward the call and call data to the \n    * proxyable target contract \n    */\n    function()\n        external\n        payable\n    {\n        // Must send the messageSender explicitly since we are using CALL rather than DELEGATECALL.\n        target.setMessageSender(msg.sender);\n\n        // Forward all call data to the target\n        // solhint-disable-next-line no-inline-assembly\n        assembly {\n            let free_ptr := mload(0x40)\n            calldatacopy(free_ptr, 0, calldatasize)\n\n            /* We must explicitly forward ether to the underlying contract as well. */\n            let result := call(gas, sload(target_slot), callvalue, free_ptr, calldatasize, 0, 0)\n            returndatacopy(free_ptr, 0, returndatasize)\n\n            if iszero(result) { revert(free_ptr, returndatasize) }\n            return(free_ptr, returndatasize)\n        }\n    }\n\n    //-----------------------------------------------------------------\n    // Modifiers\n    //-----------------------------------------------------------------\n\n    /**\n    * @notice Only the proxyable target contract may call this function\n    */\n    modifier onlyTarget {\n        require(Proxyable(msg.sender) == target, \"Must be proxy target\");\n        _;\n    }\n\n    //-----------------------------------------------------------------\n    // Events\n    //-----------------------------------------------------------------\n\n    event TargetUpdated(Proxyable newTarget);\n}\n",
  "sourcePath": "/Users/clintonennis/Playground/final-project-hav-noms/contracts/Proxy.sol",
  "compiler": {
    "name": "solc",
    "version": "0.5.0+commit.1d4f565a.Emscripten.clang"
  },
  "schemaVersion": "3.0.1",
  "updatedAt": "2019-01-26T06:15:05.206Z",
  "devdoc": {
    "methods": {
      "_emit(bytes,uint256,bytes32,bytes32,bytes32,bytes32)": {
        "details": "Only the proxyable target contract may call this function to emit an event",
        "params": {
          "callData": "the function hash and the arguments ",
          "numTopics": "the number of topics to log"
        }
      },
      "constructor": {
        "details": "Constructor"
      },
      "isOwner()": {
        "return": "true if `msg.sender` is the owner of the contract."
      },
      "owner()": {
        "return": "the address of the owner."
      },
      "renounceOwnership()": {
        "details": "Allows the current owner to relinquish control of the contract."
      },
      "setTarget(address)": {
        "details": "Set the target contract address",
        "params": {
          "_target": "The target contract address that sits behind this proxy"
        }
      },
      "transferOwnership(address)": {
        "details": "Allows the current owner to transfer control of the contract to a newOwner.",
        "params": {
          "newOwner": "The address to transfer ownership to."
        }
      }
    },
    "title": "Proxy contract for upgradable contracts"
  },
  "userdoc": {
    "methods": {
      "renounceOwnership()": {
        "notice": "Renouncing to ownership will leave the contract without an owner. It will not be possible to call the functions with the `onlyOwner` modifier anymore."
      }
    },
    "notice": " * A proxy contract that, if it does not recognise the function being called on it, passes all value and call data to an underlying target contract. * Usein CALL rather than DELEGATECALL puts the context into the target  contract allowing it to store its data how it wants rather than in the proxy * Therefore, any contract the proxy wraps must implement the Proxyable interface, in order that it can pass msg.sender into the underlying contract as the state parameter, messageSender. * This proxy is meant to be generic and have zero knowledge of its  underlying target contract ABI and the data it stores.  * Select events from the target contracts are emited from this proxy to allow DApp compatability with events being emited from this publicy  accessible address."
  }
}