{
  "contractName": "PublicSafeDecimalMath",
  "abi": [
    {
      "constant": true,
      "inputs": [],
      "name": "unit",
      "outputs": [
        {
          "name": "",
          "type": "uint256"
        }
      ],
      "payable": false,
      "stateMutability": "pure",
      "type": "function",
      "signature": "0x907af6c0"
    },
    {
      "constant": true,
      "inputs": [],
      "name": "preciseUnit",
      "outputs": [
        {
          "name": "",
          "type": "uint256"
        }
      ],
      "payable": false,
      "stateMutability": "pure",
      "type": "function",
      "signature": "0xd5e5e6e6"
    },
    {
      "constant": true,
      "inputs": [
        {
          "name": "x",
          "type": "uint256"
        },
        {
          "name": "y",
          "type": "uint256"
        }
      ],
      "name": "multiplyDecimal",
      "outputs": [
        {
          "name": "",
          "type": "uint256"
        }
      ],
      "payable": false,
      "stateMutability": "pure",
      "type": "function",
      "signature": "0xe4187d02"
    },
    {
      "constant": true,
      "inputs": [
        {
          "name": "x",
          "type": "uint256"
        },
        {
          "name": "y",
          "type": "uint256"
        }
      ],
      "name": "multiplyDecimalRound",
      "outputs": [
        {
          "name": "",
          "type": "uint256"
        }
      ],
      "payable": false,
      "stateMutability": "pure",
      "type": "function",
      "signature": "0x33882479"
    },
    {
      "constant": true,
      "inputs": [
        {
          "name": "x",
          "type": "uint256"
        },
        {
          "name": "y",
          "type": "uint256"
        }
      ],
      "name": "multiplyDecimalRoundPrecise",
      "outputs": [
        {
          "name": "",
          "type": "uint256"
        }
      ],
      "payable": false,
      "stateMutability": "pure",
      "type": "function",
      "signature": "0x1c933e2f"
    },
    {
      "constant": true,
      "inputs": [
        {
          "name": "x",
          "type": "uint256"
        },
        {
          "name": "y",
          "type": "uint256"
        }
      ],
      "name": "divideDecimal",
      "outputs": [
        {
          "name": "",
          "type": "uint256"
        }
      ],
      "payable": false,
      "stateMutability": "pure",
      "type": "function",
      "signature": "0xd1abdab8"
    },
    {
      "constant": true,
      "inputs": [
        {
          "name": "x",
          "type": "uint256"
        },
        {
          "name": "y",
          "type": "uint256"
        }
      ],
      "name": "divideDecimalRound",
      "outputs": [
        {
          "name": "",
          "type": "uint256"
        }
      ],
      "payable": false,
      "stateMutability": "pure",
      "type": "function",
      "signature": "0x0fa53db8"
    },
    {
      "constant": true,
      "inputs": [
        {
          "name": "x",
          "type": "uint256"
        },
        {
          "name": "y",
          "type": "uint256"
        }
      ],
      "name": "divideDecimalRoundPrecise",
      "outputs": [
        {
          "name": "",
          "type": "uint256"
        }
      ],
      "payable": false,
      "stateMutability": "pure",
      "type": "function",
      "signature": "0xf63a5d22"
    },
    {
      "constant": true,
      "inputs": [
        {
          "name": "i",
          "type": "uint256"
        }
      ],
      "name": "decimalToPreciseDecimal",
      "outputs": [
        {
          "name": "",
          "type": "uint256"
        }
      ],
      "payable": false,
      "stateMutability": "pure",
      "type": "function",
      "signature": "0xbd79a42a"
    },
    {
      "constant": true,
      "inputs": [
        {
          "name": "i",
          "type": "uint256"
        }
      ],
      "name": "preciseDecimalToDecimal",
      "outputs": [
        {
          "name": "",
          "type": "uint256"
        }
      ],
      "payable": false,
      "stateMutability": "pure",
      "type": "function",
      "signature": "0x53cb26c6"
    }
  ],
  "bytecode": "0x608060405234801561001057600080fd5b50610875806100206000396000f3fe6080604052600436106100a4576000357c0100000000000000000000000000000000000000000000000000000000900463ffffffff1680630fa53db8146100a95780631c933e2f14610102578063338824791461015b57806353cb26c6146101b4578063907af6c014610203578063bd79a42a1461022e578063d1abdab81461027d578063d5e5e6e6146102d6578063e4187d0214610301578063f63a5d221461035a575b600080fd5b3480156100b557600080fd5b506100ec600480360360408110156100cc57600080fd5b8101908080359060200190929190803590602001909291905050506103b3565b6040518082815260200191505060405180910390f35b34801561010e57600080fd5b506101456004803603604081101561012557600080fd5b8101908080359060200190929190803590602001909291905050506103d0565b6040518082815260200191505060405180910390f35b34801561016757600080fd5b5061019e6004803603604081101561017e57600080fd5b8101908080359060200190929190803590602001909291905050506103ed565b6040518082815260200191505060405180910390f35b3480156101c057600080fd5b506101ed600480360360208110156101d757600080fd5b810190808035906020019092919050505061040a565b6040518082815260200191505060405180910390f35b34801561020f57600080fd5b5061021861041c565b6040518082815260200191505060405180910390f35b34801561023a57600080fd5b506102676004803603602081101561025157600080fd5b81019080803590602001909291905050506104be565b6040518082815260200191505060405180910390f35b34801561028957600080fd5b506102c0600480360360408110156102a057600080fd5b8101908080359060200190929190803590602001909291905050506104d0565b6040518082815260200191505060405180910390f35b3480156102e257600080fd5b506102eb6104ed565b6040518082815260200191505060405180910390f35b34801561030d57600080fd5b506103446004803603604081101561032457600080fd5b81019080803590602001909291908035906020019092919050505061058f565b6040518082815260200191505060405180910390f35b34801561036657600080fd5b5061039d6004803603604081101561037d57600080fd5b8101908080359060200190929190803590602001909291905050506105ac565b6040518082815260200191505060405180910390f35b60006103c882846105c990919063ffffffff16565b905092915050565b60006103e582846105e590919063ffffffff16565b905092915050565b6000610402828461060190919063ffffffff16565b905092915050565b60006104158261061d565b9050919050565b600073__SafeDecimalMath_______________________63907af6c06040518163ffffffff167c010000000000000000000000000000000000000000000000000000000002815260040160206040518083038186803b15801561047e57600080fd5b505af4158015610492573d6000803e3d6000fd5b505050506040513d60208110156104a857600080fd5b8101908080519060200190929190505050905090565b60006104c982610676565b9050919050565b60006104e5828461069c90919063ffffffff16565b905092915050565b600073__SafeDecimalMath_______________________63d5e5e6e66040518163ffffffff167c010000000000000000000000000000000000000000000000000000000002815260040160206040518083038186803b15801561054f57600080fd5b505af4158015610563573d6000803e3d6000fd5b505050506040513d602081101561057957600080fd5b8101908080519060200190929190505050905090565b60006105a482846106d290919063ffffffff16565b905092915050565b60006105c1828461070190919063ffffffff16565b905092915050565b60006105dd8383601260ff16600a0a61071d565b905092915050565b60006105f98383601b60ff16600a0a61077e565b905092915050565b60006106158383601260ff16600a0a61077e565b905092915050565b600080600a6012601b0360ff16600a0a81151561063657fe5b048381151561064157fe5b0490506005600a8281151561065257fe5b0610151561066157600a810190505b600a8181151561066d57fe5b04915050919050565b60006106956012601b0360ff16600a0a836107e190919063ffffffff16565b9050919050565b60006106ca826106bc601260ff16600a0a866107e190919063ffffffff16565b61081f90919063ffffffff16565b905092915050565b6000601260ff16600a0a6106ef83856107e190919063ffffffff16565b8115156106f857fe5b04905092915050565b60006107158383601b60ff16600a0a61071d565b905092915050565b6000806107488461073a600a8602886107e190919063ffffffff16565b61081f90919063ffffffff16565b90506005600a8281151561075857fe5b0610151561076757600a810190505b600a8181151561077357fe5b049150509392505050565b600080600a8381151561078d57fe5b046107a185876107e190919063ffffffff16565b8115156107aa57fe5b0490506005600a828115156107bb57fe5b061015156107ca57600a810190505b600a818115156107d657fe5b049150509392505050565b6000808314156107f45760009050610819565b6000828402905082848281151561080757fe5b0414151561081457600080fd5b809150505b92915050565b6000808211151561082f57600080fd5b6000828481151561083c57fe5b049050809150509291505056fea165627a7a72305820f7cb7534cb2a4eab3064bfce05dd9d01ea1a82ed7320723da398f689fa28545d0029",
  "source": "/* PublicSafeDecimalMath.sol: expose the internal functions in SafeDecimalMath\n * for testing purposes.\n */\npragma solidity ^0.5.0;\n\nimport \"../SafeDecimalMath.sol\";\n\ncontract PublicSafeDecimalMath {\n    using SafeDecimalMath for uint;\n    \n    function unit()\n        public\n        pure\n        returns (uint)\n    {\n        return SafeDecimalMath.unit();\n    }\n\n    function preciseUnit()\n        public\n        pure\n        returns (uint)\n    {\n        return SafeDecimalMath.preciseUnit();\n    }\n\n    function multiplyDecimal(uint x, uint y)\n        public\n        pure\n        returns (uint)\n    {\n        return x.multiplyDecimal(y);\n    }\n\n    function multiplyDecimalRound(uint x, uint y)\n        public\n        pure\n        returns (uint)\n    {\n        return x.multiplyDecimalRound(y);\n    }\n\n    function multiplyDecimalRoundPrecise(uint x, uint y)\n        public\n        pure\n        returns (uint)\n    {\n        return x.multiplyDecimalRoundPrecise(y);\n    }\n\n    function divideDecimal(uint x, uint y)\n        public\n        pure\n        returns (uint)\n    {\n        return x.divideDecimal(y);\n    }\n\n    function divideDecimalRound(uint x, uint y)\n        public\n        pure\n        returns (uint)\n    {\n        return x.divideDecimalRound(y);\n    }\n\n    function divideDecimalRoundPrecise(uint x, uint y)\n        public\n        pure\n        returns (uint)\n    {\n        return x.divideDecimalRoundPrecise(y);\n    }\n\n    function decimalToPreciseDecimal(uint i)\n        public\n        pure\n        returns (uint)\n    {\n        return i.decimalToPreciseDecimal();\n    }\n\n    function preciseDecimalToDecimal(uint i)\n        public\n        pure\n        returns (uint)\n    {\n        return i.preciseDecimalToDecimal();\n    }\n}\n",
  "sourcePath": "/Users/clintonennis/Playground/final-project-hav-noms/contracts/test-helpers/PublicSafeDecimalMath.sol",
  "compiler": {
    "name": "solc",
    "version": "0.5.0+commit.1d4f565a.Emscripten.clang"
  },
  "schemaVersion": "3.0.1",
  "updatedAt": "2019-01-26T06:15:05.210Z",
  "devdoc": {
    "methods": {}
  },
  "userdoc": {
    "methods": {}
  }
}