{
  "contractName": "State",
  "abi": [
    {
      "constant": false,
      "inputs": [],
      "name": "renounceOwnership",
      "outputs": [],
      "payable": false,
      "stateMutability": "nonpayable",
      "type": "function",
      "signature": "0x715018a6"
    },
    {
      "constant": true,
      "inputs": [],
      "name": "owner",
      "outputs": [
        {
          "name": "",
          "type": "address"
        }
      ],
      "payable": false,
      "stateMutability": "view",
      "type": "function",
      "signature": "0x8da5cb5b"
    },
    {
      "constant": true,
      "inputs": [],
      "name": "isOwner",
      "outputs": [
        {
          "name": "",
          "type": "bool"
        }
      ],
      "payable": false,
      "stateMutability": "view",
      "type": "function",
      "signature": "0x8f32d59b"
    },
    {
      "constant": true,
      "inputs": [],
      "name": "associatedContract",
      "outputs": [
        {
          "name": "",
          "type": "address"
        }
      ],
      "payable": false,
      "stateMutability": "view",
      "type": "function",
      "signature": "0xaefc4ccb"
    },
    {
      "constant": false,
      "inputs": [
        {
          "name": "newOwner",
          "type": "address"
        }
      ],
      "name": "transferOwnership",
      "outputs": [],
      "payable": false,
      "stateMutability": "nonpayable",
      "type": "function",
      "signature": "0xf2fde38b"
    },
    {
      "inputs": [
        {
          "name": "_associatedContract",
          "type": "address"
        }
      ],
      "payable": false,
      "stateMutability": "nonpayable",
      "type": "constructor",
      "signature": "constructor"
    },
    {
      "anonymous": false,
      "inputs": [
        {
          "indexed": false,
          "name": "associatedContract",
          "type": "address"
        }
      ],
      "name": "AssociatedContractUpdated",
      "type": "event",
      "signature": "0x73f20cff579e8a4086fa607db83867595f1b6a798e718c0bfa0b94a404128e03"
    },
    {
      "anonymous": false,
      "inputs": [
        {
          "indexed": true,
          "name": "previousOwner",
          "type": "address"
        },
        {
          "indexed": true,
          "name": "newOwner",
          "type": "address"
        }
      ],
      "name": "OwnershipTransferred",
      "type": "event",
      "signature": "0x8be0079c531659141344cd1fd0a4f28419497f9722a3daafe3b4186f6b6457e0"
    },
    {
      "constant": false,
      "inputs": [
        {
          "name": "_associatedContract",
          "type": "address"
        }
      ],
      "name": "setAssociatedContract",
      "outputs": [],
      "payable": false,
      "stateMutability": "nonpayable",
      "type": "function",
      "signature": "0x52f445ca"
    }
  ],
  "bytecode": "0x608060405234801561001057600080fd5b5060405160208061073b8339810180604052602081101561003057600080fd5b8101908080519060200190929190505050336000806101000a81548173ffffffffffffffffffffffffffffffffffffffff021916908373ffffffffffffffffffffffffffffffffffffffff1602179055506000809054906101000a900473ffffffffffffffffffffffffffffffffffffffff1673ffffffffffffffffffffffffffffffffffffffff16600073ffffffffffffffffffffffffffffffffffffffff167f8be0079c531659141344cd1fd0a4f28419497f9722a3daafe3b4186f6b6457e060405160405180910390a380600160006101000a81548173ffffffffffffffffffffffffffffffffffffffff021916908373ffffffffffffffffffffffffffffffffffffffff1602179055507f73f20cff579e8a4086fa607db83867595f1b6a798e718c0bfa0b94a404128e0381604051808273ffffffffffffffffffffffffffffffffffffffff1673ffffffffffffffffffffffffffffffffffffffff16815260200191505060405180910390a15061058a806101b16000396000f3fe608060405260043610610078576000357c0100000000000000000000000000000000000000000000000000000000900463ffffffff16806352f445ca1461007d578063715018a6146100ce5780638da5cb5b146100e55780638f32d59b1461013c578063aefc4ccb1461016b578063f2fde38b146101c2575b600080fd5b34801561008957600080fd5b506100cc600480360360208110156100a057600080fd5b81019080803573ffffffffffffffffffffffffffffffffffffffff169060200190929190505050610213565b005b3480156100da57600080fd5b506100e36102cd565b005b3480156100f157600080fd5b506100fa61039f565b604051808273ffffffffffffffffffffffffffffffffffffffff1673ffffffffffffffffffffffffffffffffffffffff16815260200191505060405180910390f35b34801561014857600080fd5b506101516103c8565b604051808215151515815260200191505060405180910390f35b34801561017757600080fd5b5061018061041f565b604051808273ffffffffffffffffffffffffffffffffffffffff1673ffffffffffffffffffffffffffffffffffffffff16815260200191505060405180910390f35b3480156101ce57600080fd5b50610211600480360360208110156101e557600080fd5b81019080803573ffffffffffffffffffffffffffffffffffffffff169060200190929190505050610445565b005b61021b6103c8565b151561022657600080fd5b80600160006101000a81548173ffffffffffffffffffffffffffffffffffffffff021916908373ffffffffffffffffffffffffffffffffffffffff1602179055507f73f20cff579e8a4086fa607db83867595f1b6a798e718c0bfa0b94a404128e0381604051808273ffffffffffffffffffffffffffffffffffffffff1673ffffffffffffffffffffffffffffffffffffffff16815260200191505060405180910390a150565b6102d56103c8565b15156102e057600080fd5b600073ffffffffffffffffffffffffffffffffffffffff166000809054906101000a900473ffffffffffffffffffffffffffffffffffffffff1673ffffffffffffffffffffffffffffffffffffffff167f8be0079c531659141344cd1fd0a4f28419497f9722a3daafe3b4186f6b6457e060405160405180910390a360008060006101000a81548173ffffffffffffffffffffffffffffffffffffffff021916908373ffffffffffffffffffffffffffffffffffffffff160217905550565b60008060009054906101000a900473ffffffffffffffffffffffffffffffffffffffff16905090565b60008060009054906101000a900473ffffffffffffffffffffffffffffffffffffffff1673ffffffffffffffffffffffffffffffffffffffff163373ffffffffffffffffffffffffffffffffffffffff1614905090565b600160009054906101000a900473ffffffffffffffffffffffffffffffffffffffff1681565b61044d6103c8565b151561045857600080fd5b61046181610464565b50565b600073ffffffffffffffffffffffffffffffffffffffff168173ffffffffffffffffffffffffffffffffffffffff16141515156104a057600080fd5b8073ffffffffffffffffffffffffffffffffffffffff166000809054906101000a900473ffffffffffffffffffffffffffffffffffffffff1673ffffffffffffffffffffffffffffffffffffffff167f8be0079c531659141344cd1fd0a4f28419497f9722a3daafe3b4186f6b6457e060405160405180910390a3806000806101000a81548173ffffffffffffffffffffffffffffffffffffffff021916908373ffffffffffffffffffffffffffffffffffffffff1602179055505056fea165627a7a72305820d20d515eaa062666258f643dd1cbe588b96a0e742e1e7727eb80eaa44982d8150029",
  "source": "pragma solidity ^0.5.0;\n\nimport \"openzeppelin-solidity/contracts/ownership/Ownable.sol\";\n\n/**\n * @title Owner functions to set the Associated Contract of the state that we store. \n * @notice  This contract is used side by side with external state contract\n * It provides an easy way to upgrade contract logic while\n * maintaining all user balances. This is designed\n * to make the changeover as easy as possible, since mappings\n * are not so cheap or straightforward to migrate.\n\n * The first deployed contract would create this state contract,\n * using it as its store of balances.\n * When a new contract is deployed, it links to the existing\n * state contract, whose owner would then change its associated\n * contract to the new one.\n */\ncontract State is Ownable {\n\n    // the address of the contract that can modify variables\n    // this can only be changed by the owner of this contract\n    address public associatedContract;\n\n    constructor(address _associatedContract)\n        public\n    {\n        associatedContract = _associatedContract;\n        emit AssociatedContractUpdated(_associatedContract);\n    }\n\n    //-----------------------------------------------------------------\n    // Setters\n    //-----------------------------------------------------------------\n\n    /**\n     * @notice Change the associated contract to a new address\n     * @param _associatedContract the address of the Contract that owns this state\n     */\n    function setAssociatedContract(address _associatedContract)\n        external\n        onlyOwner\n    {\n        associatedContract = _associatedContract;\n        emit AssociatedContractUpdated(_associatedContract);\n    }\n\n    //-----------------------------------------------------------------\n    // Modifiers\n    //-----------------------------------------------------------------\n\n    modifier onlyAssociatedContract\n    {\n        require(msg.sender == associatedContract, \"Only the associated contract can perform this action\");\n        _;\n    }\n\n    //-----------------------------------------------------------------\n    // Events\n    //-----------------------------------------------------------------\n\n    event AssociatedContractUpdated(address associatedContract);\n}",
  "sourcePath": "/Users/clintonennis/Playground/final-project-hav-noms/contracts/State.sol",
  "compiler": {
    "name": "solc",
    "version": "0.5.0+commit.1d4f565a.Emscripten.clang"
  },
  "schemaVersion": "3.0.1",
  "updatedAt": "2019-01-26T06:15:05.201Z",
  "devdoc": {
    "methods": {
      "isOwner()": {
        "return": "true if `msg.sender` is the owner of the contract."
      },
      "owner()": {
        "return": "the address of the owner."
      },
      "renounceOwnership()": {
        "details": "Allows the current owner to relinquish control of the contract."
      },
      "setAssociatedContract(address)": {
        "params": {
          "_associatedContract": "the address of the Contract that owns this state"
        }
      },
      "transferOwnership(address)": {
        "details": "Allows the current owner to transfer control of the contract to a newOwner.",
        "params": {
          "newOwner": "The address to transfer ownership to."
        }
      }
    },
    "title": "Owner functions to set the Associated Contract of the state that we store. "
  },
  "userdoc": {
    "methods": {
      "renounceOwnership()": {
        "notice": "Renouncing to ownership will leave the contract without an owner. It will not be possible to call the functions with the `onlyOwner` modifier anymore."
      },
      "setAssociatedContract(address)": {
        "notice": "Change the associated contract to a new address"
      }
    },
    "notice": "This contract is used side by side with external state contract It provides an easy way to upgrade contract logic while maintaining all user balances. This is designed to make the changeover as easy as possible, since mappings are not so cheap or straightforward to migrate. The first deployed contract would create this state contract, using it as its store of balances. When a new contract is deployed, it links to the existing state contract, whose owner would then change its associated contract to the new one."
  }
}