{
  "contractName": "TokenExchange",
  "abi": [
    {
      "constant": false,
      "inputs": [
        {
          "name": "_paused",
          "type": "bool"
        }
      ],
      "name": "setPaused",
      "outputs": [],
      "payable": false,
      "stateMutability": "nonpayable",
      "type": "function"
    },
    {
      "constant": true,
      "inputs": [],
      "name": "initiationTime",
      "outputs": [
        {
          "name": "",
          "type": "uint256"
        }
      ],
      "payable": false,
      "stateMutability": "view",
      "type": "function"
    },
    {
      "constant": true,
      "inputs": [],
      "name": "externalState",
      "outputs": [
        {
          "name": "",
          "type": "address"
        }
      ],
      "payable": false,
      "stateMutability": "view",
      "type": "function"
    },
    {
      "constant": false,
      "inputs": [
        {
          "name": "_beneficiary",
          "type": "address"
        }
      ],
      "name": "setSelfDestructBeneficiary",
      "outputs": [],
      "payable": false,
      "stateMutability": "nonpayable",
      "type": "function"
    },
    {
      "constant": false,
      "inputs": [
        {
          "name": "_myid",
          "type": "bytes32"
        },
        {
          "name": "_result",
          "type": "string"
        }
      ],
      "name": "__callback",
      "outputs": [],
      "payable": false,
      "stateMutability": "nonpayable",
      "type": "function"
    },
    {
      "constant": false,
      "inputs": [],
      "name": "terminateSelfDestruct",
      "outputs": [],
      "payable": false,
      "stateMutability": "nonpayable",
      "type": "function"
    },
    {
      "constant": false,
      "inputs": [
        {
          "name": "myid",
          "type": "bytes32"
        },
        {
          "name": "result",
          "type": "string"
        },
        {
          "name": "proof",
          "type": "bytes"
        }
      ],
      "name": "__callback",
      "outputs": [],
      "payable": false,
      "stateMutability": "nonpayable",
      "type": "function"
    },
    {
      "constant": true,
      "inputs": [],
      "name": "priceETHUSD",
      "outputs": [
        {
          "name": "",
          "type": "string"
        }
      ],
      "payable": false,
      "stateMutability": "view",
      "type": "function"
    },
    {
      "constant": true,
      "inputs": [],
      "name": "paused",
      "outputs": [
        {
          "name": "",
          "type": "bool"
        }
      ],
      "payable": false,
      "stateMutability": "view",
      "type": "function"
    },
    {
      "constant": false,
      "inputs": [],
      "name": "renounceOwnership",
      "outputs": [],
      "payable": false,
      "stateMutability": "nonpayable",
      "type": "function"
    },
    {
      "constant": true,
      "inputs": [
        {
          "name": "",
          "type": "uint256"
        }
      ],
      "name": "tradeListings",
      "outputs": [
        {
          "name": "seller",
          "type": "address"
        },
        {
          "name": "symbol",
          "type": "string"
        },
        {
          "name": "amount",
          "type": "uint256"
        },
        {
          "name": "ethRate",
          "type": "uint256"
        },
        {
          "name": "totalPrice",
          "type": "uint256"
        },
        {
          "name": "tokenContractAddress",
          "type": "address"
        }
      ],
      "payable": false,
      "stateMutability": "view",
      "type": "function"
    },
    {
      "constant": true,
      "inputs": [],
      "name": "owner",
      "outputs": [
        {
          "name": "",
          "type": "address"
        }
      ],
      "payable": false,
      "stateMutability": "view",
      "type": "function"
    },
    {
      "constant": true,
      "inputs": [],
      "name": "isOwner",
      "outputs": [
        {
          "name": "",
          "type": "bool"
        }
      ],
      "payable": false,
      "stateMutability": "view",
      "type": "function"
    },
    {
      "constant": true,
      "inputs": [],
      "name": "lastPauseTime",
      "outputs": [
        {
          "name": "",
          "type": "uint256"
        }
      ],
      "payable": false,
      "stateMutability": "view",
      "type": "function"
    },
    {
      "constant": false,
      "inputs": [
        {
          "name": "_proxy",
          "type": "address"
        }
      ],
      "name": "setProxy",
      "outputs": [],
      "payable": false,
      "stateMutability": "nonpayable",
      "type": "function"
    },
    {
      "constant": false,
      "inputs": [],
      "name": "selfDestruct",
      "outputs": [],
      "payable": false,
      "stateMutability": "nonpayable",
      "type": "function"
    },
    {
      "constant": false,
      "inputs": [],
      "name": "update",
      "outputs": [],
      "payable": true,
      "stateMutability": "payable",
      "type": "function"
    },
    {
      "constant": true,
      "inputs": [],
      "name": "SELFDESTRUCT_DELAY",
      "outputs": [
        {
          "name": "",
          "type": "uint256"
        }
      ],
      "payable": false,
      "stateMutability": "view",
      "type": "function"
    },
    {
      "constant": true,
      "inputs": [
        {
          "name": "",
          "type": "uint256"
        }
      ],
      "name": "tradeID",
      "outputs": [
        {
          "name": "",
          "type": "uint256"
        }
      ],
      "payable": false,
      "stateMutability": "view",
      "type": "function"
    },
    {
      "constant": true,
      "inputs": [],
      "name": "selfDestructInitiated",
      "outputs": [
        {
          "name": "",
          "type": "bool"
        }
      ],
      "payable": false,
      "stateMutability": "view",
      "type": "function"
    },
    {
      "constant": false,
      "inputs": [
        {
          "name": "sender",
          "type": "address"
        }
      ],
      "name": "setMessageSender",
      "outputs": [],
      "payable": false,
      "stateMutability": "nonpayable",
      "type": "function"
    },
    {
      "constant": false,
      "inputs": [],
      "name": "initiateSelfDestruct",
      "outputs": [],
      "payable": false,
      "stateMutability": "nonpayable",
      "type": "function"
    },
    {
      "constant": true,
      "inputs": [],
      "name": "selfDestructBeneficiary",
      "outputs": [
        {
          "name": "",
          "type": "address"
        }
      ],
      "payable": false,
      "stateMutability": "view",
      "type": "function"
    },
    {
      "constant": true,
      "inputs": [],
      "name": "proxy",
      "outputs": [
        {
          "name": "",
          "type": "address"
        }
      ],
      "payable": false,
      "stateMutability": "view",
      "type": "function"
    },
    {
      "constant": false,
      "inputs": [
        {
          "name": "newOwner",
          "type": "address"
        }
      ],
      "name": "transferOwnership",
      "outputs": [],
      "payable": false,
      "stateMutability": "nonpayable",
      "type": "function"
    },
    {
      "inputs": [
        {
          "name": "_selfDestructBeneficiary",
          "type": "address"
        },
        {
          "name": "_proxy",
          "type": "address"
        },
        {
          "name": "_externalState",
          "type": "address"
        },
        {
          "name": "_priceETHUSD",
          "type": "string"
        }
      ],
      "payable": false,
      "stateMutability": "nonpayable",
      "type": "constructor"
    },
    {
      "payable": false,
      "stateMutability": "nonpayable",
      "type": "fallback"
    },
    {
      "anonymous": false,
      "inputs": [
        {
          "indexed": true,
          "name": "seller",
          "type": "address"
        },
        {
          "indexed": false,
          "name": "amount",
          "type": "uint256"
        },
        {
          "indexed": false,
          "name": "tradeID",
          "type": "uint256"
        }
      ],
      "name": "TradeListingDeposit",
      "type": "event"
    },
    {
      "anonymous": false,
      "inputs": [
        {
          "indexed": false,
          "name": "fromSymbol",
          "type": "string"
        },
        {
          "indexed": false,
          "name": "fromAmount",
          "type": "uint256"
        },
        {
          "indexed": false,
          "name": "toSymbol",
          "type": "string"
        },
        {
          "indexed": false,
          "name": "toAmount",
          "type": "uint256"
        }
      ],
      "name": "Exchange",
      "type": "event"
    },
    {
      "anonymous": false,
      "inputs": [
        {
          "indexed": true,
          "name": "seller",
          "type": "address"
        },
        {
          "indexed": false,
          "name": "amount",
          "type": "uint256"
        },
        {
          "indexed": false,
          "name": "tradeID",
          "type": "uint256"
        }
      ],
      "name": "TradeListingWithdrawal",
      "type": "event"
    },
    {
      "anonymous": false,
      "inputs": [
        {
          "indexed": false,
          "name": "description",
          "type": "string"
        },
        {
          "indexed": false,
          "name": "value",
          "type": "string"
        }
      ],
      "name": "LogString",
      "type": "event"
    },
    {
      "anonymous": false,
      "inputs": [
        {
          "indexed": false,
          "name": "description",
          "type": "string"
        },
        {
          "indexed": false,
          "name": "value",
          "type": "uint256"
        }
      ],
      "name": "Loguint",
      "type": "event"
    },
    {
      "anonymous": false,
      "inputs": [
        {
          "indexed": false,
          "name": "description",
          "type": "string"
        },
        {
          "indexed": false,
          "name": "value",
          "type": "address"
        }
      ],
      "name": "LogAddress",
      "type": "event"
    },
    {
      "anonymous": false,
      "inputs": [
        {
          "indexed": false,
          "name": "description",
          "type": "string"
        }
      ],
      "name": "LogNewOraclizeQuery",
      "type": "event"
    },
    {
      "anonymous": false,
      "inputs": [
        {
          "indexed": false,
          "name": "price",
          "type": "string"
        }
      ],
      "name": "LogNewPriceUpdate",
      "type": "event"
    },
    {
      "anonymous": false,
      "inputs": [],
      "name": "SelfDestructTerminated",
      "type": "event"
    },
    {
      "anonymous": false,
      "inputs": [
        {
          "indexed": false,
          "name": "beneficiary",
          "type": "address"
        }
      ],
      "name": "SelfDestructed",
      "type": "event"
    },
    {
      "anonymous": false,
      "inputs": [
        {
          "indexed": false,
          "name": "selfDestructDelay",
          "type": "uint256"
        }
      ],
      "name": "SelfDestructInitiated",
      "type": "event"
    },
    {
      "anonymous": false,
      "inputs": [
        {
          "indexed": false,
          "name": "newBeneficiary",
          "type": "address"
        }
      ],
      "name": "SelfDestructBeneficiaryUpdated",
      "type": "event"
    },
    {
      "anonymous": false,
      "inputs": [
        {
          "indexed": false,
          "name": "proxyAddress",
          "type": "address"
        }
      ],
      "name": "ProxyUpdated",
      "type": "event"
    },
    {
      "anonymous": false,
      "inputs": [
        {
          "indexed": false,
          "name": "isPaused",
          "type": "bool"
        }
      ],
      "name": "PauseChanged",
      "type": "event"
    },
    {
      "anonymous": false,
      "inputs": [
        {
          "indexed": true,
          "name": "previousOwner",
          "type": "address"
        },
        {
          "indexed": true,
          "name": "newOwner",
          "type": "address"
        }
      ],
      "name": "OwnershipTransferred",
      "type": "event"
    },
    {
      "constant": true,
      "inputs": [],
      "name": "getTradeListingCount",
      "outputs": [
        {
          "name": "",
          "type": "uint256"
        }
      ],
      "payable": false,
      "stateMutability": "view",
      "type": "function"
    },
    {
      "constant": true,
      "inputs": [],
      "name": "getTradeList",
      "outputs": [
        {
          "name": "ids",
          "type": "uint256[]"
        },
        {
          "name": "symbols",
          "type": "bytes4[]"
        },
        {
          "name": "amounts",
          "type": "uint256[]"
        },
        {
          "name": "ethRates",
          "type": "uint256[]"
        },
        {
          "name": "totalPrices",
          "type": "uint256[]"
        },
        {
          "name": "contracts",
          "type": "address[]"
        },
        {
          "name": "seller",
          "type": "address[]"
        }
      ],
      "payable": false,
      "stateMutability": "view",
      "type": "function"
    },
    {
      "constant": true,
      "inputs": [
        {
          "name": "id",
          "type": "uint256"
        }
      ],
      "name": "getTrade",
      "outputs": [
        {
          "name": "symbol",
          "type": "string"
        },
        {
          "name": "amount",
          "type": "uint256"
        },
        {
          "name": "ethRate",
          "type": "uint256"
        },
        {
          "name": "totalPrice",
          "type": "uint256"
        },
        {
          "name": "tokenContractAddress",
          "type": "address"
        },
        {
          "name": "seller",
          "type": "address"
        }
      ],
      "payable": false,
      "stateMutability": "view",
      "type": "function"
    },
    {
      "constant": false,
      "inputs": [
        {
          "name": "symbol",
          "type": "string"
        },
        {
          "name": "amount",
          "type": "uint256"
        },
        {
          "name": "ethRate",
          "type": "uint256"
        },
        {
          "name": "tokenContract",
          "type": "address"
        }
      ],
      "name": "createTradeListing",
      "outputs": [
        {
          "name": "",
          "type": "uint256"
        }
      ],
      "payable": false,
      "stateMutability": "nonpayable",
      "type": "function"
    },
    {
      "constant": false,
      "inputs": [
        {
          "name": "listingID",
          "type": "uint256"
        }
      ],
      "name": "withdrawMyDepositedTokens",
      "outputs": [],
      "payable": false,
      "stateMutability": "nonpayable",
      "type": "function"
    },
    {
      "constant": false,
      "inputs": [
        {
          "name": "listingID",
          "type": "uint256"
        }
      ],
      "name": "exchangeEtherForTokens",
      "outputs": [],
      "payable": true,
      "stateMutability": "payable",
      "type": "function"
    },
    {
      "constant": false,
      "inputs": [
        {
          "name": "listingID",
          "type": "uint256"
        }
      ],
      "name": "getTradeCostPriceInUSD",
      "outputs": [
        {
          "name": "costUSD",
          "type": "uint256"
        }
      ],
      "payable": false,
      "stateMutability": "nonpayable",
      "type": "function"
    },
    {
      "constant": false,
      "inputs": [],
      "name": "callOracle",
      "outputs": [
        {
          "name": "",
          "type": "bool"
        }
      ],
      "payable": false,
      "stateMutability": "nonpayable",
      "type": "function"
    }
  ],
  "bytecode": "0x60806040523480156200001157600080fd5b5060405162005ec638038062005ec6833981018060405260808110156200003757600080fd5b8101908080519060200190929190805190602001909291908051906020019092919080516401000000008111156200006e57600080fd5b828101905060208101848111156200008557600080fd5b8151856001820283011164010000000082111715620000a357600080fd5b50509291905050508383336000806101000a81548173ffffffffffffffffffffffffffffffffffffffff021916908373ffffffffffffffffffffffffffffffffffffffff1602179055506000809054906101000a900473ffffffffffffffffffffffffffffffffffffffff1673ffffffffffffffffffffffffffffffffffffffff16600073ffffffffffffffffffffffffffffffffffffffff167f8be0079c531659141344cd1fd0a4f28419497f9722a3daafe3b4186f6b6457e060405160405180910390a380600260016101000a81548173ffffffffffffffffffffffffffffffffffffffff021916908373ffffffffffffffffffffffffffffffffffffffff1602179055507ffc80377ca9c49cc11ae6982f390a42db976d5530af7c43889264b13fbbd7c57e81604051808273ffffffffffffffffffffffffffffffffffffffff1673ffffffffffffffffffffffffffffffffffffffff16815260200191505060405180910390a150600073ffffffffffffffffffffffffffffffffffffffff168173ffffffffffffffffffffffffffffffffffffffff1614151515620002da576040517f08c379a00000000000000000000000000000000000000000000000000000000081526004018080602001828103825260358152602001807f5f73656c66446573747275637442656e6566696369617279206d757374206e6f81526020017f7420626520746865207a65726f2061646472657373000000000000000000000081525060400191505060405180910390fd5b80600560016101000a81548173ffffffffffffffffffffffffffffffffffffffff021916908373ffffffffffffffffffffffffffffffffffffffff1602179055507fd5da63a0b864b315bc04128dedbc93888c8529ee6cf47ce664dc204339228c53600560019054906101000a900473ffffffffffffffffffffffffffffffffffffffff16604051808273ffffffffffffffffffffffffffffffffffffffff1673ffffffffffffffffffffffffffffffffffffffff16815260200191505060405180910390a15081600c60006101000a81548173ffffffffffffffffffffffffffffffffffffffff021916908373ffffffffffffffffffffffffffffffffffffffff16021790555080600b9080519060200190620003fa92919062000405565b5050505050620004b4565b828054600181600116156101000203166002900490600052602060002090601f016020900481019282601f106200044857805160ff191683800117855562000479565b8280016001018555821562000479579182015b82811115620004785782518255916020019190600101906200045b565b5b5090506200048891906200048c565b5090565b620004b191905b80821115620004ad57600081600090555060010162000493565b5090565b90565b615a0280620004c46000396000f3fe6080604052600436106101a1576000357c0100000000000000000000000000000000000000000000000000000000900463ffffffff16806316c38b3c1461024c57806317c70de4146102895780631b9e4b56146102b457806320714f881461030b57806327dc297e1461035c5780632db25e051461042e5780633278c9601461055d57806338bbfa501461057457806358ed766d146106dd5780635c975abb1461076d578063715018a61461079c5780637b1b7166146107b357806383df59b1146107e2578063889d14571461080d5780638da5cb5b1461093c5780638f32d59b1461099357806391b4ded9146109c257806397107d6d146109ed5780639cb8a26a14610a3e5780639f07d68c14610a555780639fcfd0f014610c71578063a2e6204514610d81578063a461fc8214610d8b578063aed0bb7b14610db6578063b8225dec14610e05578063bc67f83214610e34578063bd32aa4414610e85578063c58aaae614610e9c578063c81a370714610ef3578063dd3d62cc14610f2e578063e5c3acbe14610f7d578063ec55688914610fab578063f2fde38b14611002575b3480156101ad57600080fd5b50600260019054906101000a900473ffffffffffffffffffffffffffffffffffffffff1673ffffffffffffffffffffffffffffffffffffffff163373ffffffffffffffffffffffffffffffffffffffff161415156102475733600360006101000a81548173ffffffffffffffffffffffffffffffffffffffff021916908373ffffffffffffffffffffffffffffffffffffffff1602179055505b600080fd5b34801561025857600080fd5b506102876004803603602081101561026f57600080fd5b81019080803515159060200190929190505050611053565b005b34801561029557600080fd5b5061029e61110b565b6040518082815260200191505060405180910390f35b3480156102c057600080fd5b506102c9611111565b604051808273ffffffffffffffffffffffffffffffffffffffff1673ffffffffffffffffffffffffffffffffffffffff16815260200191505060405180910390f35b34801561031757600080fd5b5061035a6004803603602081101561032e57600080fd5b81019080803573ffffffffffffffffffffffffffffffffffffffff169060200190929190505050611137565b005b34801561036857600080fd5b5061042c6004803603604081101561037f57600080fd5b8101908080359060200190929190803590602001906401000000008111156103a657600080fd5b8201836020820111156103b857600080fd5b803590602001918460018302840111640100000000831117156103da57600080fd5b91908080601f016020809104026020016040519081016040528093929190818152602001838380828437600081840152601f19601f8201169050808301925050505050505091929192905050506112bc565b005b34801561043a57600080fd5b506104676004803603602081101561045157600080fd5b81019080803590602001909291905050506112ff565b60405180806020018781526020018681526020018581526020018473ffffffffffffffffffffffffffffffffffffffff1673ffffffffffffffffffffffffffffffffffffffff1681526020018373ffffffffffffffffffffffffffffffffffffffff1673ffffffffffffffffffffffffffffffffffffffff168152602001828103825288818151815260200191508051906020019080838360005b8381101561051d578082015181840152602081019050610502565b50505050905090810190601f16801561054a5780820380516001836020036101000a031916815260200191505b5097505050505050505060405180910390f35b34801561056957600080fd5b50610572611480565b005b34801561058057600080fd5b506106db6004803603606081101561059757600080fd5b8101908080359060200190929190803590602001906401000000008111156105be57600080fd5b8201836020820111156105d057600080fd5b803590602001918460018302840111640100000000831117156105f257600080fd5b91908080601f016020809104026020016040519081016040528093929190818152602001838380828437600081840152601f19601f8201169050808301925050505050505091929192908035906020019064010000000081111561065557600080fd5b82018360208201111561066757600080fd5b8035906020019184600183028401116401000000008311171561068957600080fd5b91908080601f016020809104026020016040519081016040528093929190818152602001838380828437600081840152601f19601f8201169050808301925050505050505091929192905050506114e4565b005b3480156106e957600080fd5b506106f2611692565b6040518080602001828103825283818151815260200191508051906020019080838360005b83811015610732578082015181840152602081019050610717565b50505050905090810190601f16801561075f5780820380516001836020036101000a031916815260200191505b509250505060405180910390f35b34801561077957600080fd5b50610782611730565b604051808215151515815260200191505060405180910390f35b3480156107a857600080fd5b506107b1611743565b005b3480156107bf57600080fd5b506107c8611815565b604051808215151515815260200191505060405180910390f35b3480156107ee57600080fd5b506107f761193b565b6040518082815260200191505060405180910390f35b34801561081957600080fd5b506108466004803603602081101561083057600080fd5b8101908080359060200190929190505050611948565b604051808773ffffffffffffffffffffffffffffffffffffffff1673ffffffffffffffffffffffffffffffffffffffff168152602001806020018681526020018581526020018481526020018373ffffffffffffffffffffffffffffffffffffffff1673ffffffffffffffffffffffffffffffffffffffff168152602001828103825287818151815260200191508051906020019080838360005b838110156108fc5780820151818401526020810190506108e1565b50505050905090810190601f1680156109295780820380516001836020036101000a031916815260200191505b5097505050505050505060405180910390f35b34801561094857600080fd5b50610951611a5c565b604051808273ffffffffffffffffffffffffffffffffffffffff1673ffffffffffffffffffffffffffffffffffffffff16815260200191505060405180910390f35b34801561099f57600080fd5b506109a8611a85565b604051808215151515815260200191505060405180910390f35b3480156109ce57600080fd5b506109d7611adc565b6040518082815260200191505060405180910390f35b3480156109f957600080fd5b50610a3c60048036036020811015610a1057600080fd5b81019080803573ffffffffffffffffffffffffffffffffffffffff169060200190929190505050611ae2565b005b348015610a4a57600080fd5b50610a53611b9c565b005b348015610a6157600080fd5b50610a6a611dbd565b604051808060200180602001806020018060200180602001806020018060200188810388528f818151815260200191508051906020019060200280838360005b83811015610ac5578082015181840152602081019050610aaa565b5050505090500188810387528e818151815260200191508051906020019060200280838360005b83811015610b07578082015181840152602081019050610aec565b5050505090500188810386528d818151815260200191508051906020019060200280838360005b83811015610b49578082015181840152602081019050610b2e565b5050505090500188810385528c818151815260200191508051906020019060200280838360005b83811015610b8b578082015181840152602081019050610b70565b5050505090500188810384528b818151815260200191508051906020019060200280838360005b83811015610bcd578082015181840152602081019050610bb2565b5050505090500188810383528a818151815260200191508051906020019060200280838360005b83811015610c0f578082015181840152602081019050610bf4565b50505050905001888103825289818151815260200191508051906020019060200280838360005b83811015610c51578082015181840152602081019050610c36565b505050509050019e50505050505050505050505050505060405180910390f35b348015610c7d57600080fd5b50610d6b60048036036080811015610c9457600080fd5b8101908080359060200190640100000000811115610cb157600080fd5b820183602082011115610cc357600080fd5b80359060200191846001830284011164010000000083111715610ce557600080fd5b91908080601f016020809104026020016040519081016040528093929190818152602001838380828437600081840152601f19601f8201169050808301925050505050505091929192908035906020019092919080359060200190929190803573ffffffffffffffffffffffffffffffffffffffff169060200190929190505050611f50565b6040518082815260200191505060405180910390f35b610d8961261d565b005b348015610d9757600080fd5b50610da0612887565b6040518082815260200191505060405180910390f35b348015610dc257600080fd5b50610def60048036036020811015610dd957600080fd5b810190808035906020019092919050505061288e565b6040518082815260200191505060405180910390f35b348015610e1157600080fd5b50610e1a6128b1565b604051808215151515815260200191505060405180910390f35b348015610e4057600080fd5b50610e8360048036036020811015610e5757600080fd5b81019080803573ffffffffffffffffffffffffffffffffffffffff1690602001909291905050506128c4565b005b348015610e9157600080fd5b50610e9a6129f3565b005b348015610ea857600080fd5b50610eb1612a64565b604051808273ffffffffffffffffffffffffffffffffffffffff1673ffffffffffffffffffffffffffffffffffffffff16815260200191505060405180910390f35b348015610eff57600080fd5b50610f2c60048036036020811015610f1657600080fd5b8101908080359060200190929190505050612a8a565b005b348015610f3a57600080fd5b50610f6760048036036020811015610f5157600080fd5b8101908080359060200190929190505050613111565b6040518082815260200191505060405180910390f35b610fa960048036036020811015610f9357600080fd5b8101908080359060200190929190505050613675565b005b348015610fb757600080fd5b50610fc0614070565b604051808273ffffffffffffffffffffffffffffffffffffffff1673ffffffffffffffffffffffffffffffffffffffff16815260200191505060405180910390f35b34801561100e57600080fd5b506110516004803603602081101561102557600080fd5b81019080803573ffffffffffffffffffffffffffffffffffffffff169060200190929190505050614096565b005b61105b611a85565b151561106657600080fd5b600260009054906101000a900460ff161515811515141561108657611108565b80600260006101000a81548160ff021916908315150217905550600260009054906101000a900460ff16156110bd57426001819055505b7f8fb6c181ee25a520cf3dd6565006ef91229fcfe5a989566c2a3b8c115570cec5600260009054906101000a900460ff16604051808215151515815260200191505060405180910390a15b50565b60045481565b600c60009054906101000a900473ffffffffffffffffffffffffffffffffffffffff1681565b61113f611a85565b151561114a57600080fd5b600073ffffffffffffffffffffffffffffffffffffffff168173ffffffffffffffffffffffffffffffffffffffff1614151515611215576040517f08c379a00000000000000000000000000000000000000000000000000000000081526004018080602001828103825260288152602001807f42656e6566696369617279206d757374206e6f7420626520746865207a65726f81526020017f206164647265737300000000000000000000000000000000000000000000000081525060400191505060405180910390fd5b80600560016101000a81548173ffffffffffffffffffffffffffffffffffffffff021916908373ffffffffffffffffffffffffffffffffffffffff1602179055507fd5da63a0b864b315bc04128dedbc93888c8529ee6cf47ce664dc204339228c5381604051808273ffffffffffffffffffffffffffffffffffffffff1673ffffffffffffffffffffffffffffffffffffffff16815260200191505060405180910390a150565b6112fb828260006040519080825280601f01601f1916602001820160405280156112f55781602001600182028038833980820191505090505b506114e4565b5050565b60606000806000806000600d60008881526020019081526020016000206001018054600181600116156101000203166002900480601f0160208091040260200160405190810160405280929190818152602001828054600181600116156101000203166002900480156113b35780601f10611388576101008083540402835291602001916113b3565b820191906000526020600020905b81548152906001019060200180831161139657829003601f168201915b50505050509550600d6000888152602001908152602001600020600201549450600d6000888152602001908152602001600020600301549350600d6000888152602001908152602001600020600401549250600d600088815260200190815260200160002060050160009054906101000a900473ffffffffffffffffffffffffffffffffffffffff169150600d600088815260200190815260200160002060000160009054906101000a900473ffffffffffffffffffffffffffffffffffffffff16905091939550919395565b611488611a85565b151561149357600080fd5b60006004819055506000600560006101000a81548160ff0219169083151502179055507f6adcc7125002935e0aa31697538ebbd65cfddf20431eb6ecdcfc3e238bfd082c60405160405180910390a1565b6114ec6140b5565b73ffffffffffffffffffffffffffffffffffffffff163373ffffffffffffffffffffffffffffffffffffffff161415156115b4576040517f08c379a00000000000000000000000000000000000000000000000000000000081526004018080602001828103825260218152602001807f53656e646572206d757374206265206f7261636c697a655f636241646472657381526020017f730000000000000000000000000000000000000000000000000000000000000081525060400191505060405180910390fd5b6115bc61261d565b81600b90805190602001906115d2929190615806565b507f45380602dfae37a071d17a70de11828a8e4331f4068463d68453d10f354798cf600b604051808060200182810382528381815460018160011615610100020316600290048152602001915080546001816001161561010002031660029004801561167f5780601f106116545761010080835404028352916020019161167f565b820191906000526020600020905b81548152906001019060200180831161166257829003601f168201915b50509250505060405180910390a1505050565b600b8054600181600116156101000203166002900480601f0160208091040260200160405190810160405280929190818152602001828054600181600116156101000203166002900480156117285780601f106116fd57610100808354040283529160200191611728565b820191906000526020600020905b81548152906001019060200180831161170b57829003601f168201915b505050505081565b600260009054906101000a900460ff1681565b61174b611a85565b151561175657600080fd5b600073ffffffffffffffffffffffffffffffffffffffff166000809054906101000a900473ffffffffffffffffffffffffffffffffffffffff1673ffffffffffffffffffffffffffffffffffffffff167f8be0079c531659141344cd1fd0a4f28419497f9722a3daafe3b4186f6b6457e060405160405180910390a360008060006101000a81548173ffffffffffffffffffffffffffffffffffffffff021916908373ffffffffffffffffffffffffffffffffffffffff160217905550565b6000600260019054906101000a900473ffffffffffffffffffffffffffffffffffffffff1673ffffffffffffffffffffffffffffffffffffffff163373ffffffffffffffffffffffffffffffffffffffff161415156118b05733600360006101000a81548173ffffffffffffffffffffffffffffffffffffffff021916908373ffffffffffffffffffffffffffffffffffffffff1602179055505b6118b861261d565b7f27a8767ed172b48d7cf6dbb25d2840c5fa91ef78fa6e05c13c82763d099f03ca604051808060200180602001838103835260158152602001807f75706461746545746850726963652063616c6c656400000000000000000000008152506020018381038252600081526020016020019250505060405180910390a16001905090565b6000600e80549050905090565b600d6020528060005260406000206000915090508060000160009054906101000a900473ffffffffffffffffffffffffffffffffffffffff1690806001018054600181600116156101000203166002900480601f016020809104026020016040519081016040528092919081815260200182805460018160011615610100020316600290048015611a1a5780601f106119ef57610100808354040283529160200191611a1a565b820191906000526020600020905b8154815290600101906020018083116119fd57829003601f168201915b5050505050908060020154908060030154908060040154908060050160009054906101000a900473ffffffffffffffffffffffffffffffffffffffff16905086565b60008060009054906101000a900473ffffffffffffffffffffffffffffffffffffffff16905090565b60008060009054906101000a900473ffffffffffffffffffffffffffffffffffffffff1673ffffffffffffffffffffffffffffffffffffffff163373ffffffffffffffffffffffffffffffffffffffff1614905090565b60015481565b611aea611a85565b1515611af557600080fd5b80600260016101000a81548173ffffffffffffffffffffffffffffffffffffffff021916908373ffffffffffffffffffffffffffffffffffffffff1602179055507ffc80377ca9c49cc11ae6982f390a42db976d5530af7c43889264b13fbbd7c57e81604051808273ffffffffffffffffffffffffffffffffffffffff1673ffffffffffffffffffffffffffffffffffffffff16815260200191505060405180910390a150565b611ba4611a85565b1515611baf57600080fd5b600560009054906101000a900460ff161515611c59576040517f08c379a00000000000000000000000000000000000000000000000000000000081526004018080602001828103825260288152602001807f53656c6620646573747275637420686173206e6f7420796574206265656e206981526020017f6e6974696174656400000000000000000000000000000000000000000000000081525060400191505060405180910390fd5b426224ea0060045401101515611cfd576040517f08c379a00000000000000000000000000000000000000000000000000000000081526004018080602001828103825260278152602001807f53656c662064657374727563742064656c617920686173206e6f74207965742081526020017f656c61707365640000000000000000000000000000000000000000000000000081525060400191505060405180910390fd5b7f8a09e1677ced846cb537dc2b172043bd05a1a81ad7e0033a7ef8ba762df990b7600560019054906101000a900473ffffffffffffffffffffffffffffffffffffffff16604051808273ffffffffffffffffffffffffffffffffffffffff1673ffffffffffffffffffffffffffffffffffffffff16815260200191505060405180910390a1600560019054906101000a900473ffffffffffffffffffffffffffffffffffffffff1673ffffffffffffffffffffffffffffffffffffffff16ff5b60608060608060608060606000600e80549050905060008090505b81811015611f45576000600d600083815260200190815260200160002060040154141515611f3857808982815181101515611e0f57fe5b9060200190602002018181525050600d6000828152602001908152602001600020600201548782815181101515611e4257fe5b9060200190602002018181525050600d6000828152602001908152602001600020600301548682815181101515611e7557fe5b9060200190602002018181525050600d6000828152602001908152602001600020600401548582815181101515611ea857fe5b9060200190602002018181525050600d600082815260200190815260200160002060050160009054906101000a900473ffffffffffffffffffffffffffffffffffffffff168482815181101515611efb57fe5b9060200190602002019073ffffffffffffffffffffffffffffffffffffffff16908173ffffffffffffffffffffffffffffffffffffffff16815250505b8080600101915050611dd8565b505090919293949596565b6000600260019054906101000a900473ffffffffffffffffffffffffffffffffffffffff1673ffffffffffffffffffffffffffffffffffffffff163373ffffffffffffffffffffffffffffffffffffffff16141515611feb5733600360006101000a81548173ffffffffffffffffffffffffffffffffffffffff021916908373ffffffffffffffffffffffffffffffffffffffff1602179055505b600260009054906101000a900460ff16151515612096576040517f08c379a000000000000000000000000000000000000000000000000000000000815260040180806020018281038252603c8152602001807f5468697320616374696f6e2063616e6e6f7420626520706572666f726d65642081526020017f7768696c652074686520636f6e7472616374206973207061757365640000000081525060400191505060405180910390fd5b600084111515612134576040517f08c379a00000000000000000000000000000000000000000000000000000000081526004018080602001828103825260218152602001807f596f752063616e74206465706f736974206e6f7468696e6720746f207472616481526020017f650000000000000000000000000000000000000000000000000000000000000081525060400191505060405180910390fd5b6000831115156121d2576040517f08c379a000000000000000000000000000000000000000000000000000000000815260040180806020018281038252602f8152602001807f4974277320686967686c7920646f75627466756c6c20796f752077616e74207481526020017f6865736520746f2062652066726565000000000000000000000000000000000081525060400191505060405180910390fd5b6121f18273ffffffffffffffffffffffffffffffffffffffff1661442b565b15156122b1576040517f08c379a00000000000000000000000000000000000000000000000000000000081526004018080602001828103825260518152602001807f54686520746f6b656e436f6e7472616374206164647265737320796f7520707281526020017f6f7669646564206973206e6f74206120636f6e74726163743f2044696420796f81526020017f75206d616b652061206d697374616b653f00000000000000000000000000000081525060600191505060405180910390fd5b8173ffffffffffffffffffffffffffffffffffffffff166323b872dd600360009054906101000a900473ffffffffffffffffffffffffffffffffffffffff1630876040518463ffffffff167c0100000000000000000000000000000000000000000000000000000000028152600401808473ffffffffffffffffffffffffffffffffffffffff1673ffffffffffffffffffffffffffffffffffffffff1681526020018373ffffffffffffffffffffffffffffffffffffffff1673ffffffffffffffffffffffffffffffffffffffff1681526020018281526020019350505050602060405180830381600087803b1580156123aa57600080fd5b505af11580156123be573d6000803e3d6000fd5b505050506040513d60208110156123d457600080fd5b810190808051906020019092919050505015156123f057600080fd5b6000600e805490509050600e819080600181540180825580915050906001820390600052602060002001600090919290919091505550600061243b858761443e90919063ffffffff16565b905060c060405190810160405280600360009054906101000a900473ffffffffffffffffffffffffffffffffffffffff1673ffffffffffffffffffffffffffffffffffffffff1681526020018881526020018781526020018681526020018281526020018573ffffffffffffffffffffffffffffffffffffffff16815250600d600084815260200190815260200160002060008201518160000160006101000a81548173ffffffffffffffffffffffffffffffffffffffff021916908373ffffffffffffffffffffffffffffffffffffffff160217905550602082015181600101908051906020019061252f929190615886565b5060408201518160020155606082015181600301556080820151816004015560a08201518160050160006101000a81548173ffffffffffffffffffffffffffffffffffffffff021916908373ffffffffffffffffffffffffffffffffffffffff160217905550905050600360009054906101000a900473ffffffffffffffffffffffffffffffffffffffff1673ffffffffffffffffffffffffffffffffffffffff167f32af79280bc52f79f91bee9d35846b2bb05c3b9683c4ae2ddc581cd822e066208784604051808381526020018281526020019250505060405180910390a28192505050949350505050565b3073ffffffffffffffffffffffffffffffffffffffff16316126736040805190810160405280600381526020017f55524c000000000000000000000000000000000000000000000000000000000081525061446d565b1115612732577f621c2856e3b87f81235f8ac8a22bbb40a0142961960710d00b2b6c380902b57e60405180806020018281038252604c8152602001807f4f7261636c697a6520717565727920776173204e4f542073656e742c20706c6581526020017f6173652061646420736f6d652045544820746f20636f76657220666f7220746881526020017f652071756572792066656521000000000000000000000000000000000000000081525060600191505060405180910390a1612885565b7f621c2856e3b87f81235f8ac8a22bbb40a0142961960710d00b2b6c380902b57e6040518080602001828103825260368152602001807f4f7261636c697a65207175657279207761732073656e742c207374616e64696e81526020017f6720627920666f722074686520616e737765722e2e2e0000000000000000000081525060400191505060405180910390a1612883603c6040805190810160405280600381526020017f55524c0000000000000000000000000000000000000000000000000000000000815250608060405190810160405280604e81526020017f6a736f6e2868747470733a2f2f6170692e6b72616b656e2e636f6d2f302f707581526020017f626c69632f5469636b65723f706169723d584554485a555344292e726573756c81526020017f742e584554485a5553442e632e30000000000000000000000000000000000000815250614857565b505b565b6224ea0081565b600e8181548110151561289d57fe5b906000526020600020016000915090505481565b600560009054906101000a900460ff1681565b600260019054906101000a900473ffffffffffffffffffffffffffffffffffffffff1673ffffffffffffffffffffffffffffffffffffffff163373ffffffffffffffffffffffffffffffffffffffff161415156129af576040517f08c379a00000000000000000000000000000000000000000000000000000000081526004018080602001828103825260258152602001807f4f6e6c79207468652070726f78792063616e2063616c6c20746869732066756e81526020017f6374696f6e00000000000000000000000000000000000000000000000000000081525060400191505060405180910390fd5b80600360006101000a81548173ffffffffffffffffffffffffffffffffffffffff021916908373ffffffffffffffffffffffffffffffffffffffff16021790555050565b6129fb611a85565b1515612a0657600080fd5b426004819055506001600560006101000a81548160ff0219169083151502179055507fcbd94ca75b8dc45c9d80c77e851670e78843c0d75180cb81db3e2158228fa9a66224ea006040518082815260200191505060405180910390a1565b600560019054906101000a900473ffffffffffffffffffffffffffffffffffffffff1681565b600260019054906101000a900473ffffffffffffffffffffffffffffffffffffffff1673ffffffffffffffffffffffffffffffffffffffff163373ffffffffffffffffffffffffffffffffffffffff16141515612b235733600360006101000a81548173ffffffffffffffffffffffffffffffffffffffff021916908373ffffffffffffffffffffffffffffffffffffffff1602179055505b600260009054906101000a900460ff16151515612bce576040517f08c379a000000000000000000000000000000000000000000000000000000000815260040180806020018281038252603c8152602001807f5468697320616374696f6e2063616e6e6f7420626520706572666f726d65642081526020017f7768696c652074686520636f6e7472616374206973207061757365640000000081525060400191505060405180910390fd5b612bd6615906565b600d600083815260200190815260200160002060c060405190810160405290816000820160009054906101000a900473ffffffffffffffffffffffffffffffffffffffff1673ffffffffffffffffffffffffffffffffffffffff1673ffffffffffffffffffffffffffffffffffffffff168152602001600182018054600181600116156101000203166002900480601f016020809104026020016040519081016040528092919081815260200182805460018160011615610100020316600290048015612ce45780601f10612cb957610100808354040283529160200191612ce4565b820191906000526020600020905b815481529060010190602001808311612cc757829003601f168201915b505050505081526020016002820154815260200160038201548152602001600482015481526020016005820160009054906101000a900473ffffffffffffffffffffffffffffffffffffffff1673ffffffffffffffffffffffffffffffffffffffff1673ffffffffffffffffffffffffffffffffffffffff16815250509050600360009054906101000a900473ffffffffffffffffffffffffffffffffffffffff1673ffffffffffffffffffffffffffffffffffffffff16816000015173ffffffffffffffffffffffffffffffffffffffff16141515612e52576040517f08c379a00000000000000000000000000000000000000000000000000000000081526004018080602001828103825260228152602001807f5468617473206e6f7420796f7572206465706f73697420746f2077697468647281526020017f617700000000000000000000000000000000000000000000000000000000000081525060400191505060405180910390fd5b612e5b82614e14565b600d6000838152602001908152602001600020600080820160006101000a81549073ffffffffffffffffffffffffffffffffffffffff0219169055600182016000612ea69190615969565b6002820160009055600382016000905560048201600090556005820160006101000a81549073ffffffffffffffffffffffffffffffffffffffff021916905550508060a0015173ffffffffffffffffffffffffffffffffffffffff1663a9059cbb826000015183604001516040518363ffffffff167c0100000000000000000000000000000000000000000000000000000000028152600401808373ffffffffffffffffffffffffffffffffffffffff1673ffffffffffffffffffffffffffffffffffffffff16815260200182815260200192505050602060405180830381600087803b158015612f9657600080fd5b505af1158015612faa573d6000803e3d6000fd5b505050506040513d6020811015612fc057600080fd5b81019080805190602001909291905050501515613091576040517f08c379a00000000000000000000000000000000000000000000000000000000081526004018080602001828103825260478152602001807f546865207472616e73666572206f662074686520455243323020546f6b656e7381526020017f206661696c65642e20436865636b2074686520455243323020546f6b656e206381526020017f6f6e74726163740000000000000000000000000000000000000000000000000081525060600191505060405180910390fd5b600360009054906101000a900473ffffffffffffffffffffffffffffffffffffffff1673ffffffffffffffffffffffffffffffffffffffff167fbf9b42469f79dc3c4922cddb37b9bd6321651ef18dbe8e48da0e427bf6d32815826040015184604051808381526020018281526020019250505060405180910390a25050565b6000600260019054906101000a900473ffffffffffffffffffffffffffffffffffffffff1673ffffffffffffffffffffffffffffffffffffffff163373ffffffffffffffffffffffffffffffffffffffff161415156131ac5733600360006101000a81548173ffffffffffffffffffffffffffffffffffffffff021916908373ffffffffffffffffffffffffffffffffffffffff1602179055505b7fa3699575549624b8d71fd446a6dc8370e031298b73d97676c9518039dfd6a5838260405180806020018381526020018281038252600d8152602001807f6c697374696e67494420617267000000000000000000000000000000000000008152506020019250505060405180910390a1613224615906565b600d600084815260200190815260200160002060c060405190810160405290816000820160009054906101000a900473ffffffffffffffffffffffffffffffffffffffff1673ffffffffffffffffffffffffffffffffffffffff1673ffffffffffffffffffffffffffffffffffffffff168152602001600182018054600181600116156101000203166002900480601f0160208091040260200160405190810160405280929190818152602001828054600181600116156101000203166002900480156133325780601f1061330757610100808354040283529160200191613332565b820191906000526020600020905b81548152906001019060200180831161331557829003601f168201915b505050505081526020016002820154815260200160038201548152602001600482015481526020016005820160009054906101000a900473ffffffffffffffffffffffffffffffffffffffff1673ffffffffffffffffffffffffffffffffffffffff1673ffffffffffffffffffffffffffffffffffffffff168152505090506000816040015114151515613454576040517f08c379a00000000000000000000000000000000000000000000000000000000081526004018080602001828103825260338152602001807f546865205472616465206c697374696e67494420796f7527766520726571756581526020017f7374656420646f6573206e6f742065786973740000000000000000000000000081525060400191505060405180910390fd5b7fa3699575549624b8d71fd446a6dc8370e031298b73d97676c9518039dfd6a58381608001516040518080602001838152602001828103825260108152602001807f74726164652e746f74616c5072696365000000000000000000000000000000008152506020019250505060405180910390a17f27a8767ed172b48d7cf6dbb25d2840c5fa91ef78fa6e05c13c82763d099f03ca604051808060200180602001838103835260138152602001807f63616c6c207570646174654574685072696365000000000000000000000000008152506020018381038252600081526020016020019250505060405180910390a16135fd6135ea600b8054600181600116156101000203166002900480601f0160208091040260200160405190810160405280929190818152602001828054600181600116156101000203166002900480156135e05780601f106135b5576101008083540402835291602001916135e0565b820191906000526020600020905b8154815290600101906020018083116135c357829003601f168201915b5050505050614f53565b826080015161443e90919063ffffffff16565b91507fa3699575549624b8d71fd446a6dc8370e031298b73d97676c9518039dfd6a583826040518080602001838152602001828103825260078152602001807f636f7374555344000000000000000000000000000000000000000000000000008152506020019250505060405180910390a150919050565b600260019054906101000a900473ffffffffffffffffffffffffffffffffffffffff1673ffffffffffffffffffffffffffffffffffffffff163373ffffffffffffffffffffffffffffffffffffffff1614151561370e5733600360006101000a81548173ffffffffffffffffffffffffffffffffffffffff021916908373ffffffffffffffffffffffffffffffffffffffff1602179055505b600260009054906101000a900460ff161515156137b9576040517f08c379a000000000000000000000000000000000000000000000000000000000815260040180806020018281038252603c8152602001807f5468697320616374696f6e2063616e6e6f7420626520706572666f726d65642081526020017f7768696c652074686520636f6e7472616374206973207061757365640000000081525060400191505060405180910390fd5b80600c60149054906101000a900460ff1615151561383f576040517f08c379a00000000000000000000000000000000000000000000000000000000081526004018080602001828103825260118152602001807f7265656e7472616e63794c6f636b65642100000000000000000000000000000081525060200191505060405180910390fd5b6001600c60146101000a81548160ff021916908315150217905550613862615906565b600d600084815260200190815260200160002060c060405190810160405290816000820160009054906101000a900473ffffffffffffffffffffffffffffffffffffffff1673ffffffffffffffffffffffffffffffffffffffff1673ffffffffffffffffffffffffffffffffffffffff168152602001600182018054600181600116156101000203166002900480601f0160208091040260200160405190810160405280929190818152602001828054600181600116156101000203166002900480156139705780601f1061394557610100808354040283529160200191613970565b820191906000526020600020905b81548152906001019060200180831161395357829003601f168201915b505050505081526020016002820154815260200160038201548152602001600482015481526020016005820160009054906101000a900473ffffffffffffffffffffffffffffffffffffffff1673ffffffffffffffffffffffffffffffffffffffff1673ffffffffffffffffffffffffffffffffffffffff168152505090506000816080015114151515613a92576040517f08c379a00000000000000000000000000000000000000000000000000000000081526004018080602001828103825260338152602001807f546865205472616465206c697374696e67494420796f7527766520726571756581526020017f7374656420646f6573206e6f742065786973740000000000000000000000000081525060400191505060405180910390fd5b80608001513410151515613b34576040517f08c379a000000000000000000000000000000000000000000000000000000000815260040180806020018281038252603c8152602001807f596f752068617665206e6f742073656e7420656e6f7567682045544820746f2081526020017f636f7665722074686520636f7374206f6620746869732074726164650000000081525060400191505060405180910390fd5b613b3d83614e14565b8060a0015173ffffffffffffffffffffffffffffffffffffffff1663a9059cbb600360009054906101000a900473ffffffffffffffffffffffffffffffffffffffff1683604001516040518363ffffffff167c0100000000000000000000000000000000000000000000000000000000028152600401808373ffffffffffffffffffffffffffffffffffffffff1673ffffffffffffffffffffffffffffffffffffffff16815260200182815260200192505050602060405180830381600087803b158015613c0a57600080fd5b505af1158015613c1e573d6000803e3d6000fd5b505050506040513d6020811015613c3457600080fd5b81019080805190602001909291905050501515613d05576040517f08c379a00000000000000000000000000000000000000000000000000000000081526004018080602001828103825260478152602001807f546865207472616e73666572206f662074686520455243323020546f6b656e7381526020017f206661696c65642e20436865636b2074686520455243323020546f6b656e206381526020017f6f6e74726163740000000000000000000000000000000000000000000000000081525060600191505060405180910390fd5b806000015173ffffffffffffffffffffffffffffffffffffffff166108fc82608001519081150290604051600060405180830381858888f19350505050158015613d53573d6000803e3d6000fd5b507fdb1741ffc6844b04a9284bb6337fb0ccfe543a493ef0ac8e725242201e93d4bd816080015182602001518360400151604051808060200185815260200180602001848152602001838103835260038152602001807f4554480000000000000000000000000000000000000000000000000000000000815250602001838103825285818151815260200191508051906020019080838360005b83811015613e08578082015181840152602081019050613ded565b50505050905090810190601f168015613e355780820380516001836020036101000a031916815260200191505b509550505050505060405180910390a1506000600c60146101000a81548160ff021916908315150217905550613e69615906565b600d600083815260200190815260200160002060c060405190810160405290816000820160009054906101000a900473ffffffffffffffffffffffffffffffffffffffff1673ffffffffffffffffffffffffffffffffffffffff1673ffffffffffffffffffffffffffffffffffffffff168152602001600182018054600181600116156101000203166002900480601f016020809104026020016040519081016040528092919081815260200182805460018160011615610100020316600290048015613f775780601f10613f4c57610100808354040283529160200191613f77565b820191906000526020600020905b815481529060010190602001808311613f5a57829003601f168201915b505050505081526020016002820154815260200160038201548152602001600482015481526020016005820160009054906101000a900473ffffffffffffffffffffffffffffffffffffffff1673ffffffffffffffffffffffffffffffffffffffff1673ffffffffffffffffffffffffffffffffffffffff168152505090506000816080015134039050600360009054906101000a900473ffffffffffffffffffffffffffffffffffffffff1673ffffffffffffffffffffffffffffffffffffffff166108fc829081150290604051600060405180830381858888f19350505050158015614069573d6000803e3d6000fd5b5050505050565b600260019054906101000a900473ffffffffffffffffffffffffffffffffffffffff1681565b61409e611a85565b15156140a957600080fd5b6140b281614f67565b50565b60008073ffffffffffffffffffffffffffffffffffffffff16600760009054906101000a900473ffffffffffffffffffffffffffffffffffffffff1673ffffffffffffffffffffffffffffffffffffffff16148061413d5750600061413b600760009054906101000a900473ffffffffffffffffffffffffffffffffffffffff16615061565b145b1561414e5761414c600061506c565b505b600760009054906101000a900473ffffffffffffffffffffffffffffffffffffffff1673ffffffffffffffffffffffffffffffffffffffff166338cc48316040518163ffffffff167c0100000000000000000000000000000000000000000000000000000000028152600401602060405180830381600087803b1580156141d457600080fd5b505af11580156141e8573d6000803e3d6000fd5b505050506040513d60208110156141fe57600080fd5b810190808051906020019092919050505073ffffffffffffffffffffffffffffffffffffffff16600660009054906101000a900473ffffffffffffffffffffffffffffffffffffffff1673ffffffffffffffffffffffffffffffffffffffff1614151561436757600760009054906101000a900473ffffffffffffffffffffffffffffffffffffffff1673ffffffffffffffffffffffffffffffffffffffff166338cc48316040518163ffffffff167c0100000000000000000000000000000000000000000000000000000000028152600401602060405180830381600087803b1580156142eb57600080fd5b505af11580156142ff573d6000803e3d6000fd5b505050506040513d602081101561431557600080fd5b8101908080519060200190929190505050600660006101000a81548173ffffffffffffffffffffffffffffffffffffffff021916908373ffffffffffffffffffffffffffffffffffffffff1602179055505b600660009054906101000a900473ffffffffffffffffffffffffffffffffffffffff1673ffffffffffffffffffffffffffffffffffffffff1663c281d19e6040518163ffffffff167c010000000000000000000000000000000000000000000000000000000002815260040160206040518083038186803b1580156143eb57600080fd5b505afa1580156143ff573d6000803e3d6000fd5b505050506040513d602081101561441557600080fd5b8101908080519060200190929190505050905090565b600080823b905060008111915050919050565b6000601260ff16600a0a61445b838561507d90919063ffffffff16565b81151561446457fe5b04905092915050565b60008073ffffffffffffffffffffffffffffffffffffffff16600760009054906101000a900473ffffffffffffffffffffffffffffffffffffffff1673ffffffffffffffffffffffffffffffffffffffff1614806144f5575060006144f3600760009054906101000a900473ffffffffffffffffffffffffffffffffffffffff16615061565b145b1561450657614504600061506c565b505b600760009054906101000a900473ffffffffffffffffffffffffffffffffffffffff1673ffffffffffffffffffffffffffffffffffffffff166338cc48316040518163ffffffff167c0100000000000000000000000000000000000000000000000000000000028152600401602060405180830381600087803b15801561458c57600080fd5b505af11580156145a0573d6000803e3d6000fd5b505050506040513d60208110156145b657600080fd5b810190808051906020019092919050505073ffffffffffffffffffffffffffffffffffffffff16600660009054906101000a900473ffffffffffffffffffffffffffffffffffffffff1673ffffffffffffffffffffffffffffffffffffffff1614151561471f57600760009054906101000a900473ffffffffffffffffffffffffffffffffffffffff1673ffffffffffffffffffffffffffffffffffffffff166338cc48316040518163ffffffff167c0100000000000000000000000000000000000000000000000000000000028152600401602060405180830381600087803b1580156146a357600080fd5b505af11580156146b7573d6000803e3d6000fd5b505050506040513d60208110156146cd57600080fd5b8101908080519060200190929190505050600660006101000a81548173ffffffffffffffffffffffffffffffffffffffff021916908373ffffffffffffffffffffffffffffffffffffffff1602179055505b600660009054906101000a900473ffffffffffffffffffffffffffffffffffffffff1673ffffffffffffffffffffffffffffffffffffffff1663524f3889836040518263ffffffff167c01000000000000000000000000000000000000000000000000000000000281526004018080602001828103825283818151815260200191508051906020019080838360005b838110156147c95780820151818401526020810190506147ae565b50505050905090810190601f1680156147f65780820380516001836020036101000a031916815260200191505b5092505050602060405180830381600087803b15801561481557600080fd5b505af1158015614829573d6000803e3d6000fd5b505050506040513d602081101561483f57600080fd5b81019080805190602001909291905050509050919050565b60008073ffffffffffffffffffffffffffffffffffffffff16600760009054906101000a900473ffffffffffffffffffffffffffffffffffffffff1673ffffffffffffffffffffffffffffffffffffffff1614806148df575060006148dd600760009054906101000a900473ffffffffffffffffffffffffffffffffffffffff16615061565b145b156148f0576148ee600061506c565b505b600760009054906101000a900473ffffffffffffffffffffffffffffffffffffffff1673ffffffffffffffffffffffffffffffffffffffff166338cc48316040518163ffffffff167c0100000000000000000000000000000000000000000000000000000000028152600401602060405180830381600087803b15801561497657600080fd5b505af115801561498a573d6000803e3d6000fd5b505050506040513d60208110156149a057600080fd5b810190808051906020019092919050505073ffffffffffffffffffffffffffffffffffffffff16600660009054906101000a900473ffffffffffffffffffffffffffffffffffffffff1673ffffffffffffffffffffffffffffffffffffffff16141515614b0957600760009054906101000a900473ffffffffffffffffffffffffffffffffffffffff1673ffffffffffffffffffffffffffffffffffffffff166338cc48316040518163ffffffff167c0100000000000000000000000000000000000000000000000000000000028152600401602060405180830381600087803b158015614a8d57600080fd5b505af1158015614aa1573d6000803e3d6000fd5b505050506040513d6020811015614ab757600080fd5b8101908080519060200190929190505050600660006101000a81548173ffffffffffffffffffffffffffffffffffffffff021916908373ffffffffffffffffffffffffffffffffffffffff1602179055505b6000600660009054906101000a900473ffffffffffffffffffffffffffffffffffffffff1673ffffffffffffffffffffffffffffffffffffffff1663524f3889856040518263ffffffff167c01000000000000000000000000000000000000000000000000000000000281526004018080602001828103825283818151815260200191508051906020019080838360005b83811015614bb5578082015181840152602081019050614b9a565b50505050905090810190601f168015614be25780820380516001836020036101000a031916815260200191505b5092505050602060405180830381600087803b158015614c0157600080fd5b505af1158015614c15573d6000803e3d6000fd5b505050506040513d6020811015614c2b57600080fd5b8101908080519060200190929190505050905062030d403a02670de0b6b3a764000001811115614c62576000600102915050614e0d565b600660009054906101000a900473ffffffffffffffffffffffffffffffffffffffff1673ffffffffffffffffffffffffffffffffffffffff1663adf59f99828787876040518563ffffffff167c0100000000000000000000000000000000000000000000000000000000028152600401808481526020018060200180602001838103835285818151815260200191508051906020019080838360005b83811015614d19578082015181840152602081019050614cfe565b50505050905090810190601f168015614d465780820380516001836020036101000a031916815260200191505b50838103825284818151815260200191508051906020019080838360005b83811015614d7f578082015181840152602081019050614d64565b50505050905090810190601f168015614dac5780820380516001836020036101000a031916815260200191505b50955050505050506020604051808303818588803b158015614dcd57600080fd5b505af1158015614de1573d6000803e3d6000fd5b50505050506040513d6020811015614df857600080fd5b81019080805190602001909291905050509150505b9392505050565b6020604051908101604052806000815250600d60008381526020019081526020016000206001019080519060200190614e4e929190615806565b506000600d600083815260200190815260200160002060000160006101000a81548173ffffffffffffffffffffffffffffffffffffffff021916908373ffffffffffffffffffffffffffffffffffffffff1602179055506000600d600083815260200190815260200160002060050160006101000a81548173ffffffffffffffffffffffffffffffffffffffff021916908373ffffffffffffffffffffffffffffffffffffffff1602179055506000600d6000838152602001908152602001600020600201819055506000600d600083815260200190815260200160002060030181905550600e81815481101515614f4257fe5b906000526020600020016000905550565b6000614f608260006150bb565b9050919050565b600073ffffffffffffffffffffffffffffffffffffffff168173ffffffffffffffffffffffffffffffffffffffff1614151515614fa357600080fd5b8073ffffffffffffffffffffffffffffffffffffffff166000809054906101000a900473ffffffffffffffffffffffffffffffffffffffff1673ffffffffffffffffffffffffffffffffffffffff167f8be0079c531659141344cd1fd0a4f28419497f9722a3daafe3b4186f6b6457e060405160405180910390a3806000806101000a81548173ffffffffffffffffffffffffffffffffffffffff021916908373ffffffffffffffffffffffffffffffffffffffff16021790555050565b6000813b9050919050565b6000615076615356565b9050919050565b60008083141561509057600090506150b5565b600082840290508284828115156150a357fe5b041415156150b057600080fd5b809150505b92915050565b600060608390506000809050600080905060008090505b835181101561533757603084828151811015156150eb57fe5b9060200101517f010000000000000000000000000000000000000000000000000000000000000090047f0100000000000000000000000000000000000000000000000000000000000000027f0100000000000000000000000000000000000000000000000000000000000000900460ff16101580156151e957506039848281518110151561517557fe5b9060200101517f010000000000000000000000000000000000000000000000000000000000000090047f0100000000000000000000000000000000000000000000000000000000000000027f0100000000000000000000000000000000000000000000000000000000000000900460ff1611155b1561529d57811561520c57600086141561520257615337565b8580600190039650505b600a830292506030848281518110151561522257fe5b9060200101517f010000000000000000000000000000000000000000000000000000000000000090047f0100000000000000000000000000000000000000000000000000000000000000027f0100000000000000000000000000000000000000000000000000000000000000900460ff16038301925061532a565b602e84828151811015156152ad57fe5b9060200101517f010000000000000000000000000000000000000000000000000000000000000090047f0100000000000000000000000000000000000000000000000000000000000000027f0100000000000000000000000000000000000000000000000000000000000000900460ff16141561532957600191505b5b80806001019150506150d2565b50600085111561534a5784600a0a820291505b81935050505092915050565b600080615376731d3b2638a7cc9f2cb3d298a3da7a90b67e5506ed615061565b111561541857731d3b2638a7cc9f2cb3d298a3da7a90b67e5506ed600760006101000a81548173ffffffffffffffffffffffffffffffffffffffff021916908373ffffffffffffffffffffffffffffffffffffffff16021790555061540f6040805190810160405280600b81526020017f6574685f6d61696e6e65740000000000000000000000000000000000000000008152506157ec565b600190506157e9565b600061543773c03a2615d5efaf5f49f60b7bb6583eaec212fdf1615061565b11156154d95773c03a2615d5efaf5f49f60b7bb6583eaec212fdf1600760006101000a81548173ffffffffffffffffffffffffffffffffffffffff021916908373ffffffffffffffffffffffffffffffffffffffff1602179055506154d06040805190810160405280600c81526020017f6574685f726f707374656e3300000000000000000000000000000000000000008152506157ec565b600190506157e9565b60006154f873b7a07bcf2ba2f2703b24c0691b5278999c59ac7e615061565b111561559a5773b7a07bcf2ba2f2703b24c0691b5278999c59ac7e600760006101000a81548173ffffffffffffffffffffffffffffffffffffffff021916908373ffffffffffffffffffffffffffffffffffffffff1602179055506155916040805190810160405280600981526020017f6574685f6b6f76616e00000000000000000000000000000000000000000000008152506157ec565b600190506157e9565b60006155b973146500cfd35b22e4a392fe0adc06de1a1368ed48615061565b111561565b5773146500cfd35b22e4a392fe0adc06de1a1368ed48600760006101000a81548173ffffffffffffffffffffffffffffffffffffffff021916908373ffffffffffffffffffffffffffffffffffffffff1602179055506156526040805190810160405280600b81526020017f6574685f72696e6b6562790000000000000000000000000000000000000000008152506157ec565b600190506157e9565b600061567a736f485c8bf6fc43ea212e93bbf8ce046c7f1cb475615061565b11156156de57736f485c8bf6fc43ea212e93bbf8ce046c7f1cb475600760006101000a81548173ffffffffffffffffffffffffffffffffffffffff021916908373ffffffffffffffffffffffffffffffffffffffff160217905550600190506157e9565b60006156fd7320e12a1f859b3feae5fb2a0a32c18f5a65555bbf615061565b1115615761577320e12a1f859b3feae5fb2a0a32c18f5a65555bbf600760006101000a81548173ffffffffffffffffffffffffffffffffffffffff021916908373ffffffffffffffffffffffffffffffffffffffff160217905550600190506157e9565b60006157807351efaf4c8b3c9afbd5ab9f4bbc82784ab6ef8faa615061565b11156157e4577351efaf4c8b3c9afbd5ab9f4bbc82784ab6ef8faa600760006101000a81548173ffffffffffffffffffffffffffffffffffffffff021916908373ffffffffffffffffffffffffffffffffffffffff160217905550600190506157e9565b600090505b90565b8060089080519060200190615802929190615806565b5050565b828054600181600116156101000203166002900490600052602060002090601f016020900481019282601f1061584757805160ff1916838001178555615875565b82800160010185558215615875579182015b82811115615874578251825591602001919060010190615859565b5b50905061588291906159b1565b5090565b828054600181600116156101000203166002900490600052602060002090601f016020900481019282601f106158c757805160ff19168380011785556158f5565b828001600101855582156158f5579182015b828111156158f45782518255916020019190600101906158d9565b5b50905061590291906159b1565b5090565b60c060405190810160405280600073ffffffffffffffffffffffffffffffffffffffff16815260200160608152602001600081526020016000815260200160008152602001600073ffffffffffffffffffffffffffffffffffffffff1681525090565b50805460018160011615610100020316600290046000825580601f1061598f57506159ae565b601f0160209004906000526020600020908101906159ad91906159b1565b5b50565b6159d391905b808211156159cf5760008160009055506001016159b7565b5090565b9056fea165627a7a7230582092f14b5ae1f78ed8e0a69ba3d7d2e4e7d24c902568f57155dd0c09f3ae024e740029",
  "source": "pragma solidity ^0.5.0;\n\nimport \"openzeppelin-solidity/contracts/math/SafeMath.sol\";\nimport \"openzeppelin-solidity/contracts/token/ERC20/IERC20.sol\";\nimport \"./SafeDecimalMath.sol\";\nimport \"./Address.sol\";\nimport \"./Mortal.sol\";\nimport \"./Pausable.sol\";\nimport \"./Proxyable.sol\";\nimport \"./TokenExchangeState.sol\";\nimport \"./ETHPriceTicker.sol\";\n\n/**\n * @title A simple decentralized Peer 2 Peer Token exchanger\n * @notice Allows people to list their alt coins to sell for ETH\n * Buyer choose a listing and send ETH to the contract which will \n * send the seller the ETH and the buyer the tokens\n */\ncontract TokenExchange is Pausable, Proxyable, Mortal, ETHPriceTicker {\n    using SafeMath for uint;\n    using SafeDecimalMath for uint;\n\n    /* Add our isContract() utility function to the Address types */\n    using Address for address;\n    using Address for address payable;\n\n    /* Stores trade listings from sellers. */\n    struct TradeListing {\n        // The user that made the token deposit who wants to sell their tokens for ETH\n        address payable seller;\n        // The token symbol\n        string symbol;\n        // The amount that they deposited for trading\n        uint amount;\n        // The ETH rate the person wants to sell their token for\n        uint ethRate;\n        // The total cost in ETH\n        uint totalPrice;\n        // The contract address of the token being sold\n        address tokenContractAddress;\n    }\n\n    //-----------------------------------------------------------------\n    // Public Variables\n    //-----------------------------------------------------------------\n\n    /* Where the state is stored so we can pause and upgrade this contract */\n    TokenExchangeState public externalState;\n\n    /* Reentrancy Preventer bool for noReentrancy modifer */\n    bool reentrancyLock;\n\n    /* Mapping all TradeListings by ID */\n    mapping(uint => TradeListing) public tradeListings;\n\n    /* Shadow array of IDs */\n    uint[] public tradeID;\n    \n    /**\n     * @dev Constructor\n     * @param _selfDestructBeneficiary The account where all the funds go when this contrqct is killed. \n     * @param _proxy The Proxy contract address.\n     * @param _externalState The  contract we'll interact with for balances and state.\n     * @param _priceETHUSD The current price of ETH in USD, expressed in UNIT.\n     */\n    constructor(address payable _selfDestructBeneficiary,\n                address payable _proxy, \n                TokenExchangeState _externalState,\n                string memory _priceETHUSD)\n        Proxyable(_proxy)\n        Mortal(_selfDestructBeneficiary)\n        Pausable()\n        ETHPriceTicker()\n        public\n    {\n        externalState = _externalState;\n        // Seed the ETH price on setup. Awaiting the Ocraclize to update\n        priceETHUSD = _priceETHUSD;  \n    }\n\n    //-----------------------------------------------------------------\n    // Public Functions\n    //-----------------------------------------------------------------\n \n    /**\n     * @notice Get the total number of tokens for he DApp to iterate\n     */\n    function getTradeListingCount() \n        public \n        view\n        returns(uint) \n    {\n        return tradeID.length;\n    }\n\n    /**\n     * @notice Return the list of Trades\n     * @dev must return seperate arrays with the datatypes and the index is the row number\n     */\n    function getTradeList() \n        public \n        view\n        returns(\n            uint[] memory ids, \n            bytes4[] memory symbols, \n            uint[] memory amounts, \n            uint[] memory ethRates, \n            uint[] memory totalPrices,\n            address[] memory contracts,\n            address[] memory seller) \n    {\n        uint tradeCount = tradeID.length;\n        for (uint i = 0; i < tradeCount; i++) {\n            if (tradeListings[i].totalPrice != 0) {\n                ids[i] = i; \n                //symbols[i] = bytes4(tradeListings[i].symbol);      \n                amounts[i] = tradeListings[i].amount;      \n                ethRates[i] = tradeListings[i].ethRate;      \n                totalPrices[i] = tradeListings[i].totalPrice; \n                contracts[i] = tradeListings[i].tokenContractAddress;  \n            }   \n        }\n    }\n\n    /**\n     * @notice Return a single Trade\n     */\n    function getTrade(uint id) \n        public \n        view \n    returns(string memory symbol, uint amount, uint ethRate, uint totalPrice, address tokenContractAddress, address seller) {\n        symbol = tradeListings[id].symbol; \n        amount = tradeListings[id].amount;\n        ethRate = tradeListings[id].ethRate;\n        totalPrice = tradeListings[id].totalPrice;\n        tokenContractAddress = tradeListings[id].tokenContractAddress;\n        seller = tradeListings[id].seller;\n    }\n\n    //-----------------------------------------------------------------\n    // Public Mutative Functions\n    //-----------------------------------------------------------------\n\n    /**\n     * @notice createTradeListing: Allows users to deposit tokens via the ERC20 approve / transferFrom workflow\n     * @param symbol The ERC20 token symbol\n     * @param amount The amount of tokens you wish to deposit (must have been approved first)\n     * @param ethRate The price of ETH the seller wants per token\n     * @param tokenContract The address of the token contract\n     */\n    function createTradeListing(\n            string memory symbol,  \n            uint amount, \n            uint ethRate,\n            address tokenContract)\n        optionalProxy\n        notPaused\n        public\n        returns (uint)\n    {\n        // Check amount must be something to trade\n        require(amount > 0, \"You cant deposit nothing to trade\");\n\n        // Check tokens have a price\n        require(ethRate > 0, \"It's highly doubtfull you want these to be free\");\n\n        // Check the tokenContract address provided is a contract or the transfer is bogus\n        require(tokenContract.isContract(), \"The tokenContract address you provided is not a contract? Did you make a mistake?\");\n\n        // Grab the seller tokens from its contract. Seller must call approve() first\n        require(IERC20(tokenContract).transferFrom(messageSender, address(this), amount));\n\n        // Get a unique ID. Just using a basic shadow array to use uints as the IDs so \n        // we can simply iterate the mapping for the list of trades. There are better ways \n        // to do this beyond the scope of this project requirements. \n        uint newTradeID = tradeID.length; \n        tradeID.push(newTradeID);\n\n        // Create a tradeListing\n        uint totalPrice = amount.multiplyDecimal(ethRate);\n        tradeListings[newTradeID] = TradeListing({ \n            seller: messageSender, \n            symbol: symbol,\n            amount: amount, \n            ethRate: ethRate, \n            totalPrice: totalPrice,\n            tokenContractAddress: tokenContract});\n        \n        // Tell the DApps we have a new trade listed\n        emit TradeListingDeposit(messageSender, amount, newTradeID);\n\n        return newTradeID;\n    }\n\n    /**\n     * @notice Allow sellers to withdraw their tokens and delete their trade listing\n     * @param listingID ID of the trade listing\n     */\n    function withdrawMyDepositedTokens(uint listingID)\n        optionalProxy\n        notPaused\n        public\n    {\n        // Find the TokenDeposit by depositID in our mapping \n        TradeListing memory trade = tradeListings[listingID];\n\n        // Make sure we're trying to withdraw our listing\n        require(trade.seller == messageSender, \"Thats not your deposit to withdraw\");\n\n        // Remove the trade listing from our storage\n        removeTradeListing(listingID);\n        delete tradeListings[listingID];\n\n        // Send their tokens back to them\n        require(IERC20(trade.tokenContractAddress).transfer(trade.seller, trade.amount), \"The transfer of the ERC20 Tokens failed. Check the ERC20 Token contract\");\n\n        // Tell the DApps there was a withdrawal\n        emit TradeListingWithdrawal(messageSender, trade.amount, listingID);\n    }\n\n    /**\n     * @notice Buy tokens from trade listing with ETH\n     * @param listingID ID of the trade listing\n     */\n    function exchangeEtherForTokens(\n            uint listingID)\n        optionalProxy\n        notPaused\n        refund(listingID)\n        noReentrancy\n        payable\n        public\n    {\n        // Find the TokenDeposit by depositID in our mapping \n        TradeListing memory trade = tradeListings[listingID];\n\n        // Revert if its not found\n        require(trade.totalPrice != 0, \"The Trade listingID you've requested does not exist\");\n\n        // Make sure the buyer has sent enough ETH to cover the trade\n        require(msg.value >= trade.totalPrice, \"You have not sent enough ETH to cover the cost of this trade\"); \n\n        // Delete the deposit\n        removeTradeListing(listingID); // @dev to prevent we have a noReentrancy modifier\n\n        // Send the ERC20 tokens to the buyer\n        require(IERC20(trade.tokenContractAddress).transfer(messageSender, trade.amount), \"The transfer of the ERC20 Tokens failed. Check the ERC20 Token contract\");\n\n        // Send the ETH to the seller\n        trade.seller.transfer(trade.totalPrice); // dont send the msg.value as we may need to refund some to the buyer\n\n        // Tell the DApps there was an Exchange\n        emit Exchange(\"ETH\", trade.totalPrice, trade.symbol, trade.amount);\n    }\n\n    function getTradeCostPriceInUSD(uint listingID)   \n        optionalProxy\n        public \n        returns (uint costUSD)\n    {\n        emit Loguint(\"listingID arg\", listingID);\n        // Find the TokenDeposit by depositID in our mapping \n        TradeListing memory trade = tradeListings[listingID];\n\n        // Revert if its not found\n        require(trade.amount != 0, \"The Trade listingID you've requested does not exist\");\n\n        emit Loguint(\"trade.totalPrice\", trade.totalPrice);\n\n        emit LogString(\"call updateEthPrice\",\"\");\n        // Get the oracle to get the latest price\n        //updateEthPrice();\n\n        // Return the price in USD\n        costUSD = trade.totalPrice.multiplyDecimal(parseInt(priceETHUSD));\n        \n        emit Loguint(\"costUSD\", costUSD);\n    }\n\n    function callOracle()   \n        optionalProxy\n        public \n        returns (bool)\n    {\n        update();\n        emit LogString(\"updateEthPrice called\", \"\");\n        return true;\n    }\n\n    /**\n     * @notice Fallback function - Protect users from sending ETH here by accident\n     */\n    function() \n        optionalProxy\n        external {\n        revert();\n    }\n\n    //-----------------------------------------------------------------\n    // Internal Functions\n    //-----------------------------------------------------------------\n\n    function removeTradeListing(uint listingID) internal {\n        // Remove struct from mapping\n        // delete mapping[key] doesnt actually delete the struct it just clears out all the values\n        //delete tradeListings[listingID]; was causing VM error and reverting\n\n        // Clear struct values in mapping but the one reverting the EVM\n        tradeListings[listingID].symbol = '';\n        tradeListings[listingID].seller = address(0);\n        tradeListings[listingID].tokenContractAddress = address(0);\n        tradeListings[listingID].amount = 0;\n        tradeListings[listingID].ethRate = 0;\n        //tradeListings[listingID].totalPrice = 0; // @dev TODO the EVM reverts if I attempt to change this value. Why?\n\n        // Remove ID from array so its an empty spot\n        delete tradeID[listingID];\n    }\n\n    //-----------------------------------------------------------------\n    // Modifiers\n    //-----------------------------------------------------------------\n\n    /**\n     * @notice Refund the buyer any extra ETH they sent\n     */\n    modifier refund(uint listingID) {\n        //refund them after pay for item (why it is before, _ checks for logic before func)\n        _;\n        TradeListing memory trade = tradeListings[listingID];\n        uint amountToRefund = msg.value - trade.totalPrice;\n        messageSender.transfer(amountToRefund);\n    }\n\n    /** \n    * @notice Modifier to insure that functions cannot be reentered \n    * during execution. Note there is only one global \"locked\" var, so \n    * there is a potential to be locked out of all functions that use \n    * the modifier at the same time.\n    */ \n    modifier noReentrancy() {  \n        require(!reentrancyLock, \"reentrancyLocked!\");\n        reentrancyLock = true;\n        _;\n        reentrancyLock = false;\n    }\n\n    //-----------------------------------------------------------------\n    // Events\n    //-----------------------------------------------------------------\n    \n    /**\n     * @notice emit when a seller has successfully deposited tokens and created a trade listing \n     */\n    event TradeListingDeposit(address indexed seller, uint amount, uint tradeID);\n   \n    /**\n     * @notice emit when a buyer has successfully bought a sellers tokens with ETH\n     */\n    event Exchange(string fromSymbol, uint fromAmount, string toSymbol, uint toAmount);\n    \n    /**\n     * @notice emit when a seller has successfuly withdrawn their tokens and removes the trade listing\n     */\n    event TradeListingWithdrawal(address indexed seller, uint amount, uint tradeID);\n    \n\n    //-----------------------------------------------------------------\n    // Events Debugging  \n    //-----------------------------------------------------------------\n    /**\n     * @dev Just used for debugging during dev - delete for release\n     */\n    event LogString(string description, string value);\n    event Loguint(string description, uint value);\n    event LogAddress(string description, address value);\n}",
  "sourcePath": "/Users/clintonennis/Playground/final-project-hav-noms/contracts/TokenExchange.sol",
  "compiler": {
    "name": "solc",
    "version": "0.5.0+commit.1d4f565a.Emscripten.clang"
  },
  "schemaVersion": "3.0.1",
  "updatedAt": "2019-01-26T13:38:10.082Z",
  "devdoc": {
    "methods": {
      "constructor": {
        "details": "Constructor",
        "params": {
          "_externalState": "The  contract we'll interact with for balances and state.",
          "_priceETHUSD": "The current price of ETH in USD, expressed in UNIT.",
          "_proxy": "The Proxy contract address.",
          "_selfDestructBeneficiary": "The account where all the funds go when this contrqct is killed. "
        }
      },
      "createTradeListing(string,uint256,uint256,address)": {
        "params": {
          "amount": "The amount of tokens you wish to deposit (must have been approved first)",
          "ethRate": "The price of ETH the seller wants per token",
          "symbol": "The ERC20 token symbol",
          "tokenContract": "The address of the token contract"
        }
      },
      "exchangeEtherForTokens(uint256)": {
        "params": {
          "listingID": "ID of the trade listing"
        }
      },
      "getTradeList()": {
        "details": "must return seperate arrays with the datatypes and the index is the row number"
      },
      "initiateSelfDestruct()": {
        "details": "Only the contract owner may call this."
      },
      "isOwner()": {
        "return": "true if `msg.sender` is the owner of the contract."
      },
      "owner()": {
        "return": "the address of the owner."
      },
      "renounceOwnership()": {
        "details": "Allows the current owner to relinquish control of the contract."
      },
      "selfDestruct()": {
        "details": "Only the contract owner may call this."
      },
      "setMessageSender(address)": {
        "details": "We must get the msg.sender from the proxy otherwise the sender will be the Proxy",
        "params": {
          "sender": "The msg.sender or the caller of the function"
        }
      },
      "setPaused(bool)": {
        "details": "Only the contract owner may call this."
      },
      "setProxy(address)": {
        "params": {
          "_proxy": "The proxy this contract exists behind"
        }
      },
      "setSelfDestructBeneficiary(address)": {
        "details": "Only the contract owner may call this. The provided beneficiary must be non-null.",
        "params": {
          "_beneficiary": "The address to pay any eth contained in this contract to upon self-destruction."
        }
      },
      "terminateSelfDestruct()": {
        "details": "Only the contract owner may call this."
      },
      "transferOwnership(address)": {
        "details": "Allows the current owner to transfer control of the contract to a newOwner.",
        "params": {
          "newOwner": "The address to transfer ownership to."
        }
      },
      "withdrawMyDepositedTokens(uint256)": {
        "params": {
          "listingID": "ID of the trade listing"
        }
      }
    },
    "title": "A simple decentralized Peer 2 Peer Token exchanger"
  },
  "userdoc": {
    "methods": {
      "createTradeListing(string,uint256,uint256,address)": {
        "notice": "createTradeListing: Allows users to deposit tokens via the ERC20 approve / transferFrom workflow"
      },
      "exchangeEtherForTokens(uint256)": {
        "notice": "Buy tokens from trade listing with ETH"
      },
      "getTrade(uint256)": {
        "notice": "Return a single Trade"
      },
      "getTradeList()": {
        "notice": "Return the list of Trades"
      },
      "getTradeListingCount()": {
        "notice": "Get the total number of tokens for he DApp to iterate"
      },
      "initiateSelfDestruct()": {
        "notice": "Begin the self-destruction counter of this contract. Once the delay has elapsed, the contract may be self-destructed."
      },
      "renounceOwnership()": {
        "notice": "Renouncing to ownership will leave the contract without an owner. It will not be possible to call the functions with the `onlyOwner` modifier anymore."
      },
      "selfDestruct()": {
        "notice": "If the self-destruction delay has elapsed, destroy this contract and remit any ether it owns to the beneficiary address."
      },
      "setPaused(bool)": {
        "notice": "Change the paused state of the contract"
      },
      "setSelfDestructBeneficiary(address)": {
        "notice": "Set the beneficiary address of this contract."
      },
      "terminateSelfDestruct()": {
        "notice": "Terminate and reset the self-destruction timer."
      },
      "withdrawMyDepositedTokens(uint256)": {
        "notice": "Allow sellers to withdraw their tokens and delete their trade listing"
      }
    },
    "notice": "Allows people to list their alt coins to sell for ETH Buyer choose a listing and send ETH to the contract which will  send the seller the ETH and the buyer the tokens"
  }
}