{
  "contractName": "TokenExchangeState",
  "abi": [
    {
      "constant": true,
      "inputs": [
        {
          "name": "record",
          "type": "bytes32"
        }
      ],
      "name": "getBytes32Value",
      "outputs": [
        {
          "name": "",
          "type": "bytes32"
        }
      ],
      "payable": false,
      "stateMutability": "view",
      "type": "function",
      "signature": "0x025ec81a"
    },
    {
      "constant": false,
      "inputs": [
        {
          "name": "record",
          "type": "bytes32"
        }
      ],
      "name": "deleteAddressValue",
      "outputs": [],
      "payable": false,
      "stateMutability": "nonpayable",
      "type": "function",
      "signature": "0x043106c0"
    },
    {
      "constant": false,
      "inputs": [
        {
          "name": "record",
          "type": "bytes32"
        }
      ],
      "name": "deleteBytesValue",
      "outputs": [],
      "payable": false,
      "stateMutability": "nonpayable",
      "type": "function",
      "signature": "0x0c55d925"
    },
    {
      "constant": false,
      "inputs": [
        {
          "name": "record",
          "type": "bytes32"
        }
      ],
      "name": "deleteBytes32Value",
      "outputs": [],
      "payable": false,
      "stateMutability": "nonpayable",
      "type": "function",
      "signature": "0x124f2418"
    },
    {
      "constant": true,
      "inputs": [
        {
          "name": "record",
          "type": "bytes32"
        }
      ],
      "name": "getBooleanValue",
      "outputs": [
        {
          "name": "",
          "type": "bool"
        }
      ],
      "payable": false,
      "stateMutability": "view",
      "type": "function",
      "signature": "0x17e7dd22"
    },
    {
      "constant": false,
      "inputs": [
        {
          "name": "record",
          "type": "bytes32"
        },
        {
          "name": "value",
          "type": "bytes32"
        }
      ],
      "name": "setBytes32Value",
      "outputs": [],
      "payable": false,
      "stateMutability": "nonpayable",
      "type": "function",
      "signature": "0x25cf512d"
    },
    {
      "constant": false,
      "inputs": [
        {
          "name": "record",
          "type": "bytes32"
        },
        {
          "name": "value",
          "type": "uint256"
        }
      ],
      "name": "setUIntValue",
      "outputs": [],
      "payable": false,
      "stateMutability": "nonpayable",
      "type": "function",
      "signature": "0x3562fd20"
    },
    {
      "constant": false,
      "inputs": [
        {
          "name": "record",
          "type": "bytes32"
        }
      ],
      "name": "deleteBooleanValue",
      "outputs": [],
      "payable": false,
      "stateMutability": "nonpayable",
      "type": "function",
      "signature": "0x3cc1635c"
    },
    {
      "constant": false,
      "inputs": [
        {
          "name": "record",
          "type": "bytes32"
        },
        {
          "name": "value",
          "type": "bool"
        }
      ],
      "name": "setBooleanValue",
      "outputs": [],
      "payable": false,
      "stateMutability": "nonpayable",
      "type": "function",
      "signature": "0x3eba9ed2"
    },
    {
      "constant": true,
      "inputs": [
        {
          "name": "record",
          "type": "bytes32"
        }
      ],
      "name": "getBytesValue",
      "outputs": [
        {
          "name": "",
          "type": "bytes"
        }
      ],
      "payable": false,
      "stateMutability": "view",
      "type": "function",
      "signature": "0x44bfa56e"
    },
    {
      "constant": true,
      "inputs": [
        {
          "name": "record",
          "type": "bytes32"
        }
      ],
      "name": "getAddressValue",
      "outputs": [
        {
          "name": "",
          "type": "address"
        }
      ],
      "payable": false,
      "stateMutability": "view",
      "type": "function",
      "signature": "0x4c77e5ba"
    },
    {
      "constant": false,
      "inputs": [
        {
          "name": "_associatedContract",
          "type": "address"
        }
      ],
      "name": "setAssociatedContract",
      "outputs": [],
      "payable": false,
      "stateMutability": "nonpayable",
      "type": "function",
      "signature": "0x52f445ca"
    },
    {
      "constant": false,
      "inputs": [
        {
          "name": "record",
          "type": "bytes32"
        },
        {
          "name": "value",
          "type": "address"
        }
      ],
      "name": "setAddressValue",
      "outputs": [],
      "payable": false,
      "stateMutability": "nonpayable",
      "type": "function",
      "signature": "0x5a2bf25a"
    },
    {
      "constant": true,
      "inputs": [
        {
          "name": "",
          "type": "bytes32"
        }
      ],
      "name": "UIntStorage",
      "outputs": [
        {
          "name": "",
          "type": "uint256"
        }
      ],
      "payable": false,
      "stateMutability": "view",
      "type": "function",
      "signature": "0x602162bf"
    },
    {
      "constant": false,
      "inputs": [],
      "name": "renounceOwnership",
      "outputs": [],
      "payable": false,
      "stateMutability": "nonpayable",
      "type": "function",
      "signature": "0x715018a6"
    },
    {
      "constant": false,
      "inputs": [
        {
          "name": "record",
          "type": "bytes32"
        }
      ],
      "name": "deleteIntValue",
      "outputs": [],
      "payable": false,
      "stateMutability": "nonpayable",
      "type": "function",
      "signature": "0x8267a9ee"
    },
    {
      "constant": true,
      "inputs": [],
      "name": "owner",
      "outputs": [
        {
          "name": "",
          "type": "address"
        }
      ],
      "payable": false,
      "stateMutability": "view",
      "type": "function",
      "signature": "0x8da5cb5b"
    },
    {
      "constant": true,
      "inputs": [],
      "name": "isOwner",
      "outputs": [
        {
          "name": "",
          "type": "bool"
        }
      ],
      "payable": false,
      "stateMutability": "view",
      "type": "function",
      "signature": "0x8f32d59b"
    },
    {
      "constant": true,
      "inputs": [
        {
          "name": "record",
          "type": "bytes32"
        }
      ],
      "name": "getIntValue",
      "outputs": [
        {
          "name": "",
          "type": "int256"
        }
      ],
      "payable": false,
      "stateMutability": "view",
      "type": "function",
      "signature": "0x9007127b"
    },
    {
      "constant": false,
      "inputs": [
        {
          "name": "record",
          "type": "bytes32"
        }
      ],
      "name": "deleteUIntValue",
      "outputs": [],
      "payable": false,
      "stateMutability": "nonpayable",
      "type": "function",
      "signature": "0x93fe4248"
    },
    {
      "constant": true,
      "inputs": [
        {
          "name": "record",
          "type": "bytes32"
        }
      ],
      "name": "getStringValue",
      "outputs": [
        {
          "name": "",
          "type": "string"
        }
      ],
      "payable": false,
      "stateMutability": "view",
      "type": "function",
      "signature": "0xa209a29c"
    },
    {
      "constant": false,
      "inputs": [
        {
          "name": "record",
          "type": "bytes32"
        },
        {
          "name": "value",
          "type": "int256"
        }
      ],
      "name": "setIntValue",
      "outputs": [],
      "payable": false,
      "stateMutability": "nonpayable",
      "type": "function",
      "signature": "0xa77aa49e"
    },
    {
      "constant": true,
      "inputs": [],
      "name": "associatedContract",
      "outputs": [
        {
          "name": "",
          "type": "address"
        }
      ],
      "payable": false,
      "stateMutability": "view",
      "type": "function",
      "signature": "0xaefc4ccb"
    },
    {
      "constant": false,
      "inputs": [
        {
          "name": "record",
          "type": "bytes32"
        }
      ],
      "name": "deleteStringValue",
      "outputs": [],
      "payable": false,
      "stateMutability": "nonpayable",
      "type": "function",
      "signature": "0xba69fcaa"
    },
    {
      "constant": true,
      "inputs": [
        {
          "name": "record",
          "type": "bytes32"
        }
      ],
      "name": "getUIntValue",
      "outputs": [
        {
          "name": "",
          "type": "uint256"
        }
      ],
      "payable": false,
      "stateMutability": "view",
      "type": "function",
      "signature": "0xbdc963d8"
    },
    {
      "constant": false,
      "inputs": [
        {
          "name": "record",
          "type": "bytes32"
        },
        {
          "name": "value",
          "type": "bytes"
        }
      ],
      "name": "setBytesValue",
      "outputs": [],
      "payable": false,
      "stateMutability": "nonpayable",
      "type": "function",
      "signature": "0xc9a52d2c"
    },
    {
      "constant": false,
      "inputs": [
        {
          "name": "newOwner",
          "type": "address"
        }
      ],
      "name": "transferOwnership",
      "outputs": [],
      "payable": false,
      "stateMutability": "nonpayable",
      "type": "function",
      "signature": "0xf2fde38b"
    },
    {
      "constant": false,
      "inputs": [
        {
          "name": "record",
          "type": "bytes32"
        },
        {
          "name": "value",
          "type": "string"
        }
      ],
      "name": "setStringValue",
      "outputs": [],
      "payable": false,
      "stateMutability": "nonpayable",
      "type": "function",
      "signature": "0xf5866066"
    },
    {
      "inputs": [
        {
          "name": "_associatedContract",
          "type": "address"
        }
      ],
      "payable": false,
      "stateMutability": "nonpayable",
      "type": "constructor",
      "signature": "constructor"
    },
    {
      "anonymous": false,
      "inputs": [
        {
          "indexed": false,
          "name": "associatedContract",
          "type": "address"
        }
      ],
      "name": "AssociatedContractUpdated",
      "type": "event",
      "signature": "0x73f20cff579e8a4086fa607db83867595f1b6a798e718c0bfa0b94a404128e03"
    },
    {
      "anonymous": false,
      "inputs": [
        {
          "indexed": true,
          "name": "previousOwner",
          "type": "address"
        },
        {
          "indexed": true,
          "name": "newOwner",
          "type": "address"
        }
      ],
      "name": "OwnershipTransferred",
      "type": "event",
      "signature": "0x8be0079c531659141344cd1fd0a4f28419497f9722a3daafe3b4186f6b6457e0"
    }
  ],
  "bytecode": "0x608060405234801561001057600080fd5b506040516020806122b88339810180604052602081101561003057600080fd5b810190808051906020019092919050505080336000806101000a81548173ffffffffffffffffffffffffffffffffffffffff021916908373ffffffffffffffffffffffffffffffffffffffff1602179055506000809054906101000a900473ffffffffffffffffffffffffffffffffffffffff1673ffffffffffffffffffffffffffffffffffffffff16600073ffffffffffffffffffffffffffffffffffffffff167f8be0079c531659141344cd1fd0a4f28419497f9722a3daafe3b4186f6b6457e060405160405180910390a380600160006101000a81548173ffffffffffffffffffffffffffffffffffffffff021916908373ffffffffffffffffffffffffffffffffffffffff1602179055507f73f20cff579e8a4086fa607db83867595f1b6a798e718c0bfa0b94a404128e0381604051808273ffffffffffffffffffffffffffffffffffffffff1673ffffffffffffffffffffffffffffffffffffffff16815260200191505060405180910390a15050612105806101b36000396000f3fe60806040526004361061016a576000357c0100000000000000000000000000000000000000000000000000000000900463ffffffff168063025ec81a1461016f578063043106c0146101be5780630c55d925146101f9578063124f24181461023457806317e7dd221461026f57806325cf512d146102c25780633562fd20146103075780633cc1635c1461034c5780633eba9ed21461038757806344bfa56e146103ce5780634c77e5ba1461048257806352f445ca146104fd5780635a2bf25a1461054e578063602162bf146105a9578063715018a6146105f85780638267a9ee1461060f5780638da5cb5b1461064a5780638f32d59b146106a15780639007127b146106d057806393fe42481461071f578063a209a29c1461075a578063a77aa49e1461080e578063aefc4ccb14610853578063ba69fcaa146108aa578063bdc963d8146108e5578063c9a52d2c14610934578063f2fde38b146109c4578063f586606614610a15575b600080fd5b34801561017b57600080fd5b506101a86004803603602081101561019257600080fd5b8101908080359060200190929190505050610aa5565b6040518082815260200191505060405180910390f35b3480156101ca57600080fd5b506101f7600480360360208110156101e157600080fd5b8101908080359060200190929190505050610ac2565b005b34801561020557600080fd5b506102326004803603602081101561021c57600080fd5b8101908080359060200190929190505050610be6565b005b34801561024057600080fd5b5061026d6004803603602081101561025757600080fd5b8101908080359060200190929190505050610cf3565b005b34801561027b57600080fd5b506102a86004803603602081101561029257600080fd5b8101908080359060200190929190505050610df8565b604051808215151515815260200191505060405180910390f35b3480156102ce57600080fd5b50610305600480360360408110156102e557600080fd5b810190808035906020019092919080359060200190929190505050610e22565b005b34801561031357600080fd5b5061034a6004803603604081101561032a57600080fd5b810190808035906020019092919080359060200190929190505050610f29565b005b34801561035857600080fd5b506103856004803603602081101561036f57600080fd5b8101908080359060200190929190505050611030565b005b34801561039357600080fd5b506103cc600480360360408110156103aa57600080fd5b8101908080359060200190929190803515159060200190929190505050611141565b005b3480156103da57600080fd5b50610407600480360360208110156103f157600080fd5b810190808035906020019092919050505061125b565b6040518080602001828103825283818151815260200191508051906020019080838360005b8381101561044757808201518184015260208101905061042c565b50505050905090810190601f1680156104745780820380516001836020036101000a031916815260200191505b509250505060405180910390f35b34801561048e57600080fd5b506104bb600480360360208110156104a557600080fd5b8101908080359060200190929190505050611310565b604051808273ffffffffffffffffffffffffffffffffffffffff1673ffffffffffffffffffffffffffffffffffffffff16815260200191505060405180910390f35b34801561050957600080fd5b5061054c6004803603602081101561052057600080fd5b81019080803573ffffffffffffffffffffffffffffffffffffffff16906020019092919050505061134d565b005b34801561055a57600080fd5b506105a76004803603604081101561057157600080fd5b8101908080359060200190929190803573ffffffffffffffffffffffffffffffffffffffff169060200190929190505050611407565b005b3480156105b557600080fd5b506105e2600480360360208110156105cc57600080fd5b8101908080359060200190929190505050611548565b6040518082815260200191505060405180910390f35b34801561060457600080fd5b5061060d611560565b005b34801561061b57600080fd5b506106486004803603602081101561063257600080fd5b8101908080359060200190929190505050611632565b005b34801561065657600080fd5b5061065f611737565b604051808273ffffffffffffffffffffffffffffffffffffffff1673ffffffffffffffffffffffffffffffffffffffff16815260200191505060405180910390f35b3480156106ad57600080fd5b506106b6611760565b604051808215151515815260200191505060405180910390f35b3480156106dc57600080fd5b50610709600480360360208110156106f357600080fd5b81019080803590602001909291905050506117b7565b6040518082815260200191505060405180910390f35b34801561072b57600080fd5b506107586004803603602081101561074257600080fd5b81019080803590602001909291905050506117d4565b005b34801561076657600080fd5b506107936004803603602081101561077d57600080fd5b81019080803590602001909291905050506118d9565b6040518080602001828103825283818151815260200191508051906020019080838360005b838110156107d35780820151818401526020810190506107b8565b50505050905090810190601f1680156108005780820380516001836020036101000a031916815260200191505b509250505060405180910390f35b34801561081a57600080fd5b506108516004803603604081101561083157600080fd5b81019080803590602001909291908035906020019092919050505061198e565b005b34801561085f57600080fd5b50610868611a95565b604051808273ffffffffffffffffffffffffffffffffffffffff1673ffffffffffffffffffffffffffffffffffffffff16815260200191505060405180910390f35b3480156108b657600080fd5b506108e3600480360360208110156108cd57600080fd5b8101908080359060200190929190505050611abb565b005b3480156108f157600080fd5b5061091e6004803603602081101561090857600080fd5b8101908080359060200190929190505050611bc8565b6040518082815260200191505060405180910390f35b34801561094057600080fd5b506109c26004803603604081101561095757600080fd5b81019080803590602001909291908035906020019064010000000081111561097e57600080fd5b82018360208201111561099057600080fd5b803590602001918460018302840111640100000000831117156109b257600080fd5b9091929391929390505050611be5565b005b3480156109d057600080fd5b50610a13600480360360208110156109e757600080fd5b81019080803573ffffffffffffffffffffffffffffffffffffffff169060200190929190505050611cf8565b005b348015610a2157600080fd5b50610aa360048036036040811015610a3857600080fd5b810190808035906020019092919080359060200190640100000000811115610a5f57600080fd5b820183602082011115610a7157600080fd5b80359060200191846001830284011164010000000083111715610a9357600080fd5b9091929391929390505050611d17565b005b600060066000838152602001908152602001600020549050919050565b600160009054906101000a900473ffffffffffffffffffffffffffffffffffffffff1673ffffffffffffffffffffffffffffffffffffffff163373ffffffffffffffffffffffffffffffffffffffff16141515610bad576040517f08c379a00000000000000000000000000000000000000000000000000000000081526004018080602001828103825260348152602001807f4f6e6c7920746865206173736f63696174656420636f6e74726163742063616e81526020017f20706572666f726d207468697320616374696f6e00000000000000000000000081525060400191505060405180910390fd5b6004600082815260200190815260200160002060006101000a81549073ffffffffffffffffffffffffffffffffffffffff021916905550565b600160009054906101000a900473ffffffffffffffffffffffffffffffffffffffff1673ffffffffffffffffffffffffffffffffffffffff163373ffffffffffffffffffffffffffffffffffffffff16141515610cd1576040517f08c379a00000000000000000000000000000000000000000000000000000000081526004018080602001828103825260348152602001807f4f6e6c7920746865206173736f63696174656420636f6e74726163742063616e81526020017f20706572666f726d207468697320616374696f6e00000000000000000000000081525060400191505060405180910390fd5b600560008281526020019081526020016000206000610cf09190611f24565b50565b600160009054906101000a900473ffffffffffffffffffffffffffffffffffffffff1673ffffffffffffffffffffffffffffffffffffffff163373ffffffffffffffffffffffffffffffffffffffff16141515610dde576040517f08c379a00000000000000000000000000000000000000000000000000000000081526004018080602001828103825260348152602001807f4f6e6c7920746865206173736f63696174656420636f6e74726163742063616e81526020017f20706572666f726d207468697320616374696f6e00000000000000000000000081525060400191505060405180910390fd5b600660008281526020019081526020016000206000905550565b60006007600083815260200190815260200160002060009054906101000a900460ff169050919050565b600160009054906101000a900473ffffffffffffffffffffffffffffffffffffffff1673ffffffffffffffffffffffffffffffffffffffff163373ffffffffffffffffffffffffffffffffffffffff16141515610f0d576040517f08c379a00000000000000000000000000000000000000000000000000000000081526004018080602001828103825260348152602001807f4f6e6c7920746865206173736f63696174656420636f6e74726163742063616e81526020017f20706572666f726d207468697320616374696f6e00000000000000000000000081525060400191505060405180910390fd5b8060066000848152602001908152602001600020819055505050565b600160009054906101000a900473ffffffffffffffffffffffffffffffffffffffff1673ffffffffffffffffffffffffffffffffffffffff163373ffffffffffffffffffffffffffffffffffffffff16141515611014576040517f08c379a00000000000000000000000000000000000000000000000000000000081526004018080602001828103825260348152602001807f4f6e6c7920746865206173736f63696174656420636f6e74726163742063616e81526020017f20706572666f726d207468697320616374696f6e00000000000000000000000081525060400191505060405180910390fd5b8060026000848152602001908152602001600020819055505050565b600160009054906101000a900473ffffffffffffffffffffffffffffffffffffffff1673ffffffffffffffffffffffffffffffffffffffff163373ffffffffffffffffffffffffffffffffffffffff1614151561111b576040517f08c379a00000000000000000000000000000000000000000000000000000000081526004018080602001828103825260348152602001807f4f6e6c7920746865206173736f63696174656420636f6e74726163742063616e81526020017f20706572666f726d207468697320616374696f6e00000000000000000000000081525060400191505060405180910390fd5b6007600082815260200190815260200160002060006101000a81549060ff021916905550565b600160009054906101000a900473ffffffffffffffffffffffffffffffffffffffff1673ffffffffffffffffffffffffffffffffffffffff163373ffffffffffffffffffffffffffffffffffffffff1614151561122c576040517f08c379a00000000000000000000000000000000000000000000000000000000081526004018080602001828103825260348152602001807f4f6e6c7920746865206173736f63696174656420636f6e74726163742063616e81526020017f20706572666f726d207468697320616374696f6e00000000000000000000000081525060400191505060405180910390fd5b806007600084815260200190815260200160002060006101000a81548160ff0219169083151502179055505050565b6060600560008381526020019081526020016000208054600181600116156101000203166002900480601f0160208091040260200160405190810160405280929190818152602001828054600181600116156101000203166002900480156113045780601f106112d957610100808354040283529160200191611304565b820191906000526020600020905b8154815290600101906020018083116112e757829003601f168201915b50505050509050919050565b60006004600083815260200190815260200160002060009054906101000a900473ffffffffffffffffffffffffffffffffffffffff169050919050565b611355611760565b151561136057600080fd5b80600160006101000a81548173ffffffffffffffffffffffffffffffffffffffff021916908373ffffffffffffffffffffffffffffffffffffffff1602179055507f73f20cff579e8a4086fa607db83867595f1b6a798e718c0bfa0b94a404128e0381604051808273ffffffffffffffffffffffffffffffffffffffff1673ffffffffffffffffffffffffffffffffffffffff16815260200191505060405180910390a150565b600160009054906101000a900473ffffffffffffffffffffffffffffffffffffffff1673ffffffffffffffffffffffffffffffffffffffff163373ffffffffffffffffffffffffffffffffffffffff161415156114f2576040517f08c379a00000000000000000000000000000000000000000000000000000000081526004018080602001828103825260348152602001807f4f6e6c7920746865206173736f63696174656420636f6e74726163742063616e81526020017f20706572666f726d207468697320616374696f6e00000000000000000000000081525060400191505060405180910390fd5b806004600084815260200190815260200160002060006101000a81548173ffffffffffffffffffffffffffffffffffffffff021916908373ffffffffffffffffffffffffffffffffffffffff1602179055505050565b60026020528060005260406000206000915090505481565b611568611760565b151561157357600080fd5b600073ffffffffffffffffffffffffffffffffffffffff166000809054906101000a900473ffffffffffffffffffffffffffffffffffffffff1673ffffffffffffffffffffffffffffffffffffffff167f8be0079c531659141344cd1fd0a4f28419497f9722a3daafe3b4186f6b6457e060405160405180910390a360008060006101000a81548173ffffffffffffffffffffffffffffffffffffffff021916908373ffffffffffffffffffffffffffffffffffffffff160217905550565b600160009054906101000a900473ffffffffffffffffffffffffffffffffffffffff1673ffffffffffffffffffffffffffffffffffffffff163373ffffffffffffffffffffffffffffffffffffffff1614151561171d576040517f08c379a00000000000000000000000000000000000000000000000000000000081526004018080602001828103825260348152602001807f4f6e6c7920746865206173736f63696174656420636f6e74726163742063616e81526020017f20706572666f726d207468697320616374696f6e00000000000000000000000081525060400191505060405180910390fd5b600860008281526020019081526020016000206000905550565b60008060009054906101000a900473ffffffffffffffffffffffffffffffffffffffff16905090565b60008060009054906101000a900473ffffffffffffffffffffffffffffffffffffffff1673ffffffffffffffffffffffffffffffffffffffff163373ffffffffffffffffffffffffffffffffffffffff1614905090565b600060086000838152602001908152602001600020549050919050565b600160009054906101000a900473ffffffffffffffffffffffffffffffffffffffff1673ffffffffffffffffffffffffffffffffffffffff163373ffffffffffffffffffffffffffffffffffffffff161415156118bf576040517f08c379a00000000000000000000000000000000000000000000000000000000081526004018080602001828103825260348152602001807f4f6e6c7920746865206173736f63696174656420636f6e74726163742063616e81526020017f20706572666f726d207468697320616374696f6e00000000000000000000000081525060400191505060405180910390fd5b600260008281526020019081526020016000206000905550565b6060600360008381526020019081526020016000208054600181600116156101000203166002900480601f0160208091040260200160405190810160405280929190818152602001828054600181600116156101000203166002900480156119825780601f1061195757610100808354040283529160200191611982565b820191906000526020600020905b81548152906001019060200180831161196557829003601f168201915b50505050509050919050565b600160009054906101000a900473ffffffffffffffffffffffffffffffffffffffff1673ffffffffffffffffffffffffffffffffffffffff163373ffffffffffffffffffffffffffffffffffffffff16141515611a79576040517f08c379a00000000000000000000000000000000000000000000000000000000081526004018080602001828103825260348152602001807f4f6e6c7920746865206173736f63696174656420636f6e74726163742063616e81526020017f20706572666f726d207468697320616374696f6e00000000000000000000000081525060400191505060405180910390fd5b8060086000848152602001908152602001600020819055505050565b600160009054906101000a900473ffffffffffffffffffffffffffffffffffffffff1681565b600160009054906101000a900473ffffffffffffffffffffffffffffffffffffffff1673ffffffffffffffffffffffffffffffffffffffff163373ffffffffffffffffffffffffffffffffffffffff16141515611ba6576040517f08c379a00000000000000000000000000000000000000000000000000000000081526004018080602001828103825260348152602001807f4f6e6c7920746865206173736f63696174656420636f6e74726163742063616e81526020017f20706572666f726d207468697320616374696f6e00000000000000000000000081525060400191505060405180910390fd5b600360008281526020019081526020016000206000611bc59190611f6c565b50565b600060026000838152602001908152602001600020549050919050565b600160009054906101000a900473ffffffffffffffffffffffffffffffffffffffff1673ffffffffffffffffffffffffffffffffffffffff163373ffffffffffffffffffffffffffffffffffffffff16141515611cd0576040517f08c379a00000000000000000000000000000000000000000000000000000000081526004018080602001828103825260348152602001807f4f6e6c7920746865206173736f63696174656420636f6e74726163742063616e81526020017f20706572666f726d207468697320616374696f6e00000000000000000000000081525060400191505060405180910390fd5b8181600560008681526020019081526020016000209190611cf2929190611fb4565b50505050565b611d00611760565b1515611d0b57600080fd5b611d1481611e2a565b50565b600160009054906101000a900473ffffffffffffffffffffffffffffffffffffffff1673ffffffffffffffffffffffffffffffffffffffff163373ffffffffffffffffffffffffffffffffffffffff16141515611e02576040517f08c379a00000000000000000000000000000000000000000000000000000000081526004018080602001828103825260348152602001807f4f6e6c7920746865206173736f63696174656420636f6e74726163742063616e81526020017f20706572666f726d207468697320616374696f6e00000000000000000000000081525060400191505060405180910390fd5b8181600360008681526020019081526020016000209190611e24929190612034565b50505050565b600073ffffffffffffffffffffffffffffffffffffffff168173ffffffffffffffffffffffffffffffffffffffff1614151515611e6657600080fd5b8073ffffffffffffffffffffffffffffffffffffffff166000809054906101000a900473ffffffffffffffffffffffffffffffffffffffff1673ffffffffffffffffffffffffffffffffffffffff167f8be0079c531659141344cd1fd0a4f28419497f9722a3daafe3b4186f6b6457e060405160405180910390a3806000806101000a81548173ffffffffffffffffffffffffffffffffffffffff021916908373ffffffffffffffffffffffffffffffffffffffff16021790555050565b50805460018160011615610100020316600290046000825580601f10611f4a5750611f69565b601f016020900490600052602060002090810190611f6891906120b4565b5b50565b50805460018160011615610100020316600290046000825580601f10611f925750611fb1565b601f016020900490600052602060002090810190611fb091906120b4565b5b50565b828054600181600116156101000203166002900490600052602060002090601f016020900481019282601f10611ff557803560ff1916838001178555612023565b82800160010185558215612023579182015b82811115612022578235825591602001919060010190612007565b5b50905061203091906120b4565b5090565b828054600181600116156101000203166002900490600052602060002090601f016020900481019282601f1061207557803560ff19168380011785556120a3565b828001600101855582156120a3579182015b828111156120a2578235825591602001919060010190612087565b5b5090506120b091906120b4565b5090565b6120d691905b808211156120d25760008160009055506001016120ba565b5090565b9056fea165627a7a72305820b8fc71bd6a7300e99e398a89837d8ed33073c3a0457306c0f2be3df815e147180029",
  "source": "pragma solidity ^0.5.0;\n\nimport \"./EternalStorage.sol\";\n\ncontract TokenExchangeState is EternalStorage {\n\n    /**\n     * @dev Constructor\n     * @param _associatedContract The calling contract for whoms state we hold\n     */\n    constructor(address _associatedContract)\n        State(_associatedContract)\n        public\n    {\n        \n    }\n}",
  "sourcePath": "/Users/clintonennis/Playground/final-project-hav-noms/contracts/TokenExchangeState.sol",
  "compiler": {
    "name": "solc",
    "version": "0.5.0+commit.1d4f565a.Emscripten.clang"
  },
  "schemaVersion": "3.0.1",
  "updatedAt": "2019-01-26T06:15:05.203Z",
  "devdoc": {
    "methods": {
      "constructor": {
        "details": "Constructor",
        "params": {
          "_associatedContract": "The calling contract for whoms state we hold"
        }
      },
      "isOwner()": {
        "return": "true if `msg.sender` is the owner of the contract."
      },
      "owner()": {
        "return": "the address of the owner."
      },
      "renounceOwnership()": {
        "details": "Allows the current owner to relinquish control of the contract."
      },
      "setAssociatedContract(address)": {
        "params": {
          "_associatedContract": "the address of the Contract that owns this state"
        }
      },
      "transferOwnership(address)": {
        "details": "Allows the current owner to transfer control of the contract to a newOwner.",
        "params": {
          "newOwner": "The address to transfer ownership to."
        }
      }
    }
  },
  "userdoc": {
    "methods": {
      "renounceOwnership()": {
        "notice": "Renouncing to ownership will leave the contract without an owner. It will not be possible to call the functions with the `onlyOwner` modifier anymore."
      },
      "setAssociatedContract(address)": {
        "notice": "Change the associated contract to a new address"
      }
    }
  }
}