{
  "contractName": "TokenExchange",
  "abi": [
    {
      "constant": false,
      "inputs": [
        {
          "name": "_paused",
          "type": "bool"
        }
      ],
      "name": "setPaused",
      "outputs": [],
      "payable": false,
      "stateMutability": "nonpayable",
      "type": "function"
    },
    {
      "constant": true,
      "inputs": [],
      "name": "initiationTime",
      "outputs": [
        {
          "name": "",
          "type": "uint256"
        }
      ],
      "payable": false,
      "stateMutability": "view",
      "type": "function"
    },
    {
      "constant": true,
      "inputs": [],
      "name": "externalState",
      "outputs": [
        {
          "name": "",
          "type": "address"
        }
      ],
      "payable": false,
      "stateMutability": "view",
      "type": "function"
    },
    {
      "constant": false,
      "inputs": [
        {
          "name": "_beneficiary",
          "type": "address"
        }
      ],
      "name": "setSelfDestructBeneficiary",
      "outputs": [],
      "payable": false,
      "stateMutability": "nonpayable",
      "type": "function"
    },
    {
      "constant": false,
      "inputs": [
        {
          "name": "_myid",
          "type": "bytes32"
        },
        {
          "name": "_result",
          "type": "string"
        }
      ],
      "name": "__callback",
      "outputs": [],
      "payable": false,
      "stateMutability": "nonpayable",
      "type": "function"
    },
    {
      "constant": false,
      "inputs": [],
      "name": "terminateSelfDestruct",
      "outputs": [],
      "payable": false,
      "stateMutability": "nonpayable",
      "type": "function"
    },
    {
      "constant": false,
      "inputs": [
        {
          "name": "myid",
          "type": "bytes32"
        },
        {
          "name": "result",
          "type": "string"
        },
        {
          "name": "proof",
          "type": "bytes"
        }
      ],
      "name": "__callback",
      "outputs": [],
      "payable": false,
      "stateMutability": "nonpayable",
      "type": "function"
    },
    {
      "constant": true,
      "inputs": [],
      "name": "priceETHUSD",
      "outputs": [
        {
          "name": "",
          "type": "string"
        }
      ],
      "payable": false,
      "stateMutability": "view",
      "type": "function"
    },
    {
      "constant": true,
      "inputs": [],
      "name": "paused",
      "outputs": [
        {
          "name": "",
          "type": "bool"
        }
      ],
      "payable": false,
      "stateMutability": "view",
      "type": "function"
    },
    {
      "constant": false,
      "inputs": [],
      "name": "renounceOwnership",
      "outputs": [],
      "payable": false,
      "stateMutability": "nonpayable",
      "type": "function"
    },
    {
      "constant": true,
      "inputs": [
        {
          "name": "",
          "type": "uint256"
        }
      ],
      "name": "tradeListings",
      "outputs": [
        {
          "name": "user",
          "type": "address"
        },
        {
          "name": "symbol",
          "type": "string"
        },
        {
          "name": "amount",
          "type": "uint256"
        },
        {
          "name": "ethRate",
          "type": "uint256"
        },
        {
          "name": "totalPrice",
          "type": "uint256"
        },
        {
          "name": "tokenContractAddress",
          "type": "address"
        }
      ],
      "payable": false,
      "stateMutability": "view",
      "type": "function"
    },
    {
      "constant": true,
      "inputs": [],
      "name": "owner",
      "outputs": [
        {
          "name": "",
          "type": "address"
        }
      ],
      "payable": false,
      "stateMutability": "view",
      "type": "function"
    },
    {
      "constant": true,
      "inputs": [],
      "name": "isOwner",
      "outputs": [
        {
          "name": "",
          "type": "bool"
        }
      ],
      "payable": false,
      "stateMutability": "view",
      "type": "function"
    },
    {
      "constant": true,
      "inputs": [],
      "name": "lastPauseTime",
      "outputs": [
        {
          "name": "",
          "type": "uint256"
        }
      ],
      "payable": false,
      "stateMutability": "view",
      "type": "function"
    },
    {
      "constant": false,
      "inputs": [
        {
          "name": "_proxy",
          "type": "address"
        }
      ],
      "name": "setProxy",
      "outputs": [],
      "payable": false,
      "stateMutability": "nonpayable",
      "type": "function"
    },
    {
      "constant": false,
      "inputs": [],
      "name": "selfDestruct",
      "outputs": [],
      "payable": false,
      "stateMutability": "nonpayable",
      "type": "function"
    },
    {
      "constant": false,
      "inputs": [],
      "name": "update",
      "outputs": [],
      "payable": true,
      "stateMutability": "payable",
      "type": "function"
    },
    {
      "constant": true,
      "inputs": [],
      "name": "SELFDESTRUCT_DELAY",
      "outputs": [
        {
          "name": "",
          "type": "uint256"
        }
      ],
      "payable": false,
      "stateMutability": "view",
      "type": "function"
    },
    {
      "constant": true,
      "inputs": [
        {
          "name": "",
          "type": "uint256"
        }
      ],
      "name": "tradeID",
      "outputs": [
        {
          "name": "",
          "type": "uint256"
        }
      ],
      "payable": false,
      "stateMutability": "view",
      "type": "function"
    },
    {
      "constant": true,
      "inputs": [],
      "name": "selfDestructInitiated",
      "outputs": [
        {
          "name": "",
          "type": "bool"
        }
      ],
      "payable": false,
      "stateMutability": "view",
      "type": "function"
    },
    {
      "constant": false,
      "inputs": [
        {
          "name": "sender",
          "type": "address"
        }
      ],
      "name": "setMessageSender",
      "outputs": [],
      "payable": false,
      "stateMutability": "nonpayable",
      "type": "function"
    },
    {
      "constant": false,
      "inputs": [],
      "name": "initiateSelfDestruct",
      "outputs": [],
      "payable": false,
      "stateMutability": "nonpayable",
      "type": "function"
    },
    {
      "constant": true,
      "inputs": [],
      "name": "selfDestructBeneficiary",
      "outputs": [
        {
          "name": "",
          "type": "address"
        }
      ],
      "payable": false,
      "stateMutability": "view",
      "type": "function"
    },
    {
      "constant": true,
      "inputs": [],
      "name": "proxy",
      "outputs": [
        {
          "name": "",
          "type": "address"
        }
      ],
      "payable": false,
      "stateMutability": "view",
      "type": "function"
    },
    {
      "constant": false,
      "inputs": [
        {
          "name": "newOwner",
          "type": "address"
        }
      ],
      "name": "transferOwnership",
      "outputs": [],
      "payable": false,
      "stateMutability": "nonpayable",
      "type": "function"
    },
    {
      "inputs": [
        {
          "name": "_selfDestructBeneficiary",
          "type": "address"
        },
        {
          "name": "_proxy",
          "type": "address"
        },
        {
          "name": "_externalState",
          "type": "address"
        },
        {
          "name": "_priceETHUSD",
          "type": "string"
        }
      ],
      "payable": false,
      "stateMutability": "nonpayable",
      "type": "constructor"
    },
    {
      "payable": false,
      "stateMutability": "nonpayable",
      "type": "fallback"
    },
    {
      "anonymous": false,
      "inputs": [
        {
          "indexed": true,
          "name": "user",
          "type": "address"
        },
        {
          "indexed": false,
          "name": "amount",
          "type": "uint256"
        },
        {
          "indexed": false,
          "name": "tradeID",
          "type": "uint256"
        }
      ],
      "name": "TradeListingDeposit",
      "type": "event"
    },
    {
      "anonymous": false,
      "inputs": [
        {
          "indexed": false,
          "name": "fromSymbol",
          "type": "string"
        },
        {
          "indexed": false,
          "name": "fromAmount",
          "type": "uint256"
        },
        {
          "indexed": false,
          "name": "toSymbol",
          "type": "string"
        },
        {
          "indexed": false,
          "name": "toAmount",
          "type": "uint256"
        }
      ],
      "name": "Exchange",
      "type": "event"
    },
    {
      "anonymous": false,
      "inputs": [
        {
          "indexed": true,
          "name": "user",
          "type": "address"
        },
        {
          "indexed": false,
          "name": "amount",
          "type": "uint256"
        },
        {
          "indexed": false,
          "name": "tradeID",
          "type": "uint256"
        }
      ],
      "name": "TradeListingWithdrawal",
      "type": "event"
    },
    {
      "anonymous": false,
      "inputs": [
        {
          "indexed": false,
          "name": "description",
          "type": "string"
        },
        {
          "indexed": false,
          "name": "value",
          "type": "string"
        }
      ],
      "name": "LogString",
      "type": "event"
    },
    {
      "anonymous": false,
      "inputs": [
        {
          "indexed": false,
          "name": "description",
          "type": "string"
        },
        {
          "indexed": false,
          "name": "value",
          "type": "uint256"
        }
      ],
      "name": "Loguint",
      "type": "event"
    },
    {
      "anonymous": false,
      "inputs": [
        {
          "indexed": false,
          "name": "description",
          "type": "string"
        },
        {
          "indexed": false,
          "name": "value",
          "type": "address"
        }
      ],
      "name": "LogAddress",
      "type": "event"
    },
    {
      "anonymous": false,
      "inputs": [
        {
          "indexed": false,
          "name": "description",
          "type": "string"
        }
      ],
      "name": "LogNewOraclizeQuery",
      "type": "event"
    },
    {
      "anonymous": false,
      "inputs": [
        {
          "indexed": false,
          "name": "price",
          "type": "string"
        }
      ],
      "name": "LogNewPriceUpdate",
      "type": "event"
    },
    {
      "anonymous": false,
      "inputs": [],
      "name": "SelfDestructTerminated",
      "type": "event"
    },
    {
      "anonymous": false,
      "inputs": [
        {
          "indexed": false,
          "name": "beneficiary",
          "type": "address"
        }
      ],
      "name": "SelfDestructed",
      "type": "event"
    },
    {
      "anonymous": false,
      "inputs": [
        {
          "indexed": false,
          "name": "selfDestructDelay",
          "type": "uint256"
        }
      ],
      "name": "SelfDestructInitiated",
      "type": "event"
    },
    {
      "anonymous": false,
      "inputs": [
        {
          "indexed": false,
          "name": "newBeneficiary",
          "type": "address"
        }
      ],
      "name": "SelfDestructBeneficiaryUpdated",
      "type": "event"
    },
    {
      "anonymous": false,
      "inputs": [
        {
          "indexed": false,
          "name": "proxyAddress",
          "type": "address"
        }
      ],
      "name": "ProxyUpdated",
      "type": "event"
    },
    {
      "anonymous": false,
      "inputs": [
        {
          "indexed": false,
          "name": "isPaused",
          "type": "bool"
        }
      ],
      "name": "PauseChanged",
      "type": "event"
    },
    {
      "anonymous": false,
      "inputs": [
        {
          "indexed": true,
          "name": "previousOwner",
          "type": "address"
        },
        {
          "indexed": true,
          "name": "newOwner",
          "type": "address"
        }
      ],
      "name": "OwnershipTransferred",
      "type": "event"
    },
    {
      "constant": true,
      "inputs": [],
      "name": "getTradeListingCount",
      "outputs": [
        {
          "name": "",
          "type": "uint256"
        }
      ],
      "payable": false,
      "stateMutability": "view",
      "type": "function"
    },
    {
      "constant": false,
      "inputs": [
        {
          "name": "symbol",
          "type": "string"
        },
        {
          "name": "amount",
          "type": "uint256"
        },
        {
          "name": "ethRate",
          "type": "uint256"
        },
        {
          "name": "tokenContract",
          "type": "address"
        }
      ],
      "name": "createTradeListing",
      "outputs": [
        {
          "name": "",
          "type": "uint256"
        }
      ],
      "payable": false,
      "stateMutability": "nonpayable",
      "type": "function"
    },
    {
      "constant": false,
      "inputs": [
        {
          "name": "listingID",
          "type": "uint256"
        }
      ],
      "name": "withdrawMyDepositedTokens",
      "outputs": [],
      "payable": false,
      "stateMutability": "nonpayable",
      "type": "function"
    },
    {
      "constant": false,
      "inputs": [
        {
          "name": "listingID",
          "type": "uint256"
        }
      ],
      "name": "exchangeEtherForTokens",
      "outputs": [],
      "payable": true,
      "stateMutability": "payable",
      "type": "function"
    },
    {
      "constant": false,
      "inputs": [
        {
          "name": "listingID",
          "type": "uint256"
        }
      ],
      "name": "getTradeCostPriceInUSD",
      "outputs": [
        {
          "name": "costUSD",
          "type": "uint256"
        }
      ],
      "payable": false,
      "stateMutability": "nonpayable",
      "type": "function"
    },
    {
      "constant": false,
      "inputs": [],
      "name": "callOracle",
      "outputs": [
        {
          "name": "",
          "type": "bool"
        }
      ],
      "payable": false,
      "stateMutability": "nonpayable",
      "type": "function"
    }
  ],
  "bytecode": "0x60806040523480156200001157600080fd5b506040516200575f3803806200575f833981018060405260808110156200003757600080fd5b8101908080519060200190929190805190602001909291908051906020019092919080516401000000008111156200006e57600080fd5b828101905060208101848111156200008557600080fd5b8151856001820283011164010000000082111715620000a357600080fd5b50509291905050508383336000806101000a81548173ffffffffffffffffffffffffffffffffffffffff021916908373ffffffffffffffffffffffffffffffffffffffff1602179055506000809054906101000a900473ffffffffffffffffffffffffffffffffffffffff1673ffffffffffffffffffffffffffffffffffffffff16600073ffffffffffffffffffffffffffffffffffffffff167f8be0079c531659141344cd1fd0a4f28419497f9722a3daafe3b4186f6b6457e060405160405180910390a380600260016101000a81548173ffffffffffffffffffffffffffffffffffffffff021916908373ffffffffffffffffffffffffffffffffffffffff1602179055507ffc80377ca9c49cc11ae6982f390a42db976d5530af7c43889264b13fbbd7c57e81604051808273ffffffffffffffffffffffffffffffffffffffff1673ffffffffffffffffffffffffffffffffffffffff16815260200191505060405180910390a150600073ffffffffffffffffffffffffffffffffffffffff168173ffffffffffffffffffffffffffffffffffffffff1614151515620002da576040517f08c379a00000000000000000000000000000000000000000000000000000000081526004018080602001828103825260358152602001807f5f73656c66446573747275637442656e6566696369617279206d757374206e6f81526020017f7420626520746865207a65726f2061646472657373000000000000000000000081525060400191505060405180910390fd5b80600560016101000a81548173ffffffffffffffffffffffffffffffffffffffff021916908373ffffffffffffffffffffffffffffffffffffffff1602179055507fd5da63a0b864b315bc04128dedbc93888c8529ee6cf47ce664dc204339228c53600560019054906101000a900473ffffffffffffffffffffffffffffffffffffffff16604051808273ffffffffffffffffffffffffffffffffffffffff1673ffffffffffffffffffffffffffffffffffffffff16815260200191505060405180910390a15081600c60006101000a81548173ffffffffffffffffffffffffffffffffffffffff021916908373ffffffffffffffffffffffffffffffffffffffff16021790555080600b9080519060200190620003fa92919062000405565b5050505050620004b4565b828054600181600116156101000203166002900490600052602060002090601f016020900481019282601f106200044857805160ff191683800117855562000479565b8280016001018555821562000479579182015b82811115620004785782518255916020019190600101906200045b565b5b5090506200048891906200048c565b5090565b620004b191905b80821115620004ad57600081600090555060010162000493565b5090565b90565b61529b80620004c46000396000f3fe60806040526004361061018b576000357c0100000000000000000000000000000000000000000000000000000000900463ffffffff16806316c38b3c1461023657806317c70de4146102735780631b9e4b561461029e57806320714f88146102f557806327dc297e146103465780633278c9601461041857806338bbfa501461042f57806358ed766d146105985780635c975abb14610628578063715018a6146106575780637b1b71661461066e57806383df59b11461069d578063889d1457146106c85780638da5cb5b146107f75780638f32d59b1461084e57806391b4ded91461087d57806397107d6d146108a85780639cb8a26a146108f95780639fcfd0f014610910578063a2e6204514610a20578063a461fc8214610a2a578063aed0bb7b14610a55578063b8225dec14610aa4578063bc67f83214610ad3578063bd32aa4414610b24578063c58aaae614610b3b578063c81a370714610b92578063dd3d62cc14610bcd578063e5c3acbe14610c1c578063ec55688914610c4a578063f2fde38b14610ca1575b34801561019757600080fd5b50600260019054906101000a900473ffffffffffffffffffffffffffffffffffffffff1673ffffffffffffffffffffffffffffffffffffffff163373ffffffffffffffffffffffffffffffffffffffff161415156102315733600360006101000a81548173ffffffffffffffffffffffffffffffffffffffff021916908373ffffffffffffffffffffffffffffffffffffffff1602179055505b600080fd5b34801561024257600080fd5b506102716004803603602081101561025957600080fd5b81019080803515159060200190929190505050610cf2565b005b34801561027f57600080fd5b50610288610daa565b6040518082815260200191505060405180910390f35b3480156102aa57600080fd5b506102b3610db0565b604051808273ffffffffffffffffffffffffffffffffffffffff1673ffffffffffffffffffffffffffffffffffffffff16815260200191505060405180910390f35b34801561030157600080fd5b506103446004803603602081101561031857600080fd5b81019080803573ffffffffffffffffffffffffffffffffffffffff169060200190929190505050610dd6565b005b34801561035257600080fd5b506104166004803603604081101561036957600080fd5b81019080803590602001909291908035906020019064010000000081111561039057600080fd5b8201836020820111156103a257600080fd5b803590602001918460018302840111640100000000831117156103c457600080fd5b91908080601f016020809104026020016040519081016040528093929190818152602001838380828437600081840152601f19601f820116905080830192505050505050509192919290505050610f5b565b005b34801561042457600080fd5b5061042d610f9e565b005b34801561043b57600080fd5b506105966004803603606081101561045257600080fd5b81019080803590602001909291908035906020019064010000000081111561047957600080fd5b82018360208201111561048b57600080fd5b803590602001918460018302840111640100000000831117156104ad57600080fd5b91908080601f016020809104026020016040519081016040528093929190818152602001838380828437600081840152601f19601f8201169050808301925050505050505091929192908035906020019064010000000081111561051057600080fd5b82018360208201111561052257600080fd5b8035906020019184600183028401116401000000008311171561054457600080fd5b91908080601f016020809104026020016040519081016040528093929190818152602001838380828437600081840152601f19601f820116905080830192505050505050509192919290505050611002565b005b3480156105a457600080fd5b506105ad6111b0565b6040518080602001828103825283818151815260200191508051906020019080838360005b838110156105ed5780820151818401526020810190506105d2565b50505050905090810190601f16801561061a5780820380516001836020036101000a031916815260200191505b509250505060405180910390f35b34801561063457600080fd5b5061063d61124e565b604051808215151515815260200191505060405180910390f35b34801561066357600080fd5b5061066c611261565b005b34801561067a57600080fd5b50610683611333565b604051808215151515815260200191505060405180910390f35b3480156106a957600080fd5b506106b2611459565b6040518082815260200191505060405180910390f35b3480156106d457600080fd5b50610701600480360360208110156106eb57600080fd5b8101908080359060200190929190505050611466565b604051808773ffffffffffffffffffffffffffffffffffffffff1673ffffffffffffffffffffffffffffffffffffffff168152602001806020018681526020018581526020018481526020018373ffffffffffffffffffffffffffffffffffffffff1673ffffffffffffffffffffffffffffffffffffffff168152602001828103825287818151815260200191508051906020019080838360005b838110156107b757808201518184015260208101905061079c565b50505050905090810190601f1680156107e45780820380516001836020036101000a031916815260200191505b5097505050505050505060405180910390f35b34801561080357600080fd5b5061080c61157a565b604051808273ffffffffffffffffffffffffffffffffffffffff1673ffffffffffffffffffffffffffffffffffffffff16815260200191505060405180910390f35b34801561085a57600080fd5b506108636115a3565b604051808215151515815260200191505060405180910390f35b34801561088957600080fd5b506108926115fa565b6040518082815260200191505060405180910390f35b3480156108b457600080fd5b506108f7600480360360208110156108cb57600080fd5b81019080803573ffffffffffffffffffffffffffffffffffffffff169060200190929190505050611600565b005b34801561090557600080fd5b5061090e6116ba565b005b34801561091c57600080fd5b50610a0a6004803603608081101561093357600080fd5b810190808035906020019064010000000081111561095057600080fd5b82018360208201111561096257600080fd5b8035906020019184600183028401116401000000008311171561098457600080fd5b91908080601f016020809104026020016040519081016040528093929190818152602001838380828437600081840152601f19601f8201169050808301925050505050505091929192908035906020019092919080359060200190929190803573ffffffffffffffffffffffffffffffffffffffff1690602001909291905050506118db565b6040518082815260200191505060405180910390f35b610a28611fa8565b005b348015610a3657600080fd5b50610a3f612212565b6040518082815260200191505060405180910390f35b348015610a6157600080fd5b50610a8e60048036036020811015610a7857600080fd5b8101908080359060200190929190505050612219565b6040518082815260200191505060405180910390f35b348015610ab057600080fd5b50610ab961223c565b604051808215151515815260200191505060405180910390f35b348015610adf57600080fd5b50610b2260048036036020811015610af657600080fd5b81019080803573ffffffffffffffffffffffffffffffffffffffff16906020019092919050505061224f565b005b348015610b3057600080fd5b50610b3961237e565b005b348015610b4757600080fd5b50610b506123ef565b604051808273ffffffffffffffffffffffffffffffffffffffff1673ffffffffffffffffffffffffffffffffffffffff16815260200191505060405180910390f35b348015610b9e57600080fd5b50610bcb60048036036020811015610bb557600080fd5b8101908080359060200190929190505050612415565b005b348015610bd957600080fd5b50610c0660048036036020811015610bf057600080fd5b8101908080359060200190929190505050612a10565b6040518082815260200191505060405180910390f35b610c4860048036036020811015610c3257600080fd5b8101908080359060200190929190505050612f74565b005b348015610c5657600080fd5b50610c5f613951565b604051808273ffffffffffffffffffffffffffffffffffffffff1673ffffffffffffffffffffffffffffffffffffffff16815260200191505060405180910390f35b348015610cad57600080fd5b50610cf060048036036020811015610cc457600080fd5b81019080803573ffffffffffffffffffffffffffffffffffffffff169060200190929190505050613977565b005b610cfa6115a3565b1515610d0557600080fd5b600260009054906101000a900460ff1615158115151415610d2557610da7565b80600260006101000a81548160ff021916908315150217905550600260009054906101000a900460ff1615610d5c57426001819055505b7f8fb6c181ee25a520cf3dd6565006ef91229fcfe5a989566c2a3b8c115570cec5600260009054906101000a900460ff16604051808215151515815260200191505060405180910390a15b50565b60045481565b600c60009054906101000a900473ffffffffffffffffffffffffffffffffffffffff1681565b610dde6115a3565b1515610de957600080fd5b600073ffffffffffffffffffffffffffffffffffffffff168173ffffffffffffffffffffffffffffffffffffffff1614151515610eb4576040517f08c379a00000000000000000000000000000000000000000000000000000000081526004018080602001828103825260288152602001807f42656e6566696369617279206d757374206e6f7420626520746865207a65726f81526020017f206164647265737300000000000000000000000000000000000000000000000081525060400191505060405180910390fd5b80600560016101000a81548173ffffffffffffffffffffffffffffffffffffffff021916908373ffffffffffffffffffffffffffffffffffffffff1602179055507fd5da63a0b864b315bc04128dedbc93888c8529ee6cf47ce664dc204339228c5381604051808273ffffffffffffffffffffffffffffffffffffffff1673ffffffffffffffffffffffffffffffffffffffff16815260200191505060405180910390a150565b610f9a828260006040519080825280601f01601f191660200182016040528015610f945781602001600182028038833980820191505090505b50611002565b5050565b610fa66115a3565b1515610fb157600080fd5b60006004819055506000600560006101000a81548160ff0219169083151502179055507f6adcc7125002935e0aa31697538ebbd65cfddf20431eb6ecdcfc3e238bfd082c60405160405180910390a1565b61100a613996565b73ffffffffffffffffffffffffffffffffffffffff163373ffffffffffffffffffffffffffffffffffffffff161415156110d2576040517f08c379a00000000000000000000000000000000000000000000000000000000081526004018080602001828103825260218152602001807f53656e646572206d757374206265206f7261636c697a655f636241646472657381526020017f730000000000000000000000000000000000000000000000000000000000000081525060400191505060405180910390fd5b6110da611fa8565b81600b90805190602001906110f09291906150e7565b507f45380602dfae37a071d17a70de11828a8e4331f4068463d68453d10f354798cf600b604051808060200182810382528381815460018160011615610100020316600290048152602001915080546001816001161561010002031660029004801561119d5780601f106111725761010080835404028352916020019161119d565b820191906000526020600020905b81548152906001019060200180831161118057829003601f168201915b50509250505060405180910390a1505050565b600b8054600181600116156101000203166002900480601f0160208091040260200160405190810160405280929190818152602001828054600181600116156101000203166002900480156112465780601f1061121b57610100808354040283529160200191611246565b820191906000526020600020905b81548152906001019060200180831161122957829003601f168201915b505050505081565b600260009054906101000a900460ff1681565b6112696115a3565b151561127457600080fd5b600073ffffffffffffffffffffffffffffffffffffffff166000809054906101000a900473ffffffffffffffffffffffffffffffffffffffff1673ffffffffffffffffffffffffffffffffffffffff167f8be0079c531659141344cd1fd0a4f28419497f9722a3daafe3b4186f6b6457e060405160405180910390a360008060006101000a81548173ffffffffffffffffffffffffffffffffffffffff021916908373ffffffffffffffffffffffffffffffffffffffff160217905550565b6000600260019054906101000a900473ffffffffffffffffffffffffffffffffffffffff1673ffffffffffffffffffffffffffffffffffffffff163373ffffffffffffffffffffffffffffffffffffffff161415156113ce5733600360006101000a81548173ffffffffffffffffffffffffffffffffffffffff021916908373ffffffffffffffffffffffffffffffffffffffff1602179055505b6113d6611fa8565b7f27a8767ed172b48d7cf6dbb25d2840c5fa91ef78fa6e05c13c82763d099f03ca604051808060200180602001838103835260158152602001807f75706461746545746850726963652063616c6c656400000000000000000000008152506020018381038252600081526020016020019250505060405180910390a16001905090565b6000600e80549050905090565b600d6020528060005260406000206000915090508060000160009054906101000a900473ffffffffffffffffffffffffffffffffffffffff1690806001018054600181600116156101000203166002900480601f0160208091040260200160405190810160405280929190818152602001828054600181600116156101000203166002900480156115385780601f1061150d57610100808354040283529160200191611538565b820191906000526020600020905b81548152906001019060200180831161151b57829003601f168201915b5050505050908060020154908060030154908060040154908060050160009054906101000a900473ffffffffffffffffffffffffffffffffffffffff16905086565b60008060009054906101000a900473ffffffffffffffffffffffffffffffffffffffff16905090565b60008060009054906101000a900473ffffffffffffffffffffffffffffffffffffffff1673ffffffffffffffffffffffffffffffffffffffff163373ffffffffffffffffffffffffffffffffffffffff1614905090565b60015481565b6116086115a3565b151561161357600080fd5b80600260016101000a81548173ffffffffffffffffffffffffffffffffffffffff021916908373ffffffffffffffffffffffffffffffffffffffff1602179055507ffc80377ca9c49cc11ae6982f390a42db976d5530af7c43889264b13fbbd7c57e81604051808273ffffffffffffffffffffffffffffffffffffffff1673ffffffffffffffffffffffffffffffffffffffff16815260200191505060405180910390a150565b6116c26115a3565b15156116cd57600080fd5b600560009054906101000a900460ff161515611777576040517f08c379a00000000000000000000000000000000000000000000000000000000081526004018080602001828103825260288152602001807f53656c6620646573747275637420686173206e6f7420796574206265656e206981526020017f6e6974696174656400000000000000000000000000000000000000000000000081525060400191505060405180910390fd5b426224ea006004540110151561181b576040517f08c379a00000000000000000000000000000000000000000000000000000000081526004018080602001828103825260278152602001807f53656c662064657374727563742064656c617920686173206e6f74207965742081526020017f656c61707365640000000000000000000000000000000000000000000000000081525060400191505060405180910390fd5b7f8a09e1677ced846cb537dc2b172043bd05a1a81ad7e0033a7ef8ba762df990b7600560019054906101000a900473ffffffffffffffffffffffffffffffffffffffff16604051808273ffffffffffffffffffffffffffffffffffffffff1673ffffffffffffffffffffffffffffffffffffffff16815260200191505060405180910390a1600560019054906101000a900473ffffffffffffffffffffffffffffffffffffffff1673ffffffffffffffffffffffffffffffffffffffff16ff5b6000600260019054906101000a900473ffffffffffffffffffffffffffffffffffffffff1673ffffffffffffffffffffffffffffffffffffffff163373ffffffffffffffffffffffffffffffffffffffff161415156119765733600360006101000a81548173ffffffffffffffffffffffffffffffffffffffff021916908373ffffffffffffffffffffffffffffffffffffffff1602179055505b600260009054906101000a900460ff16151515611a21576040517f08c379a000000000000000000000000000000000000000000000000000000000815260040180806020018281038252603c8152602001807f5468697320616374696f6e2063616e6e6f7420626520706572666f726d65642081526020017f7768696c652074686520636f6e7472616374206973207061757365640000000081525060400191505060405180910390fd5b600084111515611abf576040517f08c379a00000000000000000000000000000000000000000000000000000000081526004018080602001828103825260218152602001807f596f752063616e74206465706f736974206e6f7468696e6720746f207472616481526020017f650000000000000000000000000000000000000000000000000000000000000081525060400191505060405180910390fd5b600083111515611b5d576040517f08c379a000000000000000000000000000000000000000000000000000000000815260040180806020018281038252602f8152602001807f4974277320686967686c7920646f75627466756c6c20796f752077616e74207481526020017f6865736520746f2062652066726565000000000000000000000000000000000081525060400191505060405180910390fd5b611b7c8273ffffffffffffffffffffffffffffffffffffffff16613d0c565b1515611c3c576040517f08c379a00000000000000000000000000000000000000000000000000000000081526004018080602001828103825260518152602001807f54686520746f6b656e436f6e7472616374206164647265737320796f7520707281526020017f6f7669646564206973206e6f74206120636f6e74726163743f2044696420796f81526020017f75206d616b652061206d697374616b653f00000000000000000000000000000081525060600191505060405180910390fd5b8173ffffffffffffffffffffffffffffffffffffffff166323b872dd600360009054906101000a900473ffffffffffffffffffffffffffffffffffffffff1630876040518463ffffffff167c0100000000000000000000000000000000000000000000000000000000028152600401808473ffffffffffffffffffffffffffffffffffffffff1673ffffffffffffffffffffffffffffffffffffffff1681526020018373ffffffffffffffffffffffffffffffffffffffff1673ffffffffffffffffffffffffffffffffffffffff1681526020018281526020019350505050602060405180830381600087803b158015611d3557600080fd5b505af1158015611d49573d6000803e3d6000fd5b505050506040513d6020811015611d5f57600080fd5b81019080805190602001909291905050501515611d7b57600080fd5b6000600e805490509050600e8190806001815401808255809150509060018203906000526020600020016000909192909190915055506000611dc68587613d1f90919063ffffffff16565b905060c060405190810160405280600360009054906101000a900473ffffffffffffffffffffffffffffffffffffffff1673ffffffffffffffffffffffffffffffffffffffff1681526020018881526020018781526020018681526020018281526020018573ffffffffffffffffffffffffffffffffffffffff16815250600d600084815260200190815260200160002060008201518160000160006101000a81548173ffffffffffffffffffffffffffffffffffffffff021916908373ffffffffffffffffffffffffffffffffffffffff1602179055506020820151816001019080519060200190611eba929190615167565b5060408201518160020155606082015181600301556080820151816004015560a08201518160050160006101000a81548173ffffffffffffffffffffffffffffffffffffffff021916908373ffffffffffffffffffffffffffffffffffffffff160217905550905050600360009054906101000a900473ffffffffffffffffffffffffffffffffffffffff1673ffffffffffffffffffffffffffffffffffffffff167f32af79280bc52f79f91bee9d35846b2bb05c3b9683c4ae2ddc581cd822e066208784604051808381526020018281526020019250505060405180910390a28192505050949350505050565b3073ffffffffffffffffffffffffffffffffffffffff1631611ffe6040805190810160405280600381526020017f55524c0000000000000000000000000000000000000000000000000000000000815250613d4e565b11156120bd577f621c2856e3b87f81235f8ac8a22bbb40a0142961960710d00b2b6c380902b57e60405180806020018281038252604c8152602001807f4f7261636c697a6520717565727920776173204e4f542073656e742c20706c6581526020017f6173652061646420736f6d652045544820746f20636f76657220666f7220746881526020017f652071756572792066656521000000000000000000000000000000000000000081525060600191505060405180910390a1612210565b7f621c2856e3b87f81235f8ac8a22bbb40a0142961960710d00b2b6c380902b57e6040518080602001828103825260368152602001807f4f7261636c697a65207175657279207761732073656e742c207374616e64696e81526020017f6720627920666f722074686520616e737765722e2e2e0000000000000000000081525060400191505060405180910390a161220e603c6040805190810160405280600381526020017f55524c0000000000000000000000000000000000000000000000000000000000815250608060405190810160405280604e81526020017f6a736f6e2868747470733a2f2f6170692e6b72616b656e2e636f6d2f302f707581526020017f626c69632f5469636b65723f706169723d584554485a555344292e726573756c81526020017f742e584554485a5553442e632e30000000000000000000000000000000000000815250614138565b505b565b6224ea0081565b600e8181548110151561222857fe5b906000526020600020016000915090505481565b600560009054906101000a900460ff1681565b600260019054906101000a900473ffffffffffffffffffffffffffffffffffffffff1673ffffffffffffffffffffffffffffffffffffffff163373ffffffffffffffffffffffffffffffffffffffff1614151561233a576040517f08c379a00000000000000000000000000000000000000000000000000000000081526004018080602001828103825260258152602001807f4f6e6c79207468652070726f78792063616e2063616c6c20746869732066756e81526020017f6374696f6e00000000000000000000000000000000000000000000000000000081525060400191505060405180910390fd5b80600360006101000a81548173ffffffffffffffffffffffffffffffffffffffff021916908373ffffffffffffffffffffffffffffffffffffffff16021790555050565b6123866115a3565b151561239157600080fd5b426004819055506001600560006101000a81548160ff0219169083151502179055507fcbd94ca75b8dc45c9d80c77e851670e78843c0d75180cb81db3e2158228fa9a66224ea006040518082815260200191505060405180910390a1565b600560019054906101000a900473ffffffffffffffffffffffffffffffffffffffff1681565b600260019054906101000a900473ffffffffffffffffffffffffffffffffffffffff1673ffffffffffffffffffffffffffffffffffffffff163373ffffffffffffffffffffffffffffffffffffffff161415156124ae5733600360006101000a81548173ffffffffffffffffffffffffffffffffffffffff021916908373ffffffffffffffffffffffffffffffffffffffff1602179055505b600260009054906101000a900460ff16151515612559576040517f08c379a000000000000000000000000000000000000000000000000000000000815260040180806020018281038252603c8152602001807f5468697320616374696f6e2063616e6e6f7420626520706572666f726d65642081526020017f7768696c652074686520636f6e7472616374206973207061757365640000000081525060400191505060405180910390fd5b6125616151e7565b600d600083815260200190815260200160002060c060405190810160405290816000820160009054906101000a900473ffffffffffffffffffffffffffffffffffffffff1673ffffffffffffffffffffffffffffffffffffffff1673ffffffffffffffffffffffffffffffffffffffff168152602001600182018054600181600116156101000203166002900480601f01602080910402602001604051908101604052809291908181526020018280546001816001161561010002031660029004801561266f5780601f106126445761010080835404028352916020019161266f565b820191906000526020600020905b81548152906001019060200180831161265257829003601f168201915b505050505081526020016002820154815260200160038201548152602001600482015481526020016005820160009054906101000a900473ffffffffffffffffffffffffffffffffffffffff1673ffffffffffffffffffffffffffffffffffffffff1673ffffffffffffffffffffffffffffffffffffffff16815250509050600360009054906101000a900473ffffffffffffffffffffffffffffffffffffffff1673ffffffffffffffffffffffffffffffffffffffff16816000015173ffffffffffffffffffffffffffffffffffffffff161415156127dd576040517f08c379a00000000000000000000000000000000000000000000000000000000081526004018080602001828103825260228152602001807f5468617473206e6f7420796f7572206465706f73697420746f2077697468647281526020017f617700000000000000000000000000000000000000000000000000000000000081525060400191505060405180910390fd5b6127e6826146f5565b8060a0015173ffffffffffffffffffffffffffffffffffffffff1663a9059cbb826000015183604001516040518363ffffffff167c0100000000000000000000000000000000000000000000000000000000028152600401808373ffffffffffffffffffffffffffffffffffffffff1673ffffffffffffffffffffffffffffffffffffffff16815260200182815260200192505050602060405180830381600087803b15801561289557600080fd5b505af11580156128a9573d6000803e3d6000fd5b505050506040513d60208110156128bf57600080fd5b81019080805190602001909291905050501515612990576040517f08c379a00000000000000000000000000000000000000000000000000000000081526004018080602001828103825260478152602001807f546865207472616e73666572206f662074686520455243323020546f6b656e7381526020017f206661696c65642e20436865636b2074686520455243323020546f6b656e206381526020017f6f6e74726163740000000000000000000000000000000000000000000000000081525060600191505060405180910390fd5b600360009054906101000a900473ffffffffffffffffffffffffffffffffffffffff1673ffffffffffffffffffffffffffffffffffffffff167fbf9b42469f79dc3c4922cddb37b9bd6321651ef18dbe8e48da0e427bf6d32815826040015184604051808381526020018281526020019250505060405180910390a25050565b6000600260019054906101000a900473ffffffffffffffffffffffffffffffffffffffff1673ffffffffffffffffffffffffffffffffffffffff163373ffffffffffffffffffffffffffffffffffffffff16141515612aab5733600360006101000a81548173ffffffffffffffffffffffffffffffffffffffff021916908373ffffffffffffffffffffffffffffffffffffffff1602179055505b7fa3699575549624b8d71fd446a6dc8370e031298b73d97676c9518039dfd6a5838260405180806020018381526020018281038252600d8152602001807f6c697374696e67494420617267000000000000000000000000000000000000008152506020019250505060405180910390a1612b236151e7565b600d600084815260200190815260200160002060c060405190810160405290816000820160009054906101000a900473ffffffffffffffffffffffffffffffffffffffff1673ffffffffffffffffffffffffffffffffffffffff1673ffffffffffffffffffffffffffffffffffffffff168152602001600182018054600181600116156101000203166002900480601f016020809104026020016040519081016040528092919081815260200182805460018160011615610100020316600290048015612c315780601f10612c0657610100808354040283529160200191612c31565b820191906000526020600020905b815481529060010190602001808311612c1457829003601f168201915b505050505081526020016002820154815260200160038201548152602001600482015481526020016005820160009054906101000a900473ffffffffffffffffffffffffffffffffffffffff1673ffffffffffffffffffffffffffffffffffffffff1673ffffffffffffffffffffffffffffffffffffffff168152505090506000816040015114151515612d53576040517f08c379a00000000000000000000000000000000000000000000000000000000081526004018080602001828103825260338152602001807f546865205472616465206c697374696e67494420796f7527766520726571756581526020017f7374656420646f6573206e6f742065786973740000000000000000000000000081525060400191505060405180910390fd5b7fa3699575549624b8d71fd446a6dc8370e031298b73d97676c9518039dfd6a58381608001516040518080602001838152602001828103825260108152602001807f74726164652e746f74616c5072696365000000000000000000000000000000008152506020019250505060405180910390a17f27a8767ed172b48d7cf6dbb25d2840c5fa91ef78fa6e05c13c82763d099f03ca604051808060200180602001838103835260138152602001807f63616c6c207570646174654574685072696365000000000000000000000000008152506020018381038252600081526020016020019250505060405180910390a1612efc612ee9600b8054600181600116156101000203166002900480601f016020809104026020016040519081016040528092919081815260200182805460018160011615610100020316600290048015612edf5780601f10612eb457610100808354040283529160200191612edf565b820191906000526020600020905b815481529060010190602001808311612ec257829003601f168201915b5050505050614834565b8260800151613d1f90919063ffffffff16565b91507fa3699575549624b8d71fd446a6dc8370e031298b73d97676c9518039dfd6a583826040518080602001838152602001828103825260078152602001807f636f7374555344000000000000000000000000000000000000000000000000008152506020019250505060405180910390a150919050565b600260019054906101000a900473ffffffffffffffffffffffffffffffffffffffff1673ffffffffffffffffffffffffffffffffffffffff163373ffffffffffffffffffffffffffffffffffffffff1614151561300d5733600360006101000a81548173ffffffffffffffffffffffffffffffffffffffff021916908373ffffffffffffffffffffffffffffffffffffffff1602179055505b600260009054906101000a900460ff161515156130b8576040517f08c379a000000000000000000000000000000000000000000000000000000000815260040180806020018281038252603c8152602001807f5468697320616374696f6e2063616e6e6f7420626520706572666f726d65642081526020017f7768696c652074686520636f6e7472616374206973207061757365640000000081525060400191505060405180910390fd5b80600c60149054906101000a900460ff1615151561313e576040517f08c379a00000000000000000000000000000000000000000000000000000000081526004018080602001828103825260118152602001807f7265656e7472616e63794c6f636b65642100000000000000000000000000000081525060200191505060405180910390fd5b6001600c60146101000a81548160ff0219169083151502179055506131616151e7565b600d600084815260200190815260200160002060c060405190810160405290816000820160009054906101000a900473ffffffffffffffffffffffffffffffffffffffff1673ffffffffffffffffffffffffffffffffffffffff1673ffffffffffffffffffffffffffffffffffffffff168152602001600182018054600181600116156101000203166002900480601f01602080910402602001604051908101604052809291908181526020018280546001816001161561010002031660029004801561326f5780601f106132445761010080835404028352916020019161326f565b820191906000526020600020905b81548152906001019060200180831161325257829003601f168201915b505050505081526020016002820154815260200160038201548152602001600482015481526020016005820160009054906101000a900473ffffffffffffffffffffffffffffffffffffffff1673ffffffffffffffffffffffffffffffffffffffff1673ffffffffffffffffffffffffffffffffffffffff168152505090506000816080015114151515613391576040517f08c379a00000000000000000000000000000000000000000000000000000000081526004018080602001828103825260338152602001807f546865205472616465206c697374696e67494420796f7527766520726571756581526020017f7374656420646f6573206e6f742065786973740000000000000000000000000081525060400191505060405180910390fd5b80608001513410151515613433576040517f08c379a000000000000000000000000000000000000000000000000000000000815260040180806020018281038252603c8152602001807f596f752068617665206e6f742073656e7420656e6f7567682045544820746f2081526020017f636f7665722074686520636f7374206f6620746869732074726164650000000081525060400191505060405180910390fd5b61343c836146f5565b8060a0015173ffffffffffffffffffffffffffffffffffffffff1663a9059cbb600360009054906101000a900473ffffffffffffffffffffffffffffffffffffffff1683604001516040518363ffffffff167c0100000000000000000000000000000000000000000000000000000000028152600401808373ffffffffffffffffffffffffffffffffffffffff1673ffffffffffffffffffffffffffffffffffffffff16815260200182815260200192505050602060405180830381600087803b15801561350957600080fd5b505af115801561351d573d6000803e3d6000fd5b505050506040513d602081101561353357600080fd5b81019080805190602001909291905050501515613604576040517f08c379a00000000000000000000000000000000000000000000000000000000081526004018080602001828103825260478152602001807f546865207472616e73666572206f662074686520455243323020546f6b656e7381526020017f206661696c65642e20436865636b2074686520455243323020546f6b656e206381526020017f6f6e74726163740000000000000000000000000000000000000000000000000081525060600191505060405180910390fd5b806000015173ffffffffffffffffffffffffffffffffffffffff166108fc82608001519081150290604051600060405180830381858888f19350505050158015613652573d6000803e3d6000fd5b507fdb1741ffc6844b04a9284bb6337fb0ccfe543a493ef0ac8e725242201e93d4bd816080015182602001518360400151604051808060200185815260200180602001848152602001838103835260038152602001807f4554480000000000000000000000000000000000000000000000000000000000815250602001838103825285818151815260200191508051906020019080838360005b838110156137075780820151818401526020810190506136ec565b50505050905090810190601f1680156137345780820380516001836020036101000a031916815260200191505b509550505050505060405180910390a1506000600c60146101000a81548160ff0219169083151502179055506137686151e7565b600d600083815260200190815260200160002060c060405190810160405290816000820160009054906101000a900473ffffffffffffffffffffffffffffffffffffffff1673ffffffffffffffffffffffffffffffffffffffff1673ffffffffffffffffffffffffffffffffffffffff168152602001600182018054600181600116156101000203166002900480601f0160208091040260200160405190810160405280929190818152602001828054600181600116156101000203166002900480156138765780601f1061384b57610100808354040283529160200191613876565b820191906000526020600020905b81548152906001019060200180831161385957829003601f168201915b505050505081526020016002820154815260200160038201548152602001600482015481526020016005820160009054906101000a900473ffffffffffffffffffffffffffffffffffffffff1673ffffffffffffffffffffffffffffffffffffffff1673ffffffffffffffffffffffffffffffffffffffff168152505090506000816080015134039050816000015173ffffffffffffffffffffffffffffffffffffffff166108fc829081150290604051600060405180830381858888f1935050505015801561394a573d6000803e3d6000fd5b5050505050565b600260019054906101000a900473ffffffffffffffffffffffffffffffffffffffff1681565b61397f6115a3565b151561398a57600080fd5b61399381614848565b50565b60008073ffffffffffffffffffffffffffffffffffffffff16600760009054906101000a900473ffffffffffffffffffffffffffffffffffffffff1673ffffffffffffffffffffffffffffffffffffffff161480613a1e57506000613a1c600760009054906101000a900473ffffffffffffffffffffffffffffffffffffffff16614942565b145b15613a2f57613a2d600061494d565b505b600760009054906101000a900473ffffffffffffffffffffffffffffffffffffffff1673ffffffffffffffffffffffffffffffffffffffff166338cc48316040518163ffffffff167c0100000000000000000000000000000000000000000000000000000000028152600401602060405180830381600087803b158015613ab557600080fd5b505af1158015613ac9573d6000803e3d6000fd5b505050506040513d6020811015613adf57600080fd5b810190808051906020019092919050505073ffffffffffffffffffffffffffffffffffffffff16600660009054906101000a900473ffffffffffffffffffffffffffffffffffffffff1673ffffffffffffffffffffffffffffffffffffffff16141515613c4857600760009054906101000a900473ffffffffffffffffffffffffffffffffffffffff1673ffffffffffffffffffffffffffffffffffffffff166338cc48316040518163ffffffff167c0100000000000000000000000000000000000000000000000000000000028152600401602060405180830381600087803b158015613bcc57600080fd5b505af1158015613be0573d6000803e3d6000fd5b505050506040513d6020811015613bf657600080fd5b8101908080519060200190929190505050600660006101000a81548173ffffffffffffffffffffffffffffffffffffffff021916908373ffffffffffffffffffffffffffffffffffffffff1602179055505b600660009054906101000a900473ffffffffffffffffffffffffffffffffffffffff1673ffffffffffffffffffffffffffffffffffffffff1663c281d19e6040518163ffffffff167c010000000000000000000000000000000000000000000000000000000002815260040160206040518083038186803b158015613ccc57600080fd5b505afa158015613ce0573d6000803e3d6000fd5b505050506040513d6020811015613cf657600080fd5b8101908080519060200190929190505050905090565b600080823b905060008111915050919050565b6000601260ff16600a0a613d3c838561495e90919063ffffffff16565b811515613d4557fe5b04905092915050565b60008073ffffffffffffffffffffffffffffffffffffffff16600760009054906101000a900473ffffffffffffffffffffffffffffffffffffffff1673ffffffffffffffffffffffffffffffffffffffff161480613dd657506000613dd4600760009054906101000a900473ffffffffffffffffffffffffffffffffffffffff16614942565b145b15613de757613de5600061494d565b505b600760009054906101000a900473ffffffffffffffffffffffffffffffffffffffff1673ffffffffffffffffffffffffffffffffffffffff166338cc48316040518163ffffffff167c0100000000000000000000000000000000000000000000000000000000028152600401602060405180830381600087803b158015613e6d57600080fd5b505af1158015613e81573d6000803e3d6000fd5b505050506040513d6020811015613e9757600080fd5b810190808051906020019092919050505073ffffffffffffffffffffffffffffffffffffffff16600660009054906101000a900473ffffffffffffffffffffffffffffffffffffffff1673ffffffffffffffffffffffffffffffffffffffff1614151561400057600760009054906101000a900473ffffffffffffffffffffffffffffffffffffffff1673ffffffffffffffffffffffffffffffffffffffff166338cc48316040518163ffffffff167c0100000000000000000000000000000000000000000000000000000000028152600401602060405180830381600087803b158015613f8457600080fd5b505af1158015613f98573d6000803e3d6000fd5b505050506040513d6020811015613fae57600080fd5b8101908080519060200190929190505050600660006101000a81548173ffffffffffffffffffffffffffffffffffffffff021916908373ffffffffffffffffffffffffffffffffffffffff1602179055505b600660009054906101000a900473ffffffffffffffffffffffffffffffffffffffff1673ffffffffffffffffffffffffffffffffffffffff1663524f3889836040518263ffffffff167c01000000000000000000000000000000000000000000000000000000000281526004018080602001828103825283818151815260200191508051906020019080838360005b838110156140aa57808201518184015260208101905061408f565b50505050905090810190601f1680156140d75780820380516001836020036101000a031916815260200191505b5092505050602060405180830381600087803b1580156140f657600080fd5b505af115801561410a573d6000803e3d6000fd5b505050506040513d602081101561412057600080fd5b81019080805190602001909291905050509050919050565b60008073ffffffffffffffffffffffffffffffffffffffff16600760009054906101000a900473ffffffffffffffffffffffffffffffffffffffff1673ffffffffffffffffffffffffffffffffffffffff1614806141c0575060006141be600760009054906101000a900473ffffffffffffffffffffffffffffffffffffffff16614942565b145b156141d1576141cf600061494d565b505b600760009054906101000a900473ffffffffffffffffffffffffffffffffffffffff1673ffffffffffffffffffffffffffffffffffffffff166338cc48316040518163ffffffff167c0100000000000000000000000000000000000000000000000000000000028152600401602060405180830381600087803b15801561425757600080fd5b505af115801561426b573d6000803e3d6000fd5b505050506040513d602081101561428157600080fd5b810190808051906020019092919050505073ffffffffffffffffffffffffffffffffffffffff16600660009054906101000a900473ffffffffffffffffffffffffffffffffffffffff1673ffffffffffffffffffffffffffffffffffffffff161415156143ea57600760009054906101000a900473ffffffffffffffffffffffffffffffffffffffff1673ffffffffffffffffffffffffffffffffffffffff166338cc48316040518163ffffffff167c0100000000000000000000000000000000000000000000000000000000028152600401602060405180830381600087803b15801561436e57600080fd5b505af1158015614382573d6000803e3d6000fd5b505050506040513d602081101561439857600080fd5b8101908080519060200190929190505050600660006101000a81548173ffffffffffffffffffffffffffffffffffffffff021916908373ffffffffffffffffffffffffffffffffffffffff1602179055505b6000600660009054906101000a900473ffffffffffffffffffffffffffffffffffffffff1673ffffffffffffffffffffffffffffffffffffffff1663524f3889856040518263ffffffff167c01000000000000000000000000000000000000000000000000000000000281526004018080602001828103825283818151815260200191508051906020019080838360005b8381101561449657808201518184015260208101905061447b565b50505050905090810190601f1680156144c35780820380516001836020036101000a031916815260200191505b5092505050602060405180830381600087803b1580156144e257600080fd5b505af11580156144f6573d6000803e3d6000fd5b505050506040513d602081101561450c57600080fd5b8101908080519060200190929190505050905062030d403a02670de0b6b3a7640000018111156145435760006001029150506146ee565b600660009054906101000a900473ffffffffffffffffffffffffffffffffffffffff1673ffffffffffffffffffffffffffffffffffffffff1663adf59f99828787876040518563ffffffff167c0100000000000000000000000000000000000000000000000000000000028152600401808481526020018060200180602001838103835285818151815260200191508051906020019080838360005b838110156145fa5780820151818401526020810190506145df565b50505050905090810190601f1680156146275780820380516001836020036101000a031916815260200191505b50838103825284818151815260200191508051906020019080838360005b83811015614660578082015181840152602081019050614645565b50505050905090810190601f16801561468d5780820380516001836020036101000a031916815260200191505b50955050505050506020604051808303818588803b1580156146ae57600080fd5b505af11580156146c2573d6000803e3d6000fd5b50505050506040513d60208110156146d957600080fd5b81019080805190602001909291905050509150505b9392505050565b6020604051908101604052806000815250600d6000838152602001908152602001600020600101908051906020019061472f9291906150e7565b506000600d600083815260200190815260200160002060000160006101000a81548173ffffffffffffffffffffffffffffffffffffffff021916908373ffffffffffffffffffffffffffffffffffffffff1602179055506000600d600083815260200190815260200160002060050160006101000a81548173ffffffffffffffffffffffffffffffffffffffff021916908373ffffffffffffffffffffffffffffffffffffffff1602179055506000600d6000838152602001908152602001600020600201819055506000600d600083815260200190815260200160002060030181905550600e8181548110151561482357fe5b906000526020600020016000905550565b600061484182600061499c565b9050919050565b600073ffffffffffffffffffffffffffffffffffffffff168173ffffffffffffffffffffffffffffffffffffffff161415151561488457600080fd5b8073ffffffffffffffffffffffffffffffffffffffff166000809054906101000a900473ffffffffffffffffffffffffffffffffffffffff1673ffffffffffffffffffffffffffffffffffffffff167f8be0079c531659141344cd1fd0a4f28419497f9722a3daafe3b4186f6b6457e060405160405180910390a3806000806101000a81548173ffffffffffffffffffffffffffffffffffffffff021916908373ffffffffffffffffffffffffffffffffffffffff16021790555050565b6000813b9050919050565b6000614957614c37565b9050919050565b6000808314156149715760009050614996565b6000828402905082848281151561498457fe5b0414151561499157600080fd5b809150505b92915050565b600060608390506000809050600080905060008090505b8351811015614c1857603084828151811015156149cc57fe5b9060200101517f010000000000000000000000000000000000000000000000000000000000000090047f0100000000000000000000000000000000000000000000000000000000000000027f0100000000000000000000000000000000000000000000000000000000000000900460ff1610158015614aca575060398482815181101515614a5657fe5b9060200101517f010000000000000000000000000000000000000000000000000000000000000090047f0100000000000000000000000000000000000000000000000000000000000000027f0100000000000000000000000000000000000000000000000000000000000000900460ff1611155b15614b7e578115614aed576000861415614ae357614c18565b8580600190039650505b600a8302925060308482815181101515614b0357fe5b9060200101517f010000000000000000000000000000000000000000000000000000000000000090047f0100000000000000000000000000000000000000000000000000000000000000027f0100000000000000000000000000000000000000000000000000000000000000900460ff160383019250614c0b565b602e8482815181101515614b8e57fe5b9060200101517f010000000000000000000000000000000000000000000000000000000000000090047f0100000000000000000000000000000000000000000000000000000000000000027f0100000000000000000000000000000000000000000000000000000000000000900460ff161415614c0a57600191505b5b80806001019150506149b3565b506000851115614c2b5784600a0a820291505b81935050505092915050565b600080614c57731d3b2638a7cc9f2cb3d298a3da7a90b67e5506ed614942565b1115614cf957731d3b2638a7cc9f2cb3d298a3da7a90b67e5506ed600760006101000a81548173ffffffffffffffffffffffffffffffffffffffff021916908373ffffffffffffffffffffffffffffffffffffffff160217905550614cf06040805190810160405280600b81526020017f6574685f6d61696e6e65740000000000000000000000000000000000000000008152506150cd565b600190506150ca565b6000614d1873c03a2615d5efaf5f49f60b7bb6583eaec212fdf1614942565b1115614dba5773c03a2615d5efaf5f49f60b7bb6583eaec212fdf1600760006101000a81548173ffffffffffffffffffffffffffffffffffffffff021916908373ffffffffffffffffffffffffffffffffffffffff160217905550614db16040805190810160405280600c81526020017f6574685f726f707374656e3300000000000000000000000000000000000000008152506150cd565b600190506150ca565b6000614dd973b7a07bcf2ba2f2703b24c0691b5278999c59ac7e614942565b1115614e7b5773b7a07bcf2ba2f2703b24c0691b5278999c59ac7e600760006101000a81548173ffffffffffffffffffffffffffffffffffffffff021916908373ffffffffffffffffffffffffffffffffffffffff160217905550614e726040805190810160405280600981526020017f6574685f6b6f76616e00000000000000000000000000000000000000000000008152506150cd565b600190506150ca565b6000614e9a73146500cfd35b22e4a392fe0adc06de1a1368ed48614942565b1115614f3c5773146500cfd35b22e4a392fe0adc06de1a1368ed48600760006101000a81548173ffffffffffffffffffffffffffffffffffffffff021916908373ffffffffffffffffffffffffffffffffffffffff160217905550614f336040805190810160405280600b81526020017f6574685f72696e6b6562790000000000000000000000000000000000000000008152506150cd565b600190506150ca565b6000614f5b736f485c8bf6fc43ea212e93bbf8ce046c7f1cb475614942565b1115614fbf57736f485c8bf6fc43ea212e93bbf8ce046c7f1cb475600760006101000a81548173ffffffffffffffffffffffffffffffffffffffff021916908373ffffffffffffffffffffffffffffffffffffffff160217905550600190506150ca565b6000614fde7320e12a1f859b3feae5fb2a0a32c18f5a65555bbf614942565b1115615042577320e12a1f859b3feae5fb2a0a32c18f5a65555bbf600760006101000a81548173ffffffffffffffffffffffffffffffffffffffff021916908373ffffffffffffffffffffffffffffffffffffffff160217905550600190506150ca565b60006150617351efaf4c8b3c9afbd5ab9f4bbc82784ab6ef8faa614942565b11156150c5577351efaf4c8b3c9afbd5ab9f4bbc82784ab6ef8faa600760006101000a81548173ffffffffffffffffffffffffffffffffffffffff021916908373ffffffffffffffffffffffffffffffffffffffff160217905550600190506150ca565b600090505b90565b80600890805190602001906150e39291906150e7565b5050565b828054600181600116156101000203166002900490600052602060002090601f016020900481019282601f1061512857805160ff1916838001178555615156565b82800160010185558215615156579182015b8281111561515557825182559160200191906001019061513a565b5b509050615163919061524a565b5090565b828054600181600116156101000203166002900490600052602060002090601f016020900481019282601f106151a857805160ff19168380011785556151d6565b828001600101855582156151d6579182015b828111156151d55782518255916020019190600101906151ba565b5b5090506151e3919061524a565b5090565b60c060405190810160405280600073ffffffffffffffffffffffffffffffffffffffff16815260200160608152602001600081526020016000815260200160008152602001600073ffffffffffffffffffffffffffffffffffffffff1681525090565b61526c91905b80821115615268576000816000905550600101615250565b5090565b9056fea165627a7a72305820a0098e9a6975edb8d0770cb786d515cda8ef063732eb29855e4b4a3420130cf00029",
  "source": "pragma solidity ^0.5.0;\n\nimport \"openzeppelin-solidity/contracts/math/SafeMath.sol\";\nimport \"openzeppelin-solidity/contracts/token/ERC20/IERC20.sol\";\nimport \"./SafeDecimalMath.sol\";\nimport \"./Address.sol\";\nimport \"./Mortal.sol\";\nimport \"./Pausable.sol\";\nimport \"./Proxyable.sol\";\nimport \"./TokenExchangeState.sol\";\nimport \"./ETHPriceTicker.sol\";\n\n/**\n * @title A simple decentralized Peer 2 Peer Token exchanger\n * @notice Allows people to list their alt coins to sell for ETH\n * Buyer choose a listing and send ETH to the contract which will \n * send the seller the ETH and the buyer the tokens\n */\ncontract TokenExchange is Pausable, Proxyable, Mortal, ETHPriceTicker {\n    using SafeMath for uint;\n    using SafeDecimalMath for uint;\n\n    /* Add our isContract() utility function to the Address types */\n    using Address for address;\n    using Address for address payable;\n\n    /* Stores trade listings from users. */\n    struct TradeListing {\n        // The user that made the token deposit whio wants to receive ETH\n        address payable user;\n        // The token symbol\n        string symbol;\n        // The amount that they deposited for trading\n        uint amount;\n        // The ETH rate the person wants to sell their token for\n        uint ethRate;\n        // The total cost in ETH\n        uint totalPrice;\n        // The contract address of the token being sold\n        address tokenContractAddress;\n    }\n\n    //-----------------------------------------------------------------\n    // Public Variables\n    //-----------------------------------------------------------------\n\n    /* Where the state is stored so we can pause and upgrade this contract */\n    TokenExchangeState public externalState;\n\n    /* Reentrancy Preventer bool for noReentrancy modifer */\n    bool reentrancyLock;\n\n    /* Mapping all users tradeListings by ID */\n    mapping(uint => TradeListing) public tradeListings;\n\n    /* Array of IDs */\n    uint[] public tradeID;\n    \n    /**\n     * @dev Constructor\n     * @param _selfDestructBeneficiary The account where all the funds go when this contrqct is killed. \n     * @param _proxy The Proxy contract address.\n     * @param _externalState The  contract we'll interact with for balances and state.\n     * @param _priceETHUSD The current price of ETH in USD, expressed in UNIT.\n     */\n    constructor(address payable _selfDestructBeneficiary,\n                address payable _proxy, \n                TokenExchangeState _externalState,\n                string memory _priceETHUSD)\n        Proxyable(_proxy)\n        Mortal(_selfDestructBeneficiary)\n        Pausable()\n        ETHPriceTicker()\n        public\n    {\n        externalState = _externalState;\n        // Seed the ETH price on setup. Awaiting the Ocraclize to update\n        priceETHUSD = _priceETHUSD;  \n    }\n\n    //-----------------------------------------------------------------\n    // Public Functions\n    //-----------------------------------------------------------------\n \n    /**\n     * @notice Get the total number of tokens for he DApp to iterate\n     */\n    function getTradeListingCount() \n        public \n        view\n        returns(uint) \n    {\n        return tradeID.length;\n    }\n\n    //-----------------------------------------------------------------\n    // Public Mutative Functions\n    //-----------------------------------------------------------------\n\n    /**\n     * @notice createTradeListing: Allows users to deposit tokens via the ERC20 approve / transferFrom workflow\n     * @param symbol The ERC20 token symbol\n     * @param amount The amount of tokens you wish to deposit (must have been approved first)\n     * @param ethRate The price of ETH the user wants per token\n     * @param tokenContract The address of the token contract\n     */\n    function createTradeListing(\n            string memory symbol,  \n            uint amount, \n            uint ethRate,\n            address tokenContract)\n        optionalProxy\n        notPaused\n        public\n        returns (uint)\n    {\n        // Check amount must be something to trade\n        require(amount > 0, \"You cant deposit nothing to trade\");\n\n        // Check tokens have a price\n        require(ethRate > 0, \"It's highly doubtfull you want these to be free\");\n\n        // Check the tokenContract address provided is a contract or the transfer is bogus\n        require(tokenContract.isContract(), \"The tokenContract address you provided is not a contract? Did you make a mistake?\");\n\n        // Grab the users tokens from its contract. User must do the approve first in the DApp \n        require(IERC20(tokenContract).transferFrom(messageSender, address(this), amount));\n\n        // Get a unique ID. Just using a basic shadow array to use uints as the IDs so \n        // we can simply iterate the mapping for the list of trades. There are better ways \n        // to do this beyond the scope of this project requirements. \n        uint newTradeID = tradeID.length; \n        tradeID.push(newTradeID);\n\n        // Create a tradeListing\n        uint totalPrice = amount.multiplyDecimal(ethRate);\n        tradeListings[newTradeID] = TradeListing({ \n            user: messageSender, \n            symbol: symbol,\n            amount: amount, \n            ethRate: ethRate, \n            totalPrice: totalPrice,\n            tokenContractAddress: tokenContract});\n        \n        // Tell the DApps we have a new trade listed\n        emit TradeListingDeposit(messageSender, amount, newTradeID);\n\n        return newTradeID;\n    }\n\n    /**\n     * @notice Allow users to withdraw their tokens and delete their trade listing\n     * @param listingID ID of the trade listing\n     */\n    function withdrawMyDepositedTokens(uint listingID)\n        optionalProxy\n        notPaused\n        public\n    {\n        // Find the TokenDeposit by depositID in our mapping \n        TradeListing memory trade = tradeListings[listingID];\n\n        // Make sure we're trying to withdraw our listing\n        require(trade.user == messageSender, \"Thats not your deposit to withdraw\");\n\n        // Remove the trade listing from our storage\n        removeTradeListing(listingID);\n\n        // Send their tokens back to them\n        require(IERC20(trade.tokenContractAddress).transfer(trade.user, trade.amount), \"The transfer of the ERC20 Tokens failed. Check the ERC20 Token contract\");\n\n        // Tell the DApps there was a withdrawal\n        emit TradeListingWithdrawal(messageSender, trade.amount, listingID);\n    }\n\n    /**\n     * @notice Buy tokens from trade listing with ETH\n     * @param listingID ID of the trade listing\n     */\n    function exchangeEtherForTokens(\n            uint listingID)\n        optionalProxy\n        notPaused\n        refund(listingID)\n        noReentrancy\n        payable\n        public\n    {\n        // Find the TokenDeposit by depositID in our mapping \n        TradeListing memory trade = tradeListings[listingID];\n\n        // Revert if its not found\n        require(trade.totalPrice != 0, \"The Trade listingID you've requested does not exist\");\n\n        // Make sure the user has sent enough ETH to cover the trade\n        require(msg.value >= trade.totalPrice, \"You have not sent enough ETH to cover the cost of this trade\"); \n\n        // Delete the deposit\n        removeTradeListing(listingID); // @dev to prevent we have a noReentrancy modifier\n\n        // Send the ERC20 tokens to the buyer\n        require(IERC20(trade.tokenContractAddress).transfer(messageSender, trade.amount), \"The transfer of the ERC20 Tokens failed. Check the ERC20 Token contract\");\n\n        // Send the ETH to the seller\n        trade.user.transfer(trade.totalPrice); // dont send the msg.value as we may need to refund some to the buyer\n\n        // Tell the DApps there was an Exchange\n        emit Exchange(\"ETH\", trade.totalPrice, trade.symbol, trade.amount);\n    }\n\n    function getTradeCostPriceInUSD(uint listingID)   \n        optionalProxy\n        public \n        returns (uint costUSD)\n    {\n        emit Loguint(\"listingID arg\", listingID);\n        // Find the TokenDeposit by depositID in our mapping \n        TradeListing memory trade = tradeListings[listingID];\n\n        // Revert if its not found\n        require(trade.amount != 0, \"The Trade listingID you've requested does not exist\");\n\n        emit Loguint(\"trade.totalPrice\", trade.totalPrice);\n\n        emit LogString(\"call updateEthPrice\",\"\");\n        // Get the oracle to get the latest price\n        //updateEthPrice();\n\n        // Return the price in USD\n        costUSD = trade.totalPrice.multiplyDecimal(parseInt(priceETHUSD));\n        \n        emit Loguint(\"costUSD\", costUSD);\n    }\n\n    function callOracle()   \n        optionalProxy\n        public \n        returns (bool)\n    {\n        update();\n        emit LogString(\"updateEthPrice called\", \"\");\n        return true;\n    }\n\n    /**\n     * @notice Fallback function - Protect users from sending ETH here by accident\n     */\n    function() \n        optionalProxy\n        external {\n        revert();\n    }\n\n    //-----------------------------------------------------------------\n    // Internal Functions\n    //-----------------------------------------------------------------\n\n    function removeTradeListing(uint listingID) internal {\n        // Remove struct from mapping\n        // delete mapping[key] doesnt actually delete the struct it just clears out all the values\n        //delete tradeListings[listingID]; was causing VM error and reverting\n\n        // Clear struct values in mapping but the one reverting the EVM\n        tradeListings[listingID].symbol = '';\n        tradeListings[listingID].user = address(0);\n        tradeListings[listingID].tokenContractAddress = address(0);\n        tradeListings[listingID].amount = 0;\n        tradeListings[listingID].ethRate = 0;\n        //tradeListings[listingID].totalPrice = 0; // @dev TODO the EVM reverts if I attempt to change this value. Why?\n\n        // Remove ID from array so its an empty spot\n        delete tradeID[listingID];\n    }\n\n    //-----------------------------------------------------------------\n    // Modifiers\n    //-----------------------------------------------------------------\n\n    /**\n     * @notice Refund the buyer any extra ETH they sent\n     */\n    modifier refund(uint listingID) {\n        //refund them after pay for item (why it is before, _ checks for logic before func)\n        _;\n        TradeListing memory trade = tradeListings[listingID];\n        uint amountToRefund = msg.value - trade.totalPrice;\n        trade.user.transfer(amountToRefund);\n    }\n\n    /** \n    * @notice Modifier to insure that functions cannot be reentered \n    * during execution. Note there is only one global \"locked\" var, so \n    * there is a potential to be locked out of all functions that use \n    * the modifier at the same time.\n    */ \n    modifier noReentrancy() {  \n        require(!reentrancyLock, \"reentrancyLocked!\");\n        reentrancyLock = true;\n        _;\n        reentrancyLock = false;\n    }\n\n    //-----------------------------------------------------------------\n    // Events\n    //-----------------------------------------------------------------\n    \n    /**\n     * @notice emit when a seller has successfully deposited tokens and created a trade listing \n     */\n    event TradeListingDeposit(address indexed user, uint amount, uint tradeID);\n   \n    /**\n     * @notice emit when a buyer has successfully bought a sellers tokens with ETH\n     */\n    event Exchange(string fromSymbol, uint fromAmount, string toSymbol, uint toAmount);\n    \n    /**\n     * @notice emit when a seller has successfuly withdrawn their tokens and removes the trade listing\n     */\n    event TradeListingWithdrawal(address indexed user, uint amount, uint tradeID);\n    \n\n    //-----------------------------------------------------------------\n    // Events Debugging  \n    //-----------------------------------------------------------------\n    /**\n     * @dev Just used for debugging during dev - delete for release\n     */\n    event LogString(string description, string value);\n    event Loguint(string description, uint value);\n    event LogAddress(string description, address value);\n}",
  "sourcePath": "/Users/clintonennis/Playground/final-project-hav-noms/contracts/TokenExchange.sol",
  "compiler": {
    "name": "solc",
    "version": "0.5.0+commit.1d4f565a.Emscripten.clang"
  },
  "schemaVersion": "3.0.1",
  "updatedAt": "2019-01-26T06:57:20.293Z",
  "devdoc": {
    "methods": {
      "constructor": {
        "details": "Constructor",
        "params": {
          "_externalState": "The  contract we'll interact with for balances and state.",
          "_priceETHUSD": "The current price of ETH in USD, expressed in UNIT.",
          "_proxy": "The Proxy contract address.",
          "_selfDestructBeneficiary": "The account where all the funds go when this contrqct is killed. "
        }
      },
      "createTradeListing(string,uint256,uint256,address)": {
        "params": {
          "amount": "The amount of tokens you wish to deposit (must have been approved first)",
          "ethRate": "The price of ETH the user wants per token",
          "symbol": "The ERC20 token symbol",
          "tokenContract": "The address of the token contract"
        }
      },
      "exchangeEtherForTokens(uint256)": {
        "params": {
          "listingID": "ID of the trade listing"
        }
      },
      "initiateSelfDestruct()": {
        "details": "Only the contract owner may call this."
      },
      "isOwner()": {
        "return": "true if `msg.sender` is the owner of the contract."
      },
      "owner()": {
        "return": "the address of the owner."
      },
      "renounceOwnership()": {
        "details": "Allows the current owner to relinquish control of the contract."
      },
      "selfDestruct()": {
        "details": "Only the contract owner may call this."
      },
      "setMessageSender(address)": {
        "details": "We must get the msg.sender from the proxy otherwise the sender will be the Proxy",
        "params": {
          "sender": "The msg.sender or the caller of the function"
        }
      },
      "setPaused(bool)": {
        "details": "Only the contract owner may call this."
      },
      "setProxy(address)": {
        "params": {
          "_proxy": "The proxy this contract exists behind"
        }
      },
      "setSelfDestructBeneficiary(address)": {
        "details": "Only the contract owner may call this. The provided beneficiary must be non-null.",
        "params": {
          "_beneficiary": "The address to pay any eth contained in this contract to upon self-destruction."
        }
      },
      "terminateSelfDestruct()": {
        "details": "Only the contract owner may call this."
      },
      "transferOwnership(address)": {
        "details": "Allows the current owner to transfer control of the contract to a newOwner.",
        "params": {
          "newOwner": "The address to transfer ownership to."
        }
      },
      "withdrawMyDepositedTokens(uint256)": {
        "params": {
          "listingID": "ID of the trade listing"
        }
      }
    },
    "title": "A simple decentralized Peer 2 Peer Token exchanger"
  },
  "userdoc": {
    "methods": {
      "createTradeListing(string,uint256,uint256,address)": {
        "notice": "createTradeListing: Allows users to deposit tokens via the ERC20 approve / transferFrom workflow"
      },
      "exchangeEtherForTokens(uint256)": {
        "notice": "Buy tokens from trade listing with ETH"
      },
      "getTradeListingCount()": {
        "notice": "Get the total number of tokens for he DApp to iterate"
      },
      "initiateSelfDestruct()": {
        "notice": "Begin the self-destruction counter of this contract. Once the delay has elapsed, the contract may be self-destructed."
      },
      "renounceOwnership()": {
        "notice": "Renouncing to ownership will leave the contract without an owner. It will not be possible to call the functions with the `onlyOwner` modifier anymore."
      },
      "selfDestruct()": {
        "notice": "If the self-destruction delay has elapsed, destroy this contract and remit any ether it owns to the beneficiary address."
      },
      "setPaused(bool)": {
        "notice": "Change the paused state of the contract"
      },
      "setSelfDestructBeneficiary(address)": {
        "notice": "Set the beneficiary address of this contract."
      },
      "terminateSelfDestruct()": {
        "notice": "Terminate and reset the self-destruction timer."
      },
      "withdrawMyDepositedTokens(uint256)": {
        "notice": "Allow users to withdraw their tokens and delete their trade listing"
      }
    },
    "notice": "Allows people to list their alt coins to sell for ETH Buyer choose a listing and send ETH to the contract which will  send the seller the ETH and the buyer the tokens"
  }
}